:1000000002C100002EC100002CC100002AC1000066
:1000100028C1000026C1000024C1000022C1000048
:1000200020C100001EC100001CC100001AC1000058
:1000300018C1000016C1000014C1000012C1000068
:1000400010C100000EC100000CC100000AC1000078
:1000500008C1000006C1000004C1000082C4000005
:1000600000C10000FEC00000FCC00000FAC000009B
:10007000F8C00000F6C00000F4C00000F2C00000AC
:10008000F0C00000EEC00000ECC00000EAC00000BC
:10009000E8C00000E6C00000E4C00000E2C00000CC
:1000A000E0C00000DEC00000DCC00000DAC00000DC
:1000B000D8C00000D6C00000D4C00000D2C00000EC
:1000C000D0C00000CEC00000CCC00000CAC00000FC
:1000D000C8C00000C6C00000C4C00000C2C000000C
:1000E000C0C0000000002100240027002A002D00CD
:1000F0003000330001010000040107010A01000083
:100100002200250028002B002E00310034000201BF
:100110000000050108010B0100002000230026005B
:1001200029002C002F00320000010000030106010D
:10013000090105050505070508080808020202026D
:100140000A0A080804040404010101010101010173
:100150000303030303030303040707070C0C0C0C3E
:100160000C0C0C0C02020202060606060606060627
:100170000B0B0B0B0B0B0B0B0102102020080810B4
:100180002040102040800201020108040201010207
:1001900004081020408080402010080402018004E0
:1001A000020180402010080402010804020101023B
:1001B0000408102040800102040810204080000044
:1001C0000A0B02090C0D0E080703040100000000D1
:1001D000000000000000000000000000000000001F
:1001E00000000000000000000000121110000000DC
:1001F00000000000000000000000000000000000FF
:1002000000000000770711241FBECFEFD1E2DEBF50
:10021000CDBF00E00CBF12E0A0E0B2E0E2E0F1E10F
:1002200000E00BBF02C007900D92AE32B107D9F7C4
:1002300022E0AEE2B2E001C01D92A33DB207E1F7B9
:1002400011E0C3E0D1E000E005C021970109802F53
:10025000FE0134D7C230D10780E00807B1F7CBD315
:100260004EC7CECE96E0899FD0011124A05CBD4F31
:1002700090967C936E935F9791E091969C93919763
:10028000E091AD02F091AE029091AC02992339F069
:10029000309751F0811108C080915C021994309719
:1002A00019F05C968C91FACF0895CF92DF92EF927D
:1002B000FF920F931F9396E0899FF0011124E05C59
:1002C000FD4F11A2278D30A12130310549F178F081
:1002D0002230310509F44FC02330310509F450C0F4
:1002E0001F910F91FF90EF90DF90CF9008956623BC
:1002F000B9F361E070E0B6DF2FB7F89480913C026B
:1003000090913D02A0913E02B0913F022FBF809399
:10031000980290939902A0939A02B0939B02E0CF27
:100320009FB7F894C0903C02D0903D02E0903E020E
:10033000F0903F029FBF0091980210919902209186
:100340009A0230919B02C01AD10AE20AF30A009184
:10035000AA021091AB0230E020E00C151D052E051D
:100360003F0548F462E070E01F910F91FF90EF901D
:10037000DF90CF9077CF6111B3CF63E070E0F4CF1F
:1003800070E060E0F1CFAF92BF92CF92DF92EF9238
:10039000FF920F931F93CF93DF936C017B018B012F
:1003A000040F151FEB015E01AE18BF08C017D1077F
:1003B00059F06991D601ED91FC910190F081E02D09
:1003C000C6011995892B79F7C501DF91CF911F914E
:1003D0000F91FF90EF90DF90CF90BF90AF90089576
:1003E0008150823108F059C0E82FF0E08827E550AD
:1003F000FE4F8F4F63C61B021F020D02130217022E
:100400004D02220228022C02320236023A02400237
:1004100044024D0248024E025202809180008F77C2
:10042000809380000895809180008F7DF9CF809126
:100430008000877FF5CF84B58F7784BD089584B51C
:100440008F7DFBCF8091B0008F778093B0000895AF
:100450008091B0008F7DF9CF809190008F7780934D
:1004600090000895809190008F7DF9CF8091900049
:10047000877FF5CF8091A0008F778093A0000895AB
:100480008091A0008F7DF9CF8091A000877FF5CF6C
:10049000809120018F778093200108958091200121
:1004A0008F7DF9CF80912001877FF5CFCF93DF93A8
:1004B000282F30E0F901E254FE4F8491F901E85809
:1004C000FE4FD491F901EE5CFE4FC491CC2399F01C
:1004D000811186DFEC2FF0E0EE0FFF1FE85EFE4F8C
:1004E000A591B491EC91ED2381E090E009F480E0D6
:1004F000DF91CF91089580E090E0FACF862FD6CF9C
:100500001F93CF93DF93282F30E0F901E254FE4F81
:100510008491F901E858FE4FD491F901EE5CFE4F49
:10052000C491CC23A1F0162F81115ADFEC2FF0E0FB
:10053000EE0FFF1FE250FF4FA591B4918FB7F894D3
:10054000EC91111108C0D095DE23DC938FBFDF91B1
:10055000CF911F910895DE2BF8CF862F642FD0CF37
:10056000CF93DF9390E0FC01E858FE4F24918E5C1E
:100570009E4FFC0184918823C9F090E0880F991F59
:10058000FC01EC51FF4FA591B491FC01E250FF4FEB
:10059000C591D49161110DC09FB7F8948C912095AD
:1005A00082238C938881282328839FBFDF91CF915A
:1005B0000895623051F49FB7F8943C91822F809552
:1005C00083238C93E8812E2BEFCF8FB7F894EC9197
:1005D0002E2B2C938FBFEACF862F642FC1CF089587
:1005E00090E080E00895E091B902F091BA02E155FF
:1005F000FD4FCF018F5A92400A9714F41192F9CF10
:100600008FEA92E0E9D41092AF021092B0021092F9
:10061000B1021092B2021092B3021092B402109280
:10062000B5021092B6021092B7021092B802089565
:100630008F929F92AF92BF920F931F93CF93DF93AE
:10064000CDB7DEB7A1970FB6F894DEBF0FBECDBF12
:1006500019A2423008F44AE08E010F5D1F4F842E2C
:10066000912CB12CA12CA5019401EAD4E62FB9015B
:10067000CA01EA303CF5E05DD801EE938D01232BF1
:10068000242B252B81F790E080E0109761F0FD018D
:1006900001900020E9F73197AF014A1B5B0BBD01C8
:1006A0008BEB92E070DEA1960FB6F894DEBF0FBE22
:1006B000CDBFDF91CF911F910F91BF90AF909F90D1
:1006C0008F900895E95CD8CFCF93DF93EC0160E081
:1006D0008E8116DF61E08E8113DF60E08E8110DF96
:1006E0008BE891E00197F1F7DF91CF910895CF92D8
:1006F000DF92EF92FF920F931F93CF93DF936C01E2
:100700007C0187E0E80EF11CD0E0C0E0062F10E08D
:10071000B8010C2E02C0759567950A94E2F76170D6
:10072000F70181917F01ECDE2196C430D10581F77C
:10073000C601DF91CF911F910F91FF90EF90DF9055
:10074000CF90C2CFCF92DF92EF92FF920F931F9381
:10075000CF93DF93EC01F62E642F8C81D1DE8D8157
:100760008F3F11F060E0CCDE0F2D10E08F8584FF0D
:1007700023C06E0187E0C80ED11CF12CE12CB8011A
:100780000E2C02C0759567950A94E2F76170F60128
:1007900081916F01B5DEFFEFEF1AFF0A88E0E816DE
:1007A000F10469F7CE01DF91CF911F910F91FF9076
:1007B000EF90DF90CF9088CFB80184E07595679572
:1007C0008A95E1F7CE0193DF6F2DCE01DF91CF91B6
:1007D0001F910F91FF90EF90DF90CF9088CF40E076
:1007E000682F8BEB92E0AECF81E0F9DF8BE39FE1E6
:1007F0000197F1F70895CF93DF93823029F4909118
:10080000CA0298609093CA028093CE021092CF02DF
:1008100080E48093D00280E18093D10280E58093D0
:10082000D20261E08091BF029BDE8091C0028F3FC7
:1008300011F061E095DE61E08091C10291DECBEBC9
:10084000D2E09E012B5B32408091CA0284FD0AC037
:1008500084E090E02196281739073CF461E08E810E
:100860007FDEEFCF88E090E0F5CF8BE39DE001974E
:10087000F1F760E08091BF0243DE60E08091C10249
:100880003FDE8091C0028F3F11F060E039DE809141
:10089000CA0284FD2CC063E08BEB92E028DFCBE43E
:1008A000D6E4CE010197F1F763E08BEB92E01FDF16
:1008B0002197F1F763E08BEB92E019DF83E592E09B
:1008C0000197F1F762E08BEB92E011DF8091CA02B1
:1008D000806285DF84E08093CB028CE080DF84DF60
:1008E00082E08093CC0286E0DF91CF9178CF806266
:1008F00076DF8BE496E40197F1F78091CA0280627B
:100900006EDF83E592E00197F1F78091CA02806281
:1009100066DFDCCF41E016DF81E090E00895CF9202
:10092000DF92EF92FF9297FF16C06B017C0141E0CE
:100930006DE28BEB92E006DF66277727CB016C191F
:100940007D098E099F094AE073DE0196FF90EF90C2
:10095000DF90CF9008954AE0FF90EF90DF90CF9026
:1009600067CE1F920F920FB60F9211242F933F93D1
:100970008F939F93AF93BF9380913C0290913D02E0
:10098000A0913E02B0913F023091320223E0230F4A
:100990002D3758F50196A11DB11D20933202809389
:1009A0003C0290933D02A0933E02B0933F0280919F
:1009B0002E0290912F02A0913002B0913102019647
:1009C000A11DB11D80932E0290932F02A09330029F
:1009D000B0933102BF91AF919F918F913F912F9131
:1009E0000F900FBE0F901F90189526E8230F0296C8
:1009F000A11DB11DD2CF789484B5826084BD84B529
:100A0000816084BD85B5826085BD85B5816085BD09
:100A100080916E00816080936E00109281008091C1
:100A20008100826080938100809181008160809349
:100A30008100809180008160809380008091B1006E
:100A400084608093B1008091B00081608093B00099
:100A500080919100826080939100809191008160EB
:100A600080939100809190008160809390008091AC
:100A7000A10082608093A1008091A1008160809399
:100A8000A1008091A00081608093A000809121014D
:100A900082608093210180912101816080932101F6
:100AA0008091200181608093200180917A00846090
:100AB00080937A0080917A00826080937A0080919E
:100AC0007A00816080937A0080917A0080688093B8
:100AD0007A001092C10082E08EDE86DEE1E0809135
:100AE000CE028111E0E0E195F0E0E554FD4F84890C
:100AF000806875DE1092BA021092B902412C512C16
:100B00003201439422242A94322C50E0C52E50E026
:100B1000D52E51E05093AC028FB7F89440913C022F
:100B200050913D0260913E0270913F028FBF8091D3
:100B30009C0290919D02A0919E02B0919F02481B41
:100B4000590B6A0B7B0B8091A8029091A902B0E02F
:100B5000A0E084179507A607B70708F00BC1C0E00F
:100B60008091A602C81758F4E091A202F091A30266
:100B7000EC0FF11D62E08081F3DCCF5FF1CF912CAF
:100B80008091A702981608F05AC0092D10E0E09154
:100B9000A402F091A502E00FF11F61E08081E0DC8A
:100BA000E091A402F091A502E00FF11F60E08081C6
:100BB000A7DCD301C201092C04C0880F991FAA1F0A
:100BC000BB1F0A94D2F75C017C01E094F094812C65
:100BD0008091A6028816F0F4C82DD0E0E091A20220
:100BE000F091A302EC0FFD1F808160DC2496CC0FF6
:100BF000DD1FC05CDD4F892B41F4888199818A29F2
:100C00009B29998388838394E3CF888199818E215E
:100C10009F21F7CFE091A402F091A502E00FF11F10
:100C200061E080816DDC8091A4029091A502080FA3
:100C3000191F60E0F801808193DC9394A1CFC0E498
:100C4000D2E0FE01878D90A1892B21F4148E368E7F
:100C5000258E11A2369652E0EC37F50799F710E091
:100C60008091A602181708F052C000E0E12EF12C86
:100C7000EE0CFF1CC701885B9D4F7C012091A702F1
:100C8000021708F042C0F70160817181002E02C096
:100C9000769567950A94E2F7129F90011124200F30
:100CA000311DE0E4F2E080E0458D568D24173507D4
:100CB00009F41BC18F5F36968A30B1F760FF23C0FD
:100CC000E0E4F2E090E080E0448D411117C0E09153
:100CD000A002F091A102E20FF31F408156E0589F5D
:100CE000F001599FF00D1124E05CFD4F448F368FC9
:100CF000258F10A2178E61E0D8DA05C001963696CE
:100D00008A30910509F70F5FB9CF1F5FA9CF80E047
:100D100099A19111892F269692E0CC37D907C1F776
:100D20009FB7F89440913C0250913D0260913E0281
:100D300070913F029FBF40939C0250939D0260932D
:100D40009E0270939F028823A9F0809161028823FC
:100D500089F080915F0290916002019759F4C091EF
:100D60005C02C1110AC0C114D10409F4D2CE0E94A0
:100D70000000CFCE1092AC02F6CF41E06C2F8BEB8F
:100D800092E0E0DCCB32A1F4C0933B022CDC092ED4
:100D9000000CAA0BBB0B8093370290933802A093F0
:100DA0003902B0933A021092BA021092B902DBCF24
:100DB000CD3251F3CF3241F3CA3231F3C33421F58E
:100DC000E1E08091CE028111E0E0E195F0E0E554B0
:100DD000FD4F8489806803DD07DD1092BA0210920E
:100DE000B90210923B021092370210923802109210
:100DF000390210923A021092330210923402109289
:100E0000350210923602AFCFCD3309F060C0EBDB74
:100E10004C01990FAA08BB088092330290923402C9
:100E2000A0923502B0923602E091CE02E230F8F4A0
:100E3000E150F0E0E554FD4F84898068D0DC1092E9
:100E4000BA021092B90280913B028B3229F18CF4E4
:100E50008A3209F088CF6091370270913802809110
:100E6000390290913A02A5019401DBD021C0E1E062
:100E7000E0CF8D32F9F08F3209F075CF60913702F3
:100E8000709138028091390290913A02A501940143
:100E9000F9D0CA01B9010CC06091370270913802D3
:100EA0008091390290913A02680D791D8A1D9B1D2F
:100EB00036DD59CF60913702709138028091390246
:100EC00090913A02681979098A099B09F1CF8091BA
:100ED000B9029091BA02FC01E155FD4FC083019621
:100EE0009093BA028093B9023ECF617005CF109201
:100EF000420210924602109245021092470288E286
:100F000092E09093410280934002ECE5F2E010827F
:100F1000148213821582369682E0E839F807B9F711
:100F200084E092E09093A3028093A20280E092E09A
:100F30009093A5028093A40284E08093A6028093FC
:100F4000A70288E092E09093A1028093A0028AE039
:100F500090E09093A9028093A80284EF91E090938F
:100F6000AB028093AA021092AE021092AD021092D0
:100F70009C0210929D0210929E0210929F0210926B
:100F8000AC021092BE021092BD028CE192E09093EE
:100F9000BC028093BB028DE08093BF028FEF8093F1
:100FA000C0028CE08093C10288E08093C20289E095
:100FB0008093C3028AE08093C4028BE08093C502D1
:100FC0001092C6021092C7021092C8021092C90273
:100FD0001092CA0281E00FCCFC0188279927E8947F
:100FE00021912032E9F3293010F02E30C8F32B3252
:100FF00039F02D3231F4689403C00BD0820F911D6B
:10100000219120532A30C8F31EF4909581959F4F6B
:1010100008957AE0979F902D879F802D910D112440
:101020000895DB018F939F9351D0BF91AF91A29F01
:10103000800D911DA39F900DB29F900D11240895D6
:10104000A1E21A2EAA1BBB1BFD010DC0AA1FBB1FCC
:10105000EE1FFF1FA217B307E407F50720F0A21B3E
:10106000B30BE40BF50B661F771F881F991F1A94AB
:1010700069F760957095809590959B01AC01BD01D5
:10108000CF010895052E97FB16F400940FD057FD5D
:1010900005D0D6DF07FC02D046F408C05095409535
:1010A000309521953F4F4F4F5F4F08959095809514
:1010B000709561957F4F8F4F9F4F0895EE0FFF1FE3
:1010C000881F8BBF0790F691E02D199409D0A59F3A
:1010D000900DB49F900DA49F800D911D1124089533
:1010E000A29FB001B39FC001A39F700D811D112469
:1010F000911DB29F700D811D1124911D0895F894CA
:02110000FFCF1F
:1011020017191B1D1F2123253738392F3435362A4D
:101112003132332D43303D2B000000008A04C301DD
:0E112200F002EF0200000000EC02AD027E02BF
:00000001FF
