:1000000002C100002EC100002CC100002AC1000066
:1000100028C1000026C1000024C1000022C1000048
:1000200020C100001EC100001CC100001AC1000058
:1000300018C1000016C1000014C1000012C1000068
:1000400010C100000EC100000CC100000AC1000078
:1000500008C1000006C1000004C100008EC30000FA
:1000600000C10000FEC00000FCC00000FAC000009B
:10007000F8C00000F6C00000F4C00000F2C00000AC
:10008000F0C00000EEC00000ECC00000EAC00000BC
:10009000E8C00000E6C00000E4C00000E2C00000CC
:1000A000E0C00000DEC00000DCC00000DAC00000DC
:1000B000D8C00000D6C00000D4C00000D2C00000EC
:1000C000D0C00000CEC00000CCC00000CAC00000FC
:1000D000C8C00000C6C000001AC30000EFC2000084
:1000E000C0C00000000020002300260029002C00D2
:1000F0002F00320000010000030106010901000089
:100100002100240027002A002D00300033000101C7
:100110000000040107010A01000022002500280058
:100120002B002E00310034000201000005010801FF
:100130000B0105050505070508080808020202026B
:100140000A0A080804040404010101010101010173
:100150000303030303030303040707070C0C0C0C3E
:100160000C0C0C0C02020202060606060606060627
:100170000B0B0B0B0B0B0B0B0102102020080810B4
:100180002040102040800201020108040201010207
:1001900004081020408080402010080402018004E0
:1001A000020180402010080402010804020101023B
:1001B0000408102040800102040810204080000044
:1001C0000A0B02090C0D0E080703040100000000D1
:1001D000000000000000000000000000000000001F
:1001E00000000000000000000000121110000000DC
:1001F00000000000000000000000000000000000FF
:1002000000000000070411241FBECFEFD1E2DEBFC3
:10021000CDBF00E00CBF12E0A0E0B2E0E8E7FBE0F9
:1002200000E00BBF02C007900D92A433B107D9F7CD
:1002300023E0A4E3B2E001C01D92A934B207E1F7C4
:1002400011E0C3E0D1E000E005C021970109802F53
:10025000FE0188D4C230D10780E00807B1F764D32B
:1002600089C4CECEAF92BF92CF92DF92EF92FF922F
:100270000F931F93CF93DF936C017B018B01040FCE
:10028000151FEB015E01AE18BF08C017D10759F06A
:100290006991D601ED91FC910190F081E02DC601AC
:1002A0001995892B79F7C501DF91CF911F910F9196
:1002B000FF90EF90DF90CF90BF90AF900895FC013A
:1002C000538D448D252F30E0842F90E0821B930BBB
:1002D000541710F0CF96089501970895FC01918D61
:1002E000828D981761F0A28DAE0FBF2FB11D5D9664
:1002F0008C91928D9F5F9F73928F90E008958FEF06
:100300009FEF0895FC01918D828D981731F0828DB9
:10031000E80FF11D858D90E008958FEF9FEF089510
:10032000FC01918D228D892F90E0805C9F4F821B74
:1003300091098F73992708958DE392E0F1DF21E011
:10034000892B09F420E0822F0895FC01A48DA80FC9
:10035000B92FB11DA35ABF4F2C91848D90E0019607
:100360008F739927848FA689B7892C93A089B18927
:100370008C91837080648C93938D848D981306C0C8
:100380000288F389E02D80818F7D80830895EF922C
:10039000FF920F931F93CF93DF93EC0181E0888F3F
:1003A0009B8D8C8D98131AC0E889F989808185FF0F
:1003B00015C09FB7F894EE89FF896083E889F989B1
:1003C00080818370806480839FBF81E090E0DF91B3
:1003D000CF911F910F91FF90EF900895F62E0B8D06
:1003E00010E00F5F1F4F0F731127E02E8C8D8E11C1
:1003F0000BC00FB607FCFACFE889F989808185FF29
:10040000F5CFCE01A2DFF2CFEB8DEC0FFD2FF11D6A
:10041000E35AFF4FF0829FB7F8940B8FEA89FB896C
:1004200080818062D0CFCF93DF93EC01888D8823C9
:10043000B1F0AA89BB89E889F9898C9185FD03C04F
:10044000808186FD0CC00FB607FCF7CF8C9185FF2D
:10045000F2CF808185FFEDCFCE0177DFEACFDF914C
:10046000CF91089580E090E0892B49F080E090E002
:10047000892B29F00E94000081110E94000080E079
:1004800090E0892B49F080E090E0892B29F00E94D0
:10049000000081110E94000080E090E0892B49F06B
:1004A00080E090E0892B29F00E94000081110E94D9
:1004B000000080E090E0892B21F03EDF81110C9458
:1004C000000008958150823108F059C0E82FF0E013
:1004D0008827E359FD4F8F4F45C38D0291027F025C
:1004E00085028902BF0294029A029E02A402A80217
:1004F000AC02B202B602BF02BA02C002C4028091CC
:1005000080008F77809380000895809180008F7D98
:10051000F9CF80918000877FF5CF84B58F7784BD38
:10052000089584B58F7DFBCF8091B0008F77809345
:10053000B00008958091B0008F7DF9CF8091900038
:100540008F77809390000895809190008F7DF9CFF0
:1005500080919000877FF5CF8091A0008F77809366
:10056000A00008958091A0008F7DF9CF8091A00018
:10057000877FF5CF809120018F77809320010895A8
:10058000809120018F7DF9CF80912001877FF5CF69
:100590001F93CF93DF93282F30E0F901E254FE4FF1
:1005A0008491F901E858FE4FD491F901EE5CFE4FB9
:1005B000C491CC23A1F0162F811184DFEC2FF0E041
:1005C000EE0FFF1FE85EFE4FA591B4918FB7F89430
:1005D000EC91111108C0D095DE23DC938FBFDF9121
:1005E000CF911F910895DE2BF8CFCF93DF9390E04A
:1005F000FC01E858FE4F24918E5C9E4FFC018491D3
:100600008823C9F090E0880F991FFC01E250FF4F4A
:10061000A591B491FC01E85EFE4FC591D4916111A2
:100620000DC09FB7F8948C91209582238C9388817C
:10063000282328839FBFDF91CF910895623051F422
:100640009FB7F8943C91822F809583238C93E88107
:100650002E2BEFCF8FB7F894EC912E2B2C938FBFCE
:10066000EACFCF93DF9370E0FB01E254FE4F849119
:10067000FB01E858FE4FD4916E5C7E4FFB01C491A4
:10068000CC2399F081111EDFEC2FF0E0EE0FFF1F5D
:10069000EC51FF4FA591B491EC91ED2381E090E0F6
:1006A00009F480E0DF91CF91089580E090E0FACFE7
:1006B000862F642F6DCF862F642F97CF1F920F92B6
:1006C0000FB60F9211240BB60F922F933F934F93B7
:1006D0005F936F937F938F939F93AF93BF93EF93AA
:1006E000FF938DE392E031DEFF91EF91BF91AF91E7
:1006F0009F918F917F916F915F914F913F912F913A
:100700000F900BBE0F900FBE0F901F9018951F9269
:100710000F920FB60F9211240BB60F922F938F9357
:100720009F93EF93FF93E0914D02F0914E028081F1
:10073000E0915302F091540282FD1DC0908180919E
:1007400056028F5F8F7320915702821741F0E0911C
:100750005602F0E0E35CFD4F958F80935602FF91C7
:10076000EF919F918F912F910F900BBE0F900FBE25
:100770000F901F9018958081F2CF1F920F920FB6A5
:100780000F9211242F933F938F939F93AF93BF9317
:100790008091390290913A02A0913B02B0913C02C3
:1007A0003091380223E0230F2D3758F50196A11D13
:1007B000B11D209338028093390290933A02A0939E
:1007C0003B02B0933C028091340290913502A0919B
:1007D0003602B09137020196A11DB11D80933402FB
:1007E00090933502A0933602B0933702BF91AF9138
:1007F0009F918F913F912F910F900FBE0F901F905F
:10080000189526E8230F0296A11DB11DD2CF109294
:10081000400210923F0288EE93E0A0E0B0E08093A7
:10082000410290934202A0934302B09344028CE1B0
:1008300092E090933E0280933D0285E391E0909395
:100840004A028093490284E391E090934C028093A2
:100850004B0280E391E090934E0280934D0281E33E
:1008600091E09093500280934F0282E391E0909345
:1008700052028093510286E391E090935402809358
:100880005302109256021092570210925802109280
:1008900059021092DC021092E0021092DF021092D4
:1008A000E1028EE292E09093DB028093DA02E6EFBF
:1008B000F2E01082148213821582369683E0E233CE
:1008C000F807B9F784E092E090933D0380933C03EE
:1008D00080E092E090933F0380933E0384E0809316
:1008E00040038093410388E092E090933B03809320
:1008F0003A038AE090E0909343038093420384EFAD
:1009000091E0909345038093440310924803109222
:100910004703109236031092370310923803109257
:100920003903109246030895789484B5826084BD9B
:1009300084B5816084BD85B5826085BD85B58160E3
:1009400085BD80916E00816080936E001092810061
:10095000809181008260809381008091810081601C
:1009600080938100809180008160809380008091DD
:10097000B10084608093B1008091B0008160809369
:10098000B0008091910082608093910080919100ED
:1009900081608093910080919000816080939000AD
:1009A0008091A10082608093A1008091A10081606C
:1009B0008093A1008091A00081608093A00080912D
:1009C00021018260809321018091210181608093C7
:1009D00021018091200181608093200180917A0023
:1009E000846080937A0080917A00826080937A009C
:1009F00080917A00816080937A0080917A0080688B
:100A000080937A001092C100E0914D02F0914E0265
:100A100082E08083E0914902F0914A021082E091E5
:100A20004B02F0914C028FEC808310925502E091C2
:100A30005102F091520286E08083E0914F02F091E2
:100A40005002808180618083E0914F02F0915002DA
:100A5000808188608083E0914F02F0915002808114
:100A600080688083E0914F02F091500280818F7DF9
:100A7000808361E086E3B9DD61E087E3B6DD61E0B4
:100A800088E3B3DD61E089E3B0DD61E08DE3ADDDF6
:100A900061E08CE3AADD61E08BE3A7DD61E08AE33E
:100AA000A4DD61E08EE3A1DD8DE392E039DC181670
:100AB00019065CF48DE392E011DC8053990B8130D0
:100AC000910529F461E086E363DDCCDCEDCF823073
:100AD000910519F461E087E3F7CF8330910519F4AC
:100AE00061E088E3F1CF8430910519F461E089E396
:100AF000EBCF8530910519F461E08DE3E5CF8630C9
:100B0000910519F461E08CE3DFCF8730910519F48A
:100B100061E08BE3D9CF8830910519F461E08AE375
:100B2000D3CF61E089309105D9F0892B71F660E06F
:100B300086E32EDD60E087E32BDD60E088E328DDDF
:100B400060E089E325DD60E08DE322DD60E08CE399
:100B50001FDD60E08BE31CDD60E08AE319DD60E00F
:100B60008EE3B2CFEE0FFF1F881F8BBF0790F69169
:080B7000E02D1994F894FFCF69
:100B78001F21232517191B1D3738394134353642B3
:100B8800313233432A30234400000000C7013201C8
:100B98005F01130290016E018201000000005B03F7
:040BA80058033103BA
:00000001FF
