:10000000F5C0000021C100001FC100001DC100009B
:100010001BC1000019C1000017C1000015C100007C
:1000200013C1000011C100000FC100000DC100008C
:100030000BC1000009C1000007C1000005C100009C
:1000400003C10000E8C30000FFC00000FDC00000C5
:10005000FBC00000F9C00000F7C000000BC30000A7
:10006000F3C00000F1C00000EFC00000EDC00000D0
:10007000EBC00000E9C00000E7C00000E5C00000E0
:100080009DC30000E1C00000DFC00000DDC0000033
:10009000DBC00000D9C00000D7C00000D5C0000000
:1000A000D3C00000D1C000005CC30000CDC0000080
:1000B000CBC00000C9C00000C7C0000025C30000BD
:1000C000C3C00000C1C00000BFC00000BDC0000030
:1000D000BBC00000B9C00000B7C00000B5C0000040
:1000E000B3C0000000000A0B02090C0D0E08070344
:1000F00004010000000000000000000000000000FB
:1001000000000000000000000000000000000000EF
:1001100012111000000000000000000000000000AC
:100120000000000000000000000000002200250088
:1001300028002B002E0031003400020100000501D0
:1001400008010B0100002100240027002A002D00D7
:100150003000330001010000040107010A01050518
:100160000505070508080808020202020A0A08082D
:10017000040404040101010101010101030303035B
:1001800003030303040707070C0C0C0C0C0C0C0CEA
:100190000202020206060606060606060B0B0B0BFB
:1001A0000B0B0B0B01021020200808102040102020
:1001B000408002010201080402010102040810202B
:1001C0004080804020100804020180040201804029
:1001D0002010080402010804020101020408102092
:1001E00040800102040810204080740511241FBEC5
:1001F000CFEFD1E2DEBFCDBF00E00CBF12E0A0E048
:10020000B2E0E4E0FCE000E00BBF02C007900D921A
:10021000A030B107D9F722E0A0E0B2E001C01D9202
:10022000A33AB207E1F710E0C6EFD0E000E005C066
:1002300021970109802FFE01DBD4C53FD10780E063
:100240000807B1F715D3DCC4DBCECF92DF92EF9273
:10025000FF92DC01A03282E0B807C4F5A53BB105EE
:1002600014F0A4EBB0E04091A10228E830E0241B98
:10027000310947FD3395220F331F220F331F6901C8
:10028000330FEE08FF084091A20228E532E0241B5C
:10029000310947FD3395220F331F220F331F032EE1
:1002A000000C440B550B2C193D094E095F09B7FF93
:1002B00002C0B0E0A0E059D424EB30E040E050E0D0
:1002C0002ED4C20ED31EE41EF51ED601E091A0026C
:1002D000E03380F52091A10288E890E0821B91092B
:1002E00027FD9395880F991F880F991FA817B907A5
:1002F00084F02091A20288E592E0821B910927FDFB
:100300009395880F991F880F991FA817B9070CF4A8
:10031000CD010297880F991F4FB7F8942E2F30E028
:10032000F901EE0FFF1FE20FF31FE05FFD4F928315
:1003300081834FBFFF90EF90DF90CF900895282FDB
:1003400030E0F901EC51FF4F9491F901EC55FE4F6B
:100350004491225A3E4FF9012491222309F434C0DA
:10036000992309F191509231F0F4E92FF0E08827B8
:10037000E454FE4F8F4F3CC4ED01F101CE01E50185
:10038000E901D301F401FA01FE01040208020C02A2
:1003900012021602D3011A02200224028091800068
:1003A0008F7780938000E22FF0E0EE0FFF1FE65D75
:1003B000FE4FA591B4918FB7F894EC91611148C0AC
:1003C00040954E234C938FBF0895809180008F7D80
:1003D000E8CF80918000877FE4CF84B58F7784BD9C
:1003E000E2CF84B58F7DFBCF8091B0008F77809373
:1003F000B000D9CF8091B0008F7DF9CF809190006F
:100400008F7780939000CFCF809190008F7DF9CF30
:1004100080919000877FF5CF8091A0008F778093A7
:10042000A000C1CF8091A0008F7DF9CF8091A00066
:10043000877FF5CF809120018F7780932001B3CF04
:10044000809120018F7DF9CF80912001877FF5CFAA
:100450004E2BB8CF3FB7F89480910A0290910B02CF
:10046000A0910C02B0910D0226B5A89B05C02F3FAC
:1004700019F00196A11DB11D3FBFBA2FA92F982FCA
:100480008827BC01CD01620F711D811D911D42E0C5
:10049000660F771F881F991F4A95D1F708958F928D
:1004A0009F92AF92BF92CF92DF92EF92FF92D2DFF4
:1004B0004B015C018FE0C82ED12CE12CF12CCADF5E
:1004C000681979098A099B09683E7340810591057D
:1004D000B0F321E0C21AD108E108F10888EE880ED5
:1004E00083E0981EA11CB11CC114D104E104F104E5
:1004F00031F7FF90EF90DF90CF90BF90AF909F903B
:100500008F900895AF92BF92CF92DF92EF92FF92B9
:100510000F931F93CF93DF936B017A01EC01CF5FB1
:10052000DD4F28813CE0389F8001399F100D112458
:10053000A0900002B12C27FF1FC0FB011182108286
:1005400088818F5F888388819801280F311D87FDFE
:100550003A95F6012A153B051CF488818C30BCF1D4
:1005600080819181049680349C4908F471C0F60121
:100570008081918104966EC088819801280F311D79
:1005800087FD3A952A153B05DCF68881A801480FBE
:10059000511D87FD5A95FA01EE0FFF1FE40FF51F5D
:1005A000E05FFD4F808186FFCBCF8881F801E80FA7
:1005B000F11D87FDFA95CF01EE0FFF1FE80FF91F20
:1005C000E05FFD4F808160E08F73B9DEB9CF80813D
:1005D00091812881A801420F511D27FD5A959A014A
:1005E000FA01EE0FFF1FE20FF31FE05FFD4F2181C5
:1005F0003281820F931FF701918380838881980154
:10060000280F311D87FD3A95F901EE0FFF1FE20F0C
:10061000F31FE05FFD4F808186FF21C08881080FB6
:10062000111D87FD1A95F801EE0FFF1FE00FF11F56
:10063000E05FFD4F808161E08F73DF91CF911F916B
:100640000F91FF90EF90DF90CF90BF90AF9077CE5B
:1006500080E49CE9F701918380838FEF8883DF91A9
:10066000CF911F910F91FF90EF90DF90CF90BF90AF
:10067000AF9008951F920F920FB60F9211242F93EF
:100680003F938F939F93AF93BF9380910602909176
:100690000702A0910802B09109023091050223E0FF
:1006A000230F2D3758F50196A11DB11D209305028A
:1006B0008093060290930702A0930802B093090268
:1006C00080910A0290910B02A0910C02B0910D0250
:1006D0000196A11DB11D80930A0290930B02A09375
:1006E0000C02B0930D02BF91AF919F918F913F91FA
:1006F0002F910F900FBE0F901F90189526E8230F93
:100700000296A11DB11DD2CF1F920F920FB60F926C
:1007100011240BB60F922F933F934F935F936F93D8
:100720007F938F939F93AF93BF93EF93FF9348E291
:1007300051E064E271E090E080E0E4DEFF91EF914F
:10074000BF91AF919F918F917F916F915F914F91E9
:100750003F912F910F900BBE0F900FBE0F901F90E7
:1007600018951F920F920FB60F9211240BB60F928D
:100770002F933F934F935F936F937F938F939F93A9
:10078000AF93BF93EF93FF9348EA50E064EA70E0C1
:1007900083E090E0B7DEFF91EF91BF91AF919F9121
:1007A0008F917F916F915F914F913F912F910F901A
:1007B0000BBE0F900FBE0F901F9018951F920F92B7
:1007C0000FB60F9211240BB60F922F933F934F93B6
:1007D0005F936F937F938F939F93AF93BF93EF93A9
:1007E000FF9348E950E064E970E082E090E08ADE3F
:1007F000FF91EF91BF91AF919F918F917F916F91F9
:100800005F914F913F912F910F900BBE0F900FBEB4
:100810000F901F9018951F920F920FB60F921124F0
:100820000BB60F922F933F934F935F936F937F93EA
:100830008F939F93AF93BF93EF93FF9348E850E05C
:1008400064E870E081E090E05DDEFF91EF91BF91A0
:10085000AF919F918F917F916F915F914F913F9158
:100860002F910F900BBE0F900FBE0F901F901895F9
:10087000789484B5826084BD84B5816084BD85B57B
:10088000826085BD85B5816085BD80916E00816087
:1008900080936E001092810080918100826080932D
:1008A000810080918100816080938100809180002F
:1008B0008160809380008091B10084608093B1005A
:1008C0008091B00081608093B0008091910082603F
:1008D000809391008091910081608093910080913C
:1008E00090008160809390008091A100826080934D
:1008F000A1008091A10081608093A1008091A0005F
:1009000081608093A0008091210182608093210109
:10091000809121018160809321018091200181607B
:100920008093200180917A00846080937A00809186
:100930007A00826080937A0080917A00816080934F
:100940007A0080917A00806880937A001092C100CA
:100950008091A002803308F067C0E1EBF1E02491C0
:10096000EBE6F1E08491882399F090E0880F991FDD
:10097000FC01EC5BFE4FA591B491FC01E65DFE4FDE
:10098000859194918FB7F894EC91E22BEC938FBF03
:100990008091A002282F30E0F901EE0FFF1FE20F37
:1009A000F31FE05FFD4F9081907C9D6090831092DB
:1009B000A1021092A2022CE0622F0ED1829FB00100
:1009C000112430E020E0AB01420F531FFA01EE0F7B
:1009D000FF1FE40FF51FE05FFD4F908196FD16C0ED
:1009E0002F5F3F4F2C30310571F78130B9F51092F0
:1009F000800082E080938100109285001092840034
:100A0000B19A80916F00826080936F00E091A002A4
:100A10008E2F90E0FC01EE0FFF1FE80FF91FE05F43
:100A2000FD4F80818064808304EB10E080E0E82E3D
:100A300080E0F82E10920F0210920E02C0910E026A
:100A4000D0910F02C53BD105ACF5CE01FEDB27DD11
:100A50002196D0930F02C0930E02F0CF823061F442
:100A60001092900080939100109295001092940043
:100A700088BB80937100CACF833069F41092A000C4
:100A800082E08093A1001092A5001092A40089BB7F
:100A900080937200BBCF8111B9CF1092200182E008
:100AA0008093210110922501109224018ABB80932A
:100AB0007300ACCF10930F0200930E02C0910E0290
:100AC000D0910F02D7FD09C0CE01BFDBE8DC219732
:100AD000D0930F02C0930E02F1CFE114F10409F498
:100AE000A9CF0E940000A6CF80910002803398F425
:100AF00091E0980F909300028093A00290E0FC0197
:100B0000EE0FFF1FE80FF91FE05FFD4F88EB9BE042
:100B10009283818308958FEF8093A0020895052E1C
:100B200097FB16F400940FD057FD05D024D007FC96
:100B300002D046F408C050954095309521953F4F1E
:100B40004F4F5F4F089590958095709561957F4FB9
:100B50008F4F9F4F089531D0A59F900DB49F900D5A
:100B6000A49F800D911D11240895B7FFF4CFF3DFEA
:100B7000821B930B0895A1E21A2EAA1BBB1BFD0139
:100B80000DC0AA1FBB1FEE1FFF1FA217B307E4076C
:100B9000F50720F0A21BB30BE40BF50B661F771FC4
:100BA000881F991F1A9469F76095709580959095A4
:100BB0009B01AC01BD01CF010895A29FB001B39F7D
:100BC000C001A39F700D811D1124911DB29F700D56
:100BD000811D1124911D0895991B79E004C0991F6E
:100BE000961708F0961B881F7A95C9F78095089587
:100BF000EE0FFF1F881F8BBF0790F691E02D199411
:040C0000F894FFCF96
:00000001FF
