:1000000002C1000030C100002EC100002CC1000060
:100010002AC1000028C1000026C1000024C1000040
:1000200022C1000020C100001EC100001CC1000050
:100030001AC1000018C1000016C1000014C1000060
:1000400012C10000DBC600000EC100000CC10000A0
:100050000AC1000008C1000006C10000FEC5000082
:1000600002C1000000C10000FEC00000FCC0000092
:10007000FAC00000F8C00000F6C00000F4C00000A4
:1000800090C60000F0C00000EEC00000ECC0000010
:10009000EAC00000E8C00000E6C00000E4C00000C4
:1000A000E2C00000E0C000004FC60000DCC000005D
:1000B000DAC00000D8C00000D6C0000018C600009A
:1000C000D2C00000D0C00000CEC00000CCC00000F4
:1000D000CAC00000C8C00000C6C00000C4C0000004
:1000E000C2C0000000002100240027002A002D00CB
:1000F0003000330001010000040107010A01000083
:100100002200250028002B002E00310034000201BF
:100110000000050108010B0100002000230026005B
:1001200029002C002F00320000010000030106010D
:10013000090105050505070508080808020202026D
:100140000A0A080804040404010101010101010173
:100150000303030303030303040707070C0C0C0C3E
:100160000C0C0C0C02020202060606060606060627
:100170000B0B0B0B0B0B0B0B0102102020080810B4
:100180002040102040800201020108040201010207
:1001900004081020408080402010080402018004E0
:1001A000020180402010080402010804020101023B
:1001B0000408102040800102040810204080000044
:1001C0000A0B02090C0D0E080703040100000000D1
:1001D000000000000000000000000000000000001F
:1001E00000000000000000000000121110000000DC
:1001F00000000000000000000000000000000000FF
:1002000000000000D60A11241FBECFEFD1E2DEBFEE
:10021000CDBF00E00CBF12E0A0E0B2E0ECE4F8E1FA
:1002200000E00BBF02C007900D92A83AB107D9F7C2
:1002300023E0A8EAB2E001C01D92AF3DB207E1F7AA
:1002400011E0C3E0D1E000E006C021970109802F52
:10025000FE010E94080CC230D10780E00807A9F710
:10026000FAD50C94240CCCCECF92DF92EF92FF9271
:10027000DC01A03282E0B807D4F5A53BB10514F04B
:10028000A4EBB0E04091C50328E830E0241B31091D
:1002900047FD3395220F331F220F331F6901330FA0
:1002A000EE08FF084091C60328E532E0241B31091F
:1002B00047FD3395220F331F220F331F032E000CEF
:1002C000440B550B2C193D094E095F09B7FF02C0BD
:1002D000B0E0A0E00E94B20B24EB30E040E050E040
:1002E0000E948C0BC20ED31EE41EF51ED601E091B7
:1002F000C403E03380F52091C50388E890E0821BB9
:10030000910927FD9395880F991F880F991FA817AA
:10031000B90784F02091C60388E592E0821B910919
:1003200027FD9395880F991F880F991FA817B90764
:100330000CF4CD010297880F991F4FB7F8942E2F18
:1003400030E0F901EE0FFF1FE20FF31FEC5CFC4FF2
:10035000928381834FBFFF90EF90DF90CF900895FD
:1003600096E0899FD0011124AB53BD4F90967C93AA
:100370006E935F9791E091969C939197E0913203F1
:10038000F091330390913103992339F0309751F074
:10039000811108C08091E1021994309719F05C96A0
:1003A0008C91FACF0895AF92BF92CF92DF92EF92E5
:1003B000FF920F931F93CF93DF936C017B018B010F
:1003C000040F151FEB015E01AE18BF08C017D1075F
:1003D00059F06991D601ED91FC910190F081E02DE9
:1003E000C6011995892B79F7C501DF91CF911F912E
:1003F0000F91FF90EF90DF90CF90BF90AF90089556
:100400008150823108F05AC0E82FF0E08827E45F7D
:10041000FD4F8F4F0C94080C2C0230021E02240258
:1004200028025E02330239023D02430247024B02B8
:10043000510255025E0259025F0263028091800000
:100440008F77809380000895809180008F7DF9CF11
:1004500080918000877FF5CF84B58F7784BD089524
:1004600084B58F7DFBCF8091B0008F778093B000F3
:1004700008958091B0008F7DF9CF809190008F77A3
:10048000809390000895809190008F7DF9CF8091A6
:100490009000877FF5CF8091A0008F778093A00098
:1004A00008958091A0008F7DF9CF8091A000877F73
:1004B000F5CF809120018F7780932001089580915E
:1004C00020018F7DF9CF80912001877FF5CFCF93D9
:1004D000DF93282F30E0F901E254FE4F8491F901B7
:1004E000E858FE4FD491F901EE5CFE4FC491CC2345
:1004F00099F0811185DFEC2FF0E0EE0FFF1FE85E31
:10050000FE4FA591B491EC91ED2381E090E009F4C8
:1005100080E0DF91CF91089580E090E0FACF862FC0
:10052000D6CF1F93CF93DF93282F30E0F901E25409
:10053000FE4F8491F901E858FE4FD491F901EE5C29
:10054000FE4FC491CC23A1F0162F811159DFEC2F5F
:10055000F0E0EE0FFF1FE250FF4FA591B4918FB76F
:10056000F894EC91111108C0D095DE23DC938FBF75
:10057000DF91CF911F910895DE2BF8CF862F642F46
:10058000D0CFCF93DF9390E0FC01E858FE4F249149
:100590008E5C9E4FFC0184918823C9F090E0880F07
:1005A000991FFC01EC51FF4FA591B491FC01E25061
:1005B000FF4FC591D49161110DC09FB7F8948C91F4
:1005C000209582238C938881282328839FBFDF91E5
:1005D000CF910895623051F49FB7F8943C91822FE7
:1005E000809583238C93E8812E2BEFCF8FB7F894DF
:1005F000EC912E2B2C938FBFEACF862F642FC1CF87
:100600003FB7F8948091B2029091B302A091B402E6
:10061000B091B50226B5A89B05C02F3F19F00196F1
:10062000A11DB11D3FBFBA2FA92F982F8827BC014C
:10063000CD01620F711D811D911D42E0660F771F74
:10064000881F991F4A95D1F708958F929F92AF9274
:10065000BF92CF92DF92EF92FF924B015C01D0DF0D
:100660006B017C01CDDF6C197D098E099F09683E05
:10067000734081059105B0F321E0821A9108A10829
:10068000B10888EEC80E83E0D81EE11CF11C81146D
:100690009104A104B10431F7FF90EF90DF90CF9067
:1006A000BF90AF909F908F9008952FB7F89460916E
:1006B000AE027091AF028091B0029091B1022FBF53
:1006C00008950F931F93CF93DF93C82FD62F86E003
:1006D000C89FF0011124EB53FD4F11A2878D90A10B
:1006E00081309105E1F058F082309105D1F1039706
:1006F00009F43CC0DF91CF911F910F9108956623BB
:10070000C9F361E070E08C2F2BDECFDF60931D0317
:1007100070931E0380931F0390932003EBCFC5DFDC
:1007200000911D0310911E0320911F03309120039F
:10073000AB01BC01401B510B620B730B80912F036B
:1007400090913003B0E0A0E084179507A607B707A3
:1007500040F462E070E08C2FDF91CF911F910F91F8
:10076000FFCD63E070E0D111C5CFF5CF70E060E060
:10077000F2CFAF92BF92CF92DF92EF92FF920F93A0
:100780001F93CF93DF936B017A01EC01C755DD4FC7
:1007900028813CE0389F8001399F100D1124A090E2
:1007A000A802B12C27FF1FC0FB0111821082888193
:1007B0008F5F888388819801280F311D87FD3A95C6
:1007C000F6012A153B051CF488818C30BCF1808130
:1007D0009181049680349C4908F471C0F6018081AF
:1007E000918104966EC088819801280F311D87FD84
:1007F0003A952A153B05DCF68881A801480F511D62
:1008000087FD5A95FA01EE0FFF1FE40FF51FEC5C10
:10081000FC4F808186FFCBCF8881F801E80FF11D66
:1008200087FDFA95CF01EE0FFF1FE80FF91FEC5C73
:10083000FC4F808160E08F7374DEB9CF808191813D
:100840002881A801420F511D27FD5A959A01FA01EE
:10085000EE0FFF1FE20FF31FEC5CFC4F2181328192
:10086000820F931FF7019183808388819801280F5D
:10087000311D87FD3A95F901EE0FFF1FE20FF31FBF
:10088000EC5CFC4F808186FF21C08881080F111D20
:1008900087FD1A95F801EE0FFF1FE00FF11FEC5CCA
:1008A000FC4F808161E08F73DF91CF911F910F9199
:1008B000FF90EF90DF90CF90BF90AF9032CE80E46A
:1008C0009CE9F701918380838FEF8883DF91CF913B
:1008D0001F910F91FF90EF90DF90CF90BF90AF905E
:1008E0000895089590E080E008958F929F92AF92CE
:1008F000BF920F931F93CF93DF93CDB7DEB7A1972E
:100900000FB6F894DEBF0FBECDBF19A2423008F477
:100910004AE08E010F5D1F4F842E912CB12CA12C2B
:10092000A501940125D7E62FB901CA01EA303CF5AB
:10093000E05DD801EE938D01232B242B252B81F72D
:1009400090E080E0109761F0FD0101900020E9F750
:100950003197AF014A1B5B0BBD0187EC93E023DDB0
:10096000A1960FB6F894DEBF0FBECDBFDF91CF9139
:100970001F910F91BF90AF909F908F900895E95C69
:10098000D8CFFC0101900020E9F73197AF01481B57
:10099000590BBC0187EC93E006CDCF93DF93EC01BC
:1009A00060E08E81BEDD61E08E81BBDD60E08E8126
:1009B000B8DD8BE891E00197F1F7DF91CF910895D1
:1009C000CF92DF92EF92FF920F931F93CF93DF931B
:1009D0006C017C0187E0E80EF11CD0E0C0E0062F3E
:1009E00010E0B8010C2E02C0759567950A94E2F7E5
:1009F0006170F70181917F0194DD2196C430D105AA
:100A000081F7C601DF91CF911F910F91FF90EF9079
:100A1000DF90CF90C2CFCF92DF92EF92FF920F93F1
:100A20001F93CF93DF93EC01F62E642F8C8179DD39
:100A30008D818F3F11F060E074DD0F2D10E08F8508
:100A400084FF23C06E0187E0C80ED11CF12CE12C7D
:100A5000B8010E2C02C0759567950A94E2F7617093
:100A6000F60181916F015DDDFFEFEF1AFF0A88E06B
:100A7000E816F10469F7CE01DF91CF911F910F9134
:100A8000FF90EF90DF90CF9088CFB80184E075950C
:100A900067958A95E1F7CE0193DF6F2DCE01DF9147
:100AA000CF911F910F91FF90EF90DF90CF9088CF63
:100AB00040E0682F87EC93E0AECF81E0F9DF8BE375
:100AC0009FE10197F1F70895CF93DF93823029F4E6
:100AD0009091D60398609093D6038093DA03109296
:100AE000DB0380E48093DC0380E18093DD0380E519
:100AF0008093DE0361E08091CB0343DD8091CC03E2
:100B00008F3F11F061E03DDD61E08091CD0339DD83
:100B1000C7ECD3E09E01275C33408091D60384FD6F
:100B20000AC084E090E02196281739073CF461E080
:100B30008E8127DDEFCF88E090E0F5CF8BE39DE05D
:100B40000197F1F760E08091CB03EBDC60E08091EE
:100B5000CD03E7DC8091CC038F3F11F060E0E1DC56
:100B60008091D60384FD2CC063E087EC93E028DFFE
:100B7000CBE4D6E4CE010197F1F763E087EC93E094
:100B80001FDF2197F1F763E087EC93E019DF83E53E
:100B900092E00197F1F762E087EC93E011DF80913A
:100BA000D603806285DF84E08093D7038CE080DF0A
:100BB00084DF82E08093D80386E0DF91CF9178CF05
:100BC000806276DF8BE496E40197F1F78091D6039B
:100BD00080626EDF83E592E00197F1F78091D603A2
:100BE000806266DFDCCF9091DA03891710F08FEF17
:100BF000890FE82FF0E0E953FC4F8489806858CFD3
:100C0000CF93DF935ADF81E0EEDF84E392E0B9DE39
:100C100060E084E086DC61E085E083DC61E087E021
:100C200080DCC4EBD0E0CE011FDB6FE070E080E041
:100C300090E00BDD2197B8F760E087E072DC10925E
:100C4000C4021092BD021092BC02DF91CF910895B0
:100C500041E0E1DE81E090E008951F920F920FB62F
:100C60000F9211242F933F938F939F93AF93BF9332
:100C70008091AE029091AF02A091B002B091B1020A
:100C80003091AD0223E0230F2D3758F50196A11DB9
:100C9000B11D2093AD028093AE029093AF02A0935A
:100CA000B002B093B1028091B2029091B302A091D0
:100CB000B402B091B5020196A11DB11D8093B2029C
:100CC0009093B302A093B402B093B502BF91AF91D9
:100CD0009F918F913F912F910F900FBE0F901F907A
:100CE000189526E8230F0296A11DB11DD2CF1F92A1
:100CF0000F920FB60F9211240BB60F922F933F93C2
:100D00004F935F936F937F938F939F93AF93BF9313
:100D1000EF93FF9348E251E064E271E090E080E0FD
:100D200028DDFF91EF91BF91AF919F918F917F91BE
:100D30006F915F914F913F912F910F900BBE0F904C
:100D40000FBE0F901F9018951F920F920FB60F9223
:100D500011240BB60F922F933F934F935F936F9392
:100D60007F938F939F93AF93BF93EF93FF9348EA43
:100D700050E064EA70E083E090E0FBDCFF91EF91EB
:100D8000BF91AF919F918F917F916F915F914F91A3
:100D90003F912F910F900BBE0F900FBE0F901F90A1
:100DA00018951F920F920FB60F9211240BB60F9247
:100DB0002F933F934F935F936F937F938F939F9363
:100DC000AF93BF93EF93FF9348E950E064E970E07D
:100DD00082E090E0CEDCFF91EF91BF91AF919F91C7
:100DE0008F917F916F915F914F913F912F910F90D4
:100DF0000BBE0F900FBE0F901F9018951F920F9271
:100E00000FB60F9211240BB60F922F933F934F936F
:100E10005F936F937F938F939F93AF93BF93EF9362
:100E2000FF9348E850E064E870E081E090E0A1DCE6
:100E3000FF91EF91BF91AF919F918F917F916F91B2
:100E40005F914F913F912F910F900BBE0F900FBE6E
:100E50000F901F901895789484B5826084BD84B5F6
:100E6000816084BD85B5826085BD85B5816085BDA5
:100E700080916E00816080936E001092810080915D
:100E800081008260809381008091810081608093E5
:100E90008100809180008160809380008091B1000A
:100EA00084608093B1008091B00081608093B00035
:100EB0008091910082608093910080919100816087
:100EC0008093910080919000816080939000809148
:100ED000A10082608093A1008091A1008160809335
:100EE000A1008091A00081608093A00080912101E9
:100EF0008260809321018091210181608093210192
:100F00008091200181608093200180917A0084602B
:100F100080937A0080917A00826080937A00809139
:100F20007A00816080937A0080917A008068809353
:100F30007A001092C10082E0C7DDBFDD80E053DEA1
:100F40001092BD021092BC028091C403803308F05D
:100F500050C061E086E015DB8091C403282F30E0AB
:100F6000F901EE0FFF1FE20FF31FEC5CFC4F9081C5
:100F7000907C966090831092C5031092C6032CE07B
:100F8000622F27D4829FB001112430E020E0AB0112
:100F9000420F531FFA01EE0FFF1FE40FF51FEC5C29
:100FA000FC4F908196FD17C02F5F3F4F2C303105CD
:100FB00071F7813009F0F2C01092800082E08093D6
:100FC00081001092850010928400B19A80916F0088
:100FD000826080936F00E091C4038E2F90E0FC014B
:100FE000EE0FFF1FE80FF91FEC5CFC4F808180645F
:100FF000808361E086E0C5DA61E087E0C2DA61E023
:1010000084E0BFDA61E085E0BCDA90E080E02CD9D2
:1010100060E084E086DA61E085E083DA38EE232E52
:1010200033E0332E412C512C4CE3842E912CA12CF7
:10103000B12C8091C402882309F458C080911C020D
:1010400090911D026CE370E0D0D3EC012EDB6B01BC
:101050007C016091C0027091C1028091C2029091A6
:10106000C302A201910184D3CA01B901A50194016F
:101070007FD3C60FD71FC701B601A201910178D354
:10108000CA01B901A501940173D3C61BD70BD09334
:10109000BF02C093BE0211DD80E0A5DD8FE392E0C8
:1010A00070DC81E0A0DD84E492E06BDCC090BE02E5
:1010B000D090BF020D2C000CEE08FF084AE0C701DB
:1010C000B601F7FE0DC041E06DE287EC93E0A3DCD2
:1010D00066277727CB016C197D098E099F094AE0A5
:1010E00004DC64E670E080E090E0AFDA8091C40256
:1010F000882331F1DADA0091C0021091C102209107
:10110000C2023091C302AB01BC01401B510B620B08
:10111000730B20911C0230911D02E8EEF3E02E9F2C
:10112000C0012F9F900D3E9F900D1124092E000CA1
:10113000AA0BBB0B84179507A607B70708F460DD59
:1011400081E080933103B1DA0091210310912203F1
:101150002091230330912403AB01BC01401B510BB0
:10116000620B730B80912D0390912E03B0E0A0E0F1
:1011700084179507A607B70708F034C1C0E080912F
:101180002B03C817B8F5E0912703F0912803EC0F63
:10119000F11D62E08081F5D9CF5FF1CF823061F43B
:1011A00010929000809391001092950010929400FC
:1011B00088BB809371000FCF833069F41092A00038
:1011C00082E08093A1001092A5001092A40089BB38
:1011D0008093720000CF8111FECE1092200182E038
:1011E0008093210110922501109224018ABB8093E3
:1011F0007300F1CE712C80912C03781608F05CC03E
:10120000072D10E0E0912903F0912A03E00FF11F70
:1012100061E08081B6D9E0912903F0912A03E00FC3
:10122000F11F60E080817DD981E090E0A0E0B0E036
:10123000072C04C0880F991FAA1FBB1F0A94D2F75E
:101240006C017C01E094F094612C80912B03681672
:10125000F0F4C62DD0E0E0912703F0912803EC0FC5
:10126000FD1F808134D92496CC0FDD1FCB53DD4F79
:10127000892B41F4888199818C299D2999838883C0
:101280006394E3CF888199818E219F21F7CFE091EC
:101290002903F0912A03E00FF11F61E0808141D919
:1012A0008091290390912A03080F191F60E0F8012B
:1012B000808167D973949FCF05EC12E0E8018F8D90
:1012C00098A1892B31F41C8E8FEF9FEF9E8F8D8F0D
:1012D00019A22696E1E0F3E0EC17FD0781F7F12C67
:1012E00080912B03F81608F052C0E12CCF2CD12CA2
:1012F000CC0CDD1CC60183539D4F6C0120912C0347
:10130000E21608F042C0F601608171810E2C02C025
:10131000769567950A94E2F7F29E900111242E0DBE
:10132000311DE5ECF2E080E0458D568D2417350740
:1013300009F43AC18F5F36968A30B1F760FF23C057
:10134000E5ECF2E090E080E0448D411117C0E091BF
:101350002503F0912603E20FF31F408156E0589FCA
:10136000F001599FF00D1124EB53FD4F448F368F40
:10137000258F10A2178E61E0A4D905C0019636967C
:101380008A30910509F7E394B9CFF394A9CFF12CF2
:10139000F80181A18111F82E0A5F1F4F0C171D075C
:1013A000B9F783D9609321037093220380932303B9
:1013B00090932403FF20B1F08091E602882391F0FE
:1013C0008091E4029091E502019761F48091E1023D
:1013D00081110BC080E090E0892B09F42ACE0E9495
:1013E000000027CE10923103F5CF8A3251F18334B9
:1013F00009F47DC0853409F482C08F3209F4BBC082
:101400008D3241F3E091BC02F091BD028B3261F468
:10141000E854FD4FC8EBD2E0CF01885B92400497BF
:101420000CF0B0C01192F6CFE430F10524F4DF01E6
:10143000A854BD4F8C933196F093BD02E093BC024B
:10144000C9CF8091BC029091BD02049741F4E8E1BC
:10145000F2E0A8EBB2E091918D919817B1F081E0A4
:101460008093B7022ADB81E0BEDB8091B70288233C
:1014700091F082E592E085DA1092BD021092BC02F2
:101480001092B7021092B602A5CF8CE192E08E17AF
:101490009F0709F7E7CF83E692E073DA61E084E023
:1014A00040D860E085E03DD861E087E03AD8D0E000
:1014B000C0E0CE010E9434016FE070E080E090E077
:1014C000C4D82196C53BD105A1F760E087E029D8B3
:1014D000ECD86093C0027093C1028093C2029093D3
:1014E000C30281E08093C4028093B60273CFE5DA31
:1014F0001092BD021092BC021092B7026BCF809185
:10150000B602811107C0D9DA81E06DDB84E792E091
:1015100038DA60CFCAD868347E4E8105910598F7D5
:101520008091BC029091BD020497F9F48091B802B9
:10153000809318028091B902809319028091BA02B7
:1015400080931A028091BB0280931B02B6DA81E07D
:101550004ADB85E892E015DA1092C4021092B602D6
:101560001092BD021092BC0235CFA7DA81E03BDBBE
:1015700086E992E0CDCF8091C402882309F42ACF76
:101580003FDB28CF88EB92E0A2D022EC32E0199228
:101590002C173D07E1F71092BD021092BC02909308
:1015A0001D0280931C0216CF6170E6CECF9310927D
:1015B000C7021092CB021092CA021092CC028EE2A5
:1015C00092E09093C6028093C502E1EEF2E01082B1
:1015D000148213821582369683E0ED31F807B9F74D
:1015E00084E092E0909328038093270380E092E0C8
:1015F00090932A038093290384E080932B038093A4
:101600002C0388E092E090932603809325038AE0E0
:1016100090E090932E0380932D0384EF91E09093BC
:10162000300380932F0310923303109232031092F1
:10163000210310922203109223031092240310928C
:1016400031031092CA031092C90382E292E0909390
:10165000C8038093C7038DE08093CB03CFEFC09383
:10166000CC038CE08093CD0388E08093CE0389E0A7
:101670008093CF038AE08093D0038BE08093D103E3
:101680001092D2031092D3031092D4031092D50378
:101690001092D60381E018DA8091A8028033A0F47A
:1016A00091E0980F9093A8028093C40390E0FC010E
:1016B000EE0FFF1FE80FF91FEC5CFC4F88EB9BE07F
:1016C00092838183CF910895C093C403FBCFFC0123
:1016D00088279927E89421912032E9F3293010F0E6
:1016E0002E30C8F32B3239F02D3231F4689403C018
:1016F0000BD0820F911D219120532A30C8F31EF484
:10170000909581959F4F08957AE0979F902D879FA0
:10171000802D910D11240895052E97FB16F4009449
:101720000FD057FD05D024D007FC02D046F408C0E6
:1017300050954095309521953F4F4F4F5F4F0895FD
:1017400090958095709561957F4F8F4F9F4F08952D
:1017500031D0A59F900DB49F900DA49F800D911D39
:1017600011240895B7FFF4CFF3DF821B930B089584
:10177000A1E21A2EAA1BBB1BFD010DC0AA1FBB1F95
:10178000EE1FFF1FA217B307E407F50720F0A21B07
:10179000B30BE40BF50B661F771F881F991F1A9474
:1017A00069F760957095809590959B01AC01BD019E
:1017B000CF010895A29FB001B39FC001A39F700DF8
:1017C000811D1124911DB29F700D811D1124911D49
:1017D0000895991B79E004C0991F961708F0961B8D
:1017E000881F7A95C9F78095089597FB072E16F400
:1017F000009406D077FD08D013D007FC05D03EF446
:10180000909581959F4F0895709561957F4F0895AC
:10181000EE0FFF1F881F8BBF0790F691E02D1994E4
:10182000AA1BBB1B51E107C0AA1FBB1FA617B70706
:1018300010F0A61BB70B881F991F5A95A9F7809522
:0C1840009095BC01CD010895F894FFCFF5
:10184C0017191B1D1F2123253738392F3435362AFC
:10185C003132332D4330452B313233340500000007
:10186C0000002806D3017204710400000000FD0280
:10187C00BE028F02436C6F73696E672E2E2E004F63
:10188C0070656E00436C6F73696E672074696D656B
:10189C003A002057726F6E672070617373776F72A6
:1018AC00642000436F727265637420706173737788
:1018BC006F72640020706C65617365206F70656E6B
:1018CC00206974200020204E65772070617373208E
:1018DC007365742020005057206D757374206265F9
:0818EC002034206E756D000030
:00000001FF
