:10000000D2C00000FEC00000FCC00000FAC000002A
:10001000F8C00000F6C00000F4C00000F2C000000C
:10002000F0C00000EEC00000ECC00000EAC000001C
:10003000E8C00000E6C00000E4C00000E2C000002C
:10004000E0C00000DEC00000DCC00000DAC000003C
:10005000D8C00000D6C00000D4C0000003C2000019
:10006000AAC20000CEC00000CCC00000CAC0000080
:10007000C8C00000C6C00000C4C00000C2C000006C
:10008000C0C00000BEC00000BCC00000BAC000007C
:10009000B8C00000B6C00000B4C00000B2C000008C
:1000A000B0C00000AEC00000ACC00000AAC000009C
:1000B000A8C00000A6C00000A4C00000A2C00000AC
:1000C000A0C000009EC000009CC000009AC00000BC
:1000D00098C0000096C0000038C200000DC20000A9
:1000E00090C0000000002200250028002B002E00F8
:1000F0003100340002010000050108010B0100007D
:100100002100240027002A002D00300033000101C7
:100110000000040107010A01050505050705080897
:100120000808020202020A0A080804040404010181
:100130000101010101010303030303030303040796
:1001400007070C0C0C0C0C0C0C0C0202020206062D
:100150000606060606060B0B0B0B0B0B0B0B010220
:1001600010202008081020401020408002010201C9
:100170000804020101020408102040808040201081
:1001800008040201800402018040201008040201DA
:100190000804020101020408102040800102040842
:1001A00010204080430411241FBECFEFD1E2DEBFF8
:1001B000CDBF00E00CBF12E0A0E0B2E0E8E3F9E060
:1001C00000E00BBF02C007900D92A631B107D9F72E
:1001D00022E0A6E1B2E001C01D92A33CB207E1F724
:1001E00010E0C3EDD0E000E005C021970109802FA9
:1001F000FE0198D3C23DD10780E00807B1F703D2D2
:1002000099C3FECEAF92BF92CF92DF92EF92FF9250
:100210000F931F93CF93DF936C017B018B01040F2E
:10022000151FEB015E01AE18BF08C017D10759F0CA
:100230006991D601ED91FC910190F081E02DC6010C
:100240001995892B79F7C501DF91CF911F910F91F6
:10025000FF90EF90DF90CF90BF90AF900895FC019A
:10026000538D448D252F30E0842F90E0821B930B1B
:10027000541710F0CF96089501970895FC01918DC1
:10028000828D981761F0A28DAE0FBF2FB11D5D96C4
:100290008C91928D9F5F9F73928F90E008958FEF66
:1002A0009FEF0895FC01918D828D981731F0828D1A
:1002B000E80FF11D858D90E008958FEF9FEF089571
:1002C000FC01918D228D892F90E0805C9F4F821BD5
:1002D00091098F739927089587E192E0F1DF21E07A
:1002E000892B09F420E0822F0895FC01A48DA80F2A
:1002F000B92FB11DA35ABF4F2C91848D90E0019668
:100300008F739927848FA689B7892C93A089B18987
:100310008C91837080648C93938D848D981306C028
:100320000288F389E02D80818F7D80830895EF928C
:10033000FF920F931F93CF93DF93EC0181E0888F9F
:100340009B8D8C8D98131AC0E889F989808185FF6F
:1003500015C09FB7F894EE89FF896083E889F98911
:1003600080818370806480839FBF81E090E0DF9113
:10037000CF911F910F91FF90EF900895F62E0B8D66
:1003800010E00F5F1F4F0F731127E02E8C8D8E1121
:100390000BC00FB607FCFACFE889F989808185FF89
:1003A000F5CFCE01A2DFF2CFEB8DEC0FFD2FF11DCB
:1003B000E35AFF4FF0829FB7F8940B8FEA89FB89CD
:1003C00080818062D0CFCF93DF93EC01888D88232A
:1003D000B1F0AA89BB89E889F9898C9185FD03C0B0
:1003E000808186FD0CC00FB607FCF7CF8C9185FF8E
:1003F000F2CF808185FFEDCFCE0177DFEACFDF91AD
:10040000CF91089580E090E0892B49F080E090E062
:10041000892B29F00E94000081110E94000080E0D9
:1004200090E0892B49F080E090E0892B29F00E9430
:10043000000081110E94000080E090E0892B49F0CB
:1004400080E090E0892B29F00E94000081110E9439
:10045000000080E090E0892B21F03EDF81110C94B8
:10046000000008951F920F920FB60F9211242F9340
:100470003F938F939F93AF93BF938091BF029091CF
:10048000C002A091C102B091C2023091BE0223E02D
:10049000230F2D3758F50196A11DB11D2093BE02E3
:1004A0008093BF029093C002A093C102B093C20296
:1004B0008091BA029091BB02A091BC02B091BD02A2
:1004C0000196A11DB11D8093BA029093BB02A09327
:1004D000BC02B093BD02BF91AF919F918F913F91AC
:1004E0002F910F900FBE0F901F90189526E8230FA5
:1004F0000296A11DB11DD2CF1F920F920FB60F927F
:1005000011240BB60F922F933F934F935F936F93EA
:100510007F938F939F93AF93BF93EF93FF9387E165
:1005200092E0E3DEFF91EF91BF91AF919F918F91A8
:100530007F916F915F914F913F912F910F900BBEE3
:100540000F900FBE0F901F9018951F920F920FB62D
:100550000F9211240BB60F922F938F939F93EF93CB
:10056000FF93E0912702F09128028081E0912D0213
:10057000F0912E0282FD1DC09081809130028F5F2C
:100580008F7320913102821741F0E0913002F0E048
:10059000E95EFD4F958F80933002FF91EF919F911F
:1005A0008F912F910F900BBE0F900FBE0F901F9049
:1005B00018958081F2CF1F920F920FB60F921124DF
:1005C0000BB60F928F939F93EF93FF939EB5E0919D
:1005D0001602E23068F481E08E0F80931602F0E09C
:1005E000EC54FD4F9083823019F481E08093B9027E
:1005F000FF91EF919F918F910F900BBE0F900FBEC7
:100600000F901F901895CF93DF93CDB7DEB7A197CA
:100610000FB6F894DEBF0FBECDBF789484B582606C
:1006200084BD84B5816084BD85B5826085BD85B596
:10063000816085BD80916E00816080936E00109214
:10064000810080918100826080938100809181008F
:100650008160809381008091800081608093800020
:100660008091B10084608093B1008091B00081607E
:100670008093B0008091910082608093910080917E
:1006800091008160809391008091900081608093BF
:1006900090008091A10082608093A1008091A100D0
:1006A00081608093A1008091A00081608093A00070
:1006B00080912101826080932101809121018160DC
:1006C000809321018091200181608093200180919D
:1006D0007A00846080937A0080917A0082608093AF
:1006E0007A0080917A00816080937A0080917A000C
:1006F000806880937A001092C100E0912702F09107
:10070000280282E08083E0912302F091240210828B
:10071000E0912502F09126028FEC808310922F0247
:10072000E0912B02F0912C0286E08083E091290277
:10073000F0912A02808180618083E0912902F0910A
:100740002A02808188608083E0912902F0912A0248
:10075000808180688083E0912902F0912A02808163
:100760008F7D8083E1E9F1E02491EBE4F1E0849175
:100770008823C9F090E0880F991FFC01E250FF4FD9
:1007800045915491FC01EC51FF4FA591B4919FB755
:10079000F894FA013081822F809583238083EC9135
:1007A000E22BEC939FBF8CB580648CBD8CB58068C8
:1007B0008CBD8CB580688CBD3AE0C32ED12CE12C69
:1007C000F12C8091B902882309F446C01092B90235
:1007D0008091B50290E0982F88272091B402820F73
:1007E000911D4C01092E000CAA08BB0897FF36C0CA
:1007F0006DE287E192E09BDD22273327A9012819CA
:1008000039094A095B0919A28E010F5D1F4FCA0100
:10081000B901A701960164D0605DF80162938F0170
:10082000211531054105510591F70115110559F0C3
:1008300001900020E9F73197AF01401B510BB8013F
:1008400087E192E0DFDC42E050E062E172E087E1C4
:1008500092E0D8DC10921602D5DDB3CFA501940149
:1008600019A28E010F5D1F4FCA01B901A7019601A0
:1008700037D0605DF80162938F0121153105410584
:10088000510591F7D2CFE7E1F2E01382128288EEB0
:1008900093E0A0E0B0E084839583A683B78384E0EF
:1008A00092E09183808385E391E09587848784E358
:1008B00091E09787868780E391E0918B808B81E33D
:1008C00091E0938B828B82E391E0958B848B86E31E
:1008D00091E0978B868B118E128E138E148E089555
:1008E000A1E21A2EAA1BBB1BFD010DC0AA1FBB1F34
:1008F000EE1FFF1FA217B307E407F50720F0A21BA6
:10090000B30BE40BF50B661F771F881F991F1A9412
:1009100069F760957095809590959B01AC01BD013C
:10092000CF010895EE0FFF1F881F8BBF0790F69130
:08093000E02D1994F894FFCFAB
:1009380000000000970102012F01E30160013E0160
:0609480052010D0A00003F
:00000001FF
