:1000000003C1000031C100002FC100002DC100005C
:100010002BC1000029C1000027C1000025C100003C
:1000200023C1000021C100001FC100001DC100004C
:100030001BC1000019C1000017C1000015C100005C
:1000400013C10000A4C600000FC100000DC10000D4
:100050000BC1000009C1000007C10000C7C50000B6
:1000600003C1000001C10000FFC00000FDC000008E
:10007000FBC00000F9C00000F7C00000F5C00000A0
:1000800059C60000F1C00000EFC00000EDC0000044
:10009000EBC00000E9C00000E7C00000E5C00000C0
:1000A000E3C00000E1C0000018C60000DDC0000091
:1000B000DBC00000D9C00000D7C00000E1C50000CF
:1000C000D3C00000D1C00000CFC00000CDC00000F0
:1000D000CBC00000C9C0000053C5000028C5000007
:1000E000C3C0000000002100240027002A002D00CA
:1000F0003000330001010000040107010A01000083
:100100002200250028002B002E00310034000201BF
:100110000000050108010B0100002000230026005B
:1001200029002C002F00320000010000030106010D
:10013000090105050505070508080808020202026D
:100140000A0A080804040404010101010101010173
:100150000303030303030303040707070C0C0C0C3E
:100160000C0C0C0C02020202060606060606060627
:100170000B0B0B0B0B0B0B0B0102102020080810B4
:100180002040102040800201020108040201010207
:1001900004081020408080402010080402018004E0
:1001A000020180402010080402010804020101023B
:1001B0000408102040800102040810204080000044
:1001C0000A0B02090C0D0E080703040100000000D1
:1001D000000000000000000000000000000000001F
:1001E00000000000000000000000121110000000DC
:1001F00000000000000000000000000000000000FF
:1002000000000000F406110B11241FBECFEFD1E255
:10021000DEBFCDBF00E00CBF12E0A0E0B2E0EEEC2C
:10022000FBE100E00BBF02C007900D92AA35B107B9
:10023000D9F724E0AAE5B2E001C01D92A131B207CE
:10024000E1F711E0C3E0D1E000E006C02197010929
:10025000802FFE010E94BD0BC230D10780E008074D
:10026000A9F777D60C94D60DCBCE96E0899FD00116
:100270001124A256BC4F90967C936E935F9791E0A9
:1002800091969C939197E0910B04F0910C049091BE
:100290000A04992339F0309751F0811108C08091F8
:1002A000BA031994309719F05C968C91FACF08959F
:1002B000CF92DF92EF92FF920F931F9396E0899F68
:1002C000F0011124E256FC4F11A2278D30A12130FC
:1002D000310549F178F02230310509F44FC023305F
:1002E000310509F450C01F910F91FF90EF90DF90FE
:1002F000CF9008956623B9F361E070E0B6DF2FB7C1
:10030000F8948091630290916402A0916502B0918B
:1003100066022FBF8093F6039093F703A093F80330
:10032000B093F903E0CF9FB7F894C0906302D090E8
:100330006402E0906502F09066029FBF0091F603B0
:100340001091F7032091F8033091F903C01AD10AF4
:10035000E20AF30A009108041091090430E020E059
:100360000C151D052E053F0548F462E070E01F9155
:100370000F91FF90EF90DF90CF9077CF6111B3CFC7
:1003800063E070E0F4CF70E060E0F1CFAF92BF9235
:10039000CF92DF92EF92FF920F931F93CF93DF9351
:1003A0006C017B018B01040F151FEB015E01AE1880
:1003B000BF08C017D10759F06991D601ED91FC91A2
:1003C0000190F081E02DC6011995892B79F7C501BF
:1003D000DF91CF911F910F91FF90EF90DF90CF9021
:1003E000BF90AF900895FC01538D448D252F30E0D0
:1003F000842F90E0821B930B541710F0CF96089532
:1004000001970895FC01918D828D981761F0A28D5E
:10041000AE0FBF2FB11D5D968C91928D9F5F9F7324
:10042000928F90E008958FEF9FEF0895FC01918DDA
:10043000828D981731F0828DE80FF11D858D90E047
:1004400008958FEF9FEF0895FC01918D228D892FE4
:1004500090E0805C9F4F821B91098F7399270895CC
:1004600087E692E0F1DF21E0892B09F420E0822F7A
:100470000895FC01A48DA80FB92FB11DA35ABF4F39
:100480002C91848D90E001968F739927848FA68993
:10049000B7892C93A089B1898C91837080648C93E7
:1004A000938D848D981306C00288F389E02D808196
:1004B0008F7D80830895EF92FF920F931F93CF93C8
:1004C000DF93EC0181E0888F9B8D8C8D98131AC08F
:1004D000E889F989808185FF15C09FB7F894EE8976
:1004E000FF896083E889F9898081837080648083D3
:1004F0009FBF81E090E0DF91CF911F910F91FF901E
:10050000EF900895F62E0B8D10E00F5F1F4F0F73C5
:100510001127E02E8C8D8E110BC00FB607FCFACF81
:10052000E889F989808185FFF5CFCE01A2DFF2CF7E
:10053000EB8DEC0FFD2FF11DE35AFF4FF0829FB7BB
:10054000F8940B8FEA89FB8980818062D0CFCF93AA
:10055000DF93EC01888D8823B1F0AA89BB89E889F3
:10056000F9898C9185FD03C0808186FD0CC00FB692
:1005700007FCF7CF8C9185FFF2CF808185FFEDCF0F
:10058000CE0177DFEACFDF91CF91089580E090E050
:10059000892B49F080E090E0892B29F00E9400002F
:1005A00081110E94000080E090E0892B49F080E0FA
:1005B00090E0892B29F00E94000081110E94000028
:1005C00080E090E0892B49F080E090E0892B29F0D1
:1005D0000E94000081110E94000080E090E0892BC1
:1005E00021F03EDF81110C9400000895815082318A
:1005F00008F05AC0E82FF0E08827EE5FFC4F8F4FDD
:100600000C94BD0B2203260314031A031E03540388
:1006100029032F03330339033D03410347034B03EE
:1006200054034F0355035903809180008F778093C3
:1006300080000895809180008F7DF9CF80918000A7
:10064000877FF5CF84B58F7784BD089584B58F7D7E
:10065000FBCF8091B0008F778093B0000895809198
:10066000B0008F7DF9CF809190008F7780939000BC
:100670000895809190008F7DF9CF80919000877FC1
:10068000F5CF8091A0008F778093A000089580918E
:10069000A0008F7DF9CF8091A000877FF5CF80915A
:1006A00020018F77809320010895809120018F7D14
:1006B000F9CF80912001877FF5CFCF93DF93282F4B
:1006C00030E0F901E254FE4F8491F901E858FE4F01
:1006D000D491F901EE5CFE4FC491CC2399F08111C5
:1006E00085DFEC2FF0E0EE0FFF1FE85EFE4FA591D7
:1006F000B491EC91ED2381E090E009F480E0DF918A
:10070000CF91089580E090E0FACF862FD6CF1F9347
:10071000CF93DF93282F30E0F901E254FE4F84910C
:10072000F901E858FE4FD491F901EE5CFE4FC491F7
:10073000CC23A1F0162F811159DFEC2FF0E0EE0F42
:10074000FF1FE250FF4FA591B4918FB7F894EC9141
:10075000111108C0D095DE23DC938FBFDF91CF91BC
:100760001F910895DE2BF8CF862F642FD0CFCF9323
:10077000DF9390E0FC01E858FE4F24918E5C9E4F81
:10078000FC0184918823C9F090E0880F991FFC0137
:10079000EC51FF4FA591B491FC01E250FF4FC59180
:1007A000D49161110DC09FB7F8948C91209582234C
:1007B0008C938881282328839FBFDF91CF91089550
:1007C000623051F49FB7F8943C91822F8095832337
:1007D0008C93E8812E2BEFCF8FB7F894EC912E2BD2
:1007E0002C938FBFEACF862F642FC1CF3FB7F894E9
:1007F00080915F0290916002A0916102B0916202CB
:1008000026B5A89B05C02F3F19F00196A11DB11D6B
:100810003FBFBA2FA92F982F8827BC01CD01620FA7
:10082000711D811D911D42E0660F771F881F991F62
:100830004A95D1F70895AF92BF92CF92DF92EF928F
:10084000FF920F931F93CF93DF936B017A01EC011B
:10085000C65ADD4F28813CE0389F8001399F100D3A
:100860001124A0909403B12C27FF1FC0FB0111821B
:10087000108288818F5F888388819801280F311DBD
:1008800087FD3A95F6012A153B051CF488818C30CA
:10089000BCF180819181049680349C4908F471C038
:1008A000F6018081918104966EC088819801280F9D
:1008B000311D87FD3A952A153B05DCF68881A80194
:1008C000480F511D87FD5A95FA01EE0FFF1FE40FE7
:1008D000F51FEC5FFC4F808186FFCBCF8881F8014C
:1008E000E80FF11D87FDFA95CF01EE0FFF1FE80F0E
:1008F000F91FEC5FFC4F808160E08F7308DFB9CF98
:10090000808191812881A801420F511D27FD5A95B0
:100910009A01FA01EE0FFF1FE20FF31FEC5FFC4F8D
:1009200021813281820F931FF70191838083888117
:100930009801280F311D87FD3A95F901EE0FFF1F31
:10094000E20FF31FEC5FFC4F808186FF21C088819E
:10095000080F111D87FD1A95F801EE0FFF1FE00F1C
:10096000F11FEC5FFC4F808161E08F73DF91CF91CD
:100970001F910F91FF90EF90DF90CF90BF90AF90BD
:10098000C6CE80E49CE9F701918380838FEF888352
:10099000DF91CF911F910F91FF90EF90DF90CF905B
:1009A000BF90AF900895FC0101900020E9F73197C6
:1009B000AF01481B590BBC0187E692E0E7CC8F9250
:1009C0009F92AF92BF920F931F93CF93DF93CDB7B8
:1009D000DEB7A1970FB6F894DEBF0FBECDBF19A248
:1009E000423008F44AE08E010F5D1F4F842E912C97
:1009F000B12CA12CA501940183D6E62FB901CA011F
:100A0000EA30ECF4E05DD801EE938D01232B242B2A
:100A1000252B81F790E080E0109711F0CD01C3DF26
:100A2000A1960FB6F894DEBF0FBECDBFDF91CF9178
:100A30001F910F91BF90AF909F908F900895E95CA8
:100A4000E2CFCF92DF92EF92FF92CF93DF936B01D1
:100A50007C016DE287E692E02EDDEC0166277727C8
:100A6000CB016C197D098E099F094AE0A8DF8C0F24
:100A70009D1FDF91CF91FF90EF90DF90CF90089571
:100A8000CF93DF93EC0180919503909196030097AB
:100A900059F020919703309198032C173D0720F0CF
:100AA00081E0DF91CF910895BE016F5F7F4F92D7B4
:100AB000009789F09093960380939503D0939803C1
:100AC000C09397032091990330919A03232B41F708
:100AD000FC011082E5CF80E0E4CFCF93DF93EC01FF
:100AE000CFDF2091950330919603811116C0211517
:100AF000310511F0C901E5D61092960310929503C5
:100B000010929A03109299031092980310929703EF
:100B100085E993E0DF91CF910895D0939A03C09334
:100B2000990369E472E0C9010E94CF0DF1CF1F92D1
:100B30000F920FB60F9211240BB60F922F933F9383
:100B40004F935F936F937F938F939F93AF93BF93D5
:100B5000EF93FF9387E692E08CDCFF91EF91BF91DA
:100B6000AF919F918F917F916F915F914F913F9145
:100B70002F910F900BBE0F900FBE0F901F901895E6
:100B80001F920F920FB60F9211240BB60F922F9354
:100B90008F939F93EF93FF93E0917702F091780208
:100BA0008081E0917D02F0917E0282FD1DC09081E6
:100BB000809180028F5F8F7320918102821741F0B4
:100BC000E0918002F0E0E959FD4F958F809380021B
:100BD000FF91EF919F918F912F910F900BBE0F90EE
:100BE0000FBE0F901F9018958081F2CF1F920F9229
:100BF0000FB60F9211242F933F938F939F93AF9330
:100C0000BF938091630290916402A0916502B091BC
:100C1000660230915E0223E0230F2D3758F50196CE
:100C2000A11DB11D20935E02809363029093640224
:100C3000A0936502B093660280915F02909160027A
:100C4000A0916102B09162020196A11DB11D809335
:100C50005F0290936002A0936102B0936202BF9121
:100C6000AF919F918F913F912F910F900FBE0F9059
:100C70001F90189526E8230F0296A11DB11DD2CF13
:100C80001F920F920FB60F9211240BB60F922F9353
:100C90003F934F935F936F937F938F939F93AF9304
:100CA000BF93EF93FF9348E251E064E271E090E07C
:100CB00080E0C1DDFF91EF91BF91AF919F918F9146
:100CC0007F916F915F914F913F912F910F900BBE4C
:100CD0000F900FBE0F901F9018951F920F920FB696
:100CE0000F9211240BB60F922F933F934F935F9364
:100CF0006F937F938F939F93AF93BF93EF93FF93E4
:100D000048EA50E064EA70E083E090E094DDFF910F
:100D1000EF91BF91AF919F918F917F916F915F9173
:100D20004F913F912F910F900BBE0F900FBE0F90E0
:100D30001F9018951F920F920FB60F9211240BB6A9
:100D40000F922F933F934F935F936F937F938F9364
:100D50009F93AF93BF93EF93FF9348E950E064E90B
:100D600070E082E090E067DDFF91EF91BF91AF917D
:100D70009F918F917F916F915F914F913F912F91B3
:100D80000F900BBE0F900FBE0F901F9018951F92E3
:100D90000F920FB60F9211240BB60F922F933F9321
:100DA0004F935F936F937F938F939F93AF93BF9373
:100DB000EF93FF9348E850E064E870E081E090E052
:100DC0003ADDFF91EF91BF91AF919F918F917F910C
:100DD0006F915F914F913F912F910F900BBE0F90AC
:100DE0000FBE0F901F90189510926A021092690220
:100DF00088EE93E0A0E0B0E080936B0290936C02E9
:100E0000A0936D02B0936E0282E292E0909368022A
:100E10008093670285E391E090937402809373025C
:100E200084E391E0909376028093750280E391E0F1
:100E3000909378028093770281E391E090937A0215
:100E40008093790282E391E090937C0280937B020D
:100E500086E391E090937E0280937D02109280025F
:100E60001092810210928202109283021092A003CB
:100E70001092A4031092A3031092A50384E392E0BE
:100E800090939F0380939E03EAEBF3E01082148219
:100E900013821582369683E0E63FF807B9F784E0BF
:100EA00092E0909301048093000480E092E090939C
:100EB00003048093020484E0809304048093050477
:100EC00088E092E09093FF038093FE038AE090E035
:100ED000909307048093060484EF91E090930904B3
:100EE0008093080410920C0410920B041092FA03E1
:100EF0001092FB031092FC031092FD0310920A045F
:100F000080919403803308F591E0980F90939403B7
:100F100080939B0390E0FC01EE0FFF1FE80FF91F89
:100F2000EC5FFC4F88EB9BE09283818310929603E9
:100F300010929503109298031092970310929A03BF
:100F40001092990390E080E0C8CD8FEF80939B03CF
:100F5000EDCFCF93DF931F921F92CDB7DEB778947A
:100F600084B5826084BD84B5816084BD85B58260AE
:100F700085BD85B5816085BD80916E00816080935F
:100F80006E001092810080918100826080938100C8
:100F900080918100816080938100809180008160D8
:100FA000809380008091B10084608093B100809133
:100FB000B00081608093B000809191008260809346
:100FC00091008091910081608093910080919000C8
:100FD0008160809390008091A10082608093A10045
:100FE0008091A10081608093A1008091A000816028
:100FF0008093A000809121018260809321018091E3
:101000002101816080932101809120018160809382
:10101000200180917A00846080937A0080917A0028
:10102000826080937A0080917A00816080937A0058
:1010300080917A00806880937A001092C100E091DC
:101040007702F091780282E08083E0917302F09160
:1010500074021082E0917502F09176028FEC808329
:1010600010927F02E0917B02F0917C0286E0808307
:10107000E0917902F0917A02808180618083E09131
:101080007902F0917A02808188608083E091790210
:10109000F0917A02808180688083E0917902F091FA
:1010A0007A0280818F7D808380919B03803308F05A
:1010B00050C061E08DE05BDB80919B03282F30E026
:1010C000F901EE0FFF1FE20FF31FEC5FFC4F908161
:1010D000907C9D60908310929C0310929D032CE065
:1010E000622F3FD3829FB001112430E020E0AB019A
:1010F000420F531FFA01EE0FFF1FE40FF51FEC5FC5
:10110000FC4F908196FD17C02F5F3F4F2C3031056B
:1011100071F7813009F05AC01092800082E080930C
:1011200081001092850010928400B19A80916F0026
:10113000826080936F00E0919B038E2F90E0FC0112
:10114000EE0FFF1FE80FF91FEC5FFC4F80818064FA
:10115000808336E0232E44EB442E512C612C712CDD
:1011600081E080930A048FB7F89440916302509114
:10117000640260916502709166028FBF8091FA03EC
:101180009091FB03A091FC03B091FD03481B590B08
:101190006A0B7B0B8091060490910704B0E0A0E0FD
:1011A00084179507A607B70708F03FC110E08091A4
:1011B00004041817B8F5E0910004F0910104E10F60
:1011C000F11D62E08081D3DA1F5FF1CF823061F4DC
:1011D00010929000809391001092950010929400CC
:1011E00088BB80937100A7CF833069F41092A00070
:1011F00082E08093A1001092A5001092A40089BB08
:101200008093720098CF811196CF1092200182E0D6
:101210008093210110922501109224018ABB8093B2
:10122000730089CFF12C80910504F81608F05EC098
:10123000CF2CD12CE0910204F0910304EC0DFD1DA4
:1012400061E0808194DAE0910204F0910304EC0DF6
:10125000FD1D60E080815BDA81E090E0A0E0B0E01D
:101260000F2C04C0880F991FAA1FBB1F0A94D2F726
:101270004C015C01A094B094312C80910404381688
:1012800000F5032D10E0E0910004F0910104E00F5F
:10129000F11F808112DA0C5F1F4F000F111FF80140
:1012A000E256FC4F892B41F480819181882999294C
:1012B000918380833394E1CF808191818A219B2126
:1012C000F7CFE0910204F0910304EC0DFD1D61E005
:1012D00080811DDA8091020490910304C80ED91E0A
:1012E00060E0F601808143DAF3949DCF1EE9C12EC0
:1012F00013E0D12E8601F801878D90A1892B31F45E
:10130000148E4FEF5FEF568F458F11A20A5F1F4F6C
:101310008AED93E08017910771F7F12C8091040416
:10132000F81608F052C0B12C8F2C912C880C991C07
:10133000F401EA55FC4F4F0120910504B21608F064
:1013400042C0F401608171810B2C02C076956795D3
:101350000A94E2F7F29E900111242B0D311DEEE963
:10136000F3E080E0458D568D2417350709F457C109
:101370008F5F36968A30B1F760FF23C0EEE9F3E065
:1013800090E080E0448D411117C0E091FE03F091A0
:10139000FF03E20FF31F4081289EF001299EF00D0C
:1013A0001124E256FC4F448F368F258F10A2178EE2
:1013B00061E00E94580105C0019636968A30910579
:1013C00009F7B394B9CFF394A9CF80E0F60191A1C6
:1013D0009111892FF6E0CF0ED11CC016D106B1F7BE
:1013E0009FB7F89440916302509164026091650246
:1013F000709166029FBF4093FA035093FB03609382
:10140000FC037093FD03882381F08091BF03882340
:1014100061F08091BD039091BE03019731F48091FA
:10142000BA03811105C0B2D89BCE10920A04FBCF3B
:101430008D3309F0D2C0809195039091960300E01E
:1014400010E09801009711F0F4D08B01B801012E43
:10145000000C880B990B053B110508F08AC097FF1B
:1014600085C0EFDA8AE392E09EDA87E492E09BDAC5
:101470008091950390919603009709F0ACC060E0CD
:1014800070E0CB014B01603222E07207C4F520917D
:101490009C03E8E88E2E912C821A910827FD9394E4
:1014A000880C991C880C991C092C000CAA08BB08F4
:1014B00020919D0348E552E0421B510927FD5395B9
:1014C0009A01220F331F220F331F032E000C440BEF
:1014D000550B281939094A095B09DB01653B710580
:1014E00014F0A4EBB0E0B7FF02C0B0E0A0E002D17E
:1014F000A3019201D9D0820E931EA41EB51E209185
:101500009B03203308F03EC080919C03E8E8F0E0A4
:10151000E81BF10987FDF395CF01880F991F880F0C
:10152000991F881699068CF080919D0348E552E03A
:10153000481B510987FD5395CA01880F991F880FD1
:10154000991F881699060CF4C4010297880F991FF9
:101550004FB7F89430E0F901EE0FFF1FE20FF31FD1
:10156000EC5FFC4F928381834FBF0CC04AE027DAC7
:1015700079CF97FF2DC065DA8AE492E014DA87E428
:1015800092E011DA33D94B015C0184E1C82ED12CF1
:10159000E12CF12C2BD9681979098A099B09683E3D
:1015A000734081059105B0F351E0C51AD108E108F7
:1015B000F10888EE880E83E0981EA11CB11CC114AE
:1015C000D104E104F10431F790E080E086DA2BCF1A
:1015D0004AE0F5D9D1CF2DD055CF8334A9F38983F3
:1015E0001A820091990310919A030F5F1F4FC8014F
:1015F00047DA882309F417CF209195033091960399
:101600008091990390919A03BE016F5F7F4F820F83
:10161000931FC5D210939A030093990304CF61706E
:10162000C8CE8091950390919603009709F049C127
:1016300008951F93FC0199278827BC01E894119114
:101640001032E9F3193010F01E30C8F31B3249F0A4
:101650001D3241F4689405C012D0610F711D811DC7
:10166000911D119110531A30B8F33EF49095809566
:10167000709561957F4F8F4F9F4F1F910895592F00
:10168000482F372F262F660F771F881F991F660F49
:10169000771F881F991F620F731F841F951F660F86
:1016A000771F881F991F0895052E97FB16F4009445
:1016B0000FD057FD05D024D007FC02D046F408C057
:1016C00050954095309521953F4F4F4F5F4F08956E
:1016D00090958095709561957F4F8F4F9F4F08959E
:1016E00031D0A59F900DB49F900DA49F800D911DAA
:1016F00011240895B7FFF4CFF3DF821B930B0895F5
:10170000A1E21A2EAA1BBB1BFD010DC0AA1FBB1F05
:10171000EE1FFF1FA217B307E407F50720F0A21B77
:10172000B30BE40BF50B661F771F881F991F1A94E4
:1017300069F760957095809590959B01AC01BD010E
:10174000CF010895A29FB001B39FC001A39F700D68
:10175000811D1124911DB29F700D811D1124911DB9
:101760000895991B79E004C0991F961708F0961BFD
:10177000881F7A95C9F780950895EE0FFF1F881F7F
:101780008BBF0790F691E02D19940F931F93CF9381
:10179000DF938230910510F482E090E0E0910F0435
:1017A000F091100430E020E0B0E0A0E0309799F430
:1017B0002115310509F44AC0281B390B24303105A5
:1017C000D8F58A819B816115710589F1FB019383AD
:1017D0008283FE0111C0408151810281138148172B
:1017E0005907E0F04817590799F4109761F01296DD
:1017F0000C93129713961C933296CF01DF91CF91E1
:101800001F910F91089500930F0410931004F4CFCB
:101810002115310551F04217530738F0A901DB01BA
:101820009A01BD01DF01F801C1CFEF01F9CF90931B
:10183000100480930F04CDCFFE01E20FF31F8193BC
:1018400091932250310939832883D7CF20910D04F9
:1018500030910E04232B41F420911A0230911B0287
:1018600030930E0420930D04209118023091190238
:101870002115310541F42DB73EB740911C0250911E
:101880001D02241B350BE0910D04F0910E04E217AC
:10189000F307A0F42E1B3F0B2817390778F0AC0193
:1018A0004E5F5F4F2417350748F04E0F5F1F509370
:1018B0000E0440930D04819391939FCFF0E0E0E0FC
:1018C0009CCFCF93DF930097E9F0FC01329713820E
:1018D0001282A0910F04B0911004ED0130E020E0DD
:1018E0001097A1F420813181820F931F20910D0464
:1018F00030910E042817390709F061C0F0930E04E7
:10190000E0930D04DF91CF910895EA01CE17DF0730
:10191000E8F54A815B819E0141155105B1F7E90166
:10192000FB83EA8349915991C40FD51FEC17FD073A
:1019300061F4808191810296840F951FE90199835A
:101940008883828193819B838A83F0E0E0E0129612
:101950008D919C9113970097B9F52D913C9111971A
:10196000CD010296820F931F20910D0430910E0439
:101970002817390739F6309751F510921004109254
:101980000F04B0930E04A0930D04BCCFD383C28385
:1019900040815181840F951FC817D90761F44E5FAC
:1019A0005F4F88819981480F591F518340838A81F5
:1019B0009B81938382832115310509F0B0CFF09389
:1019C0001004E0930F049ECFFD01DC01C0CF138211
:1019D0001282D7CF4F925F926F927F928F929F9297
:1019E000AF92BF92CF92DF92EF92FF920F931F932D
:1019F000CF93DF938C01009791F4CB01DF91CF91CE
:101A00001F910F91FF90EF90DF90CF90BF90AF901C
:101A10009F908F907F906F905F904F90B6CEFC011B
:101A2000E60FF71F9C0122503109E217F30708F473
:101A3000AAC0D901CD91DC911197C617D70718F12B
:101A4000C530D10570F0CE0104978617970748F08E
:101A5000C61BD70B2297C193D1936D937C93CF0173
:101A600030DFC801DF91CF911F910F91FF90EF9070
:101A7000DF90CF90BF90AF909F908F907F906F90AE
:101A80005F904F9008955B01AC1ABD0A4C018C0E1B
:101A90009D1EA0910F04B0911004512C412CF12CEB
:101AA000E12C109731F580910D0490910E0488156A
:101AB000990509F05CC04616570608F058C0809199
:101AC000180290911902009741F48DB79EB740918A
:101AD0001C0250911D02841B950BE817F90708F0B2
:101AE00052C0F0930E04E0930D04F90171836083FA
:101AF000B8CF8D919C91119712966C901297139676
:101B00007C901397A815B90559F56C0142E0C40EF5
:101B1000D11CCA14DB0420F1AC014A195B09DA01BB
:101B20001296159780F06282738251834083D901A7
:101B30006D937C93E114F10471F0D7011396FC933B
:101B4000EE9312978ECF22968C0F9D1FF9019183F1
:101B50008083F301EFCFF0931004E0930F0481CF63
:101B60004816590608F42C017D01D3019ACFCB0108
:101B70000CDE7C01009739F0AE01B80107D0C80136
:101B8000A0DE87016ECF10E000E06BCFFB01DC012F
:101B900002C001900D9241505040D8F70895FB01CA
:101BA000DC0101900D920020E1F7089511E0C3E0FF
:101BB000D1E000E005C0802FFE01DFDD2196011D90
:0E1BC000C430D10780E00807B1F7F894FFCFDA
:101BCE001F21232517191B1D3738392F3435362A77
:101BDE003132332D43303D2B0000110480000000C4
:101BEE0000005B02C601F301A702240202021602E4
:101BFE0000000000F303B4038503203A56616C69BC
:101C0E00642064617461000D0A00203A496E7661A9
:0A1C1E006C696420646174610000C9
:00000001FF
