:1000000002C100002EC100002CC100002AC1000066
:1000100028C1000026C1000024C1000022C1000048
:1000200020C100001EC100001CC100001AC1000058
:1000300018C1000016C1000014C1000012C1000068
:1000400010C100000EC100000CC100000AC1000078
:1000500008C1000006C1000004C1000022C4000065
:1000600000C10000FEC00000FCC00000FAC000009B
:10007000F8C00000F6C00000F4C00000F2C00000AC
:10008000F0C00000EEC00000ECC00000EAC00000BC
:10009000E8C00000E6C00000E4C00000E2C00000CC
:1000A000E0C00000DEC00000DCC00000DAC00000DC
:1000B000D8C00000D6C00000D4C00000D2C00000EC
:1000C000D0C00000CEC00000CCC00000CAC00000FC
:1000D000C8C00000C6C00000AEC3000083C300005B
:1000E000C0C0000000002100240027002A002D00CD
:1000F0003000330001010000040107010A01000083
:100100002200250028002B002E00310034000201BF
:100110000000050108010B0100002000230026005B
:1001200029002C002F00320000010000030106010D
:10013000090105050505070508080808020202026D
:100140000A0A080804040404010101010101010173
:100150000303030303030303040707070C0C0C0C3E
:100160000C0C0C0C02020202060606060606060627
:100170000B0B0B0B0B0B0B0B0102102020080810B4
:100180002040102040800201020108040201010207
:1001900004081020408080402010080402018004E0
:1001A000020180402010080402010804020101023B
:1001B0000408102040800102040810204080000044
:1001C0000A0B02090C0D0E080703040100000000D1
:1001D000000000000000000000000000000000001F
:1001E00000000000000000000000121110000000DC
:1001F00000000000000000000000000000000000FF
:10020000000000009B0411241FBECFEFD1E2DEBF2F
:10021000CDBF00E00CBF12E0A0E0B2E0E2EFFEE0F4
:1002200000E00BBF02C007900D92A833B107D9F7C9
:1002300023E0A8E3B2E001C01D92AD34B207E1F7BC
:1002400011E0C3E0D1E000E005C021970109802F53
:10025000FE0145D6C230D10780E00807B1F7F8D3D8
:1002600046C6CECE96E0899FD0011124A252BD4F42
:1002700090967C936E935F9791E091969C93919763
:10028000E0914B03F0914C0390914A03992339F08C
:10029000309751F0811108C08091FA02199430977B
:1002A00019F05C968C91FACF0895CF92DF92EF927D
:1002B000FF920F931F9396E0899FF0011124E25261
:1002C000FD4F11A2278D30A12130310549F178F081
:1002D0002230310509F44FC02330310509F450C0F4
:1002E0001F910F91FF90EF90DF90CF9008956623BC
:1002F000B9F361E070E0B6DF2FB7F89480913D026A
:1003000090913E02A0913F02B09140022FBF809396
:10031000360390933703A0933803B0933903E0CFAB
:100320009FB7F894C0903D02D0903E02E0903F020B
:10033000F09040029FBF0091360310913703209147
:10034000380330913903C01AD10AE20AF30A009146
:1003500048031091490330E020E00C151D052E05DF
:100360003F0548F462E070E01F910F91FF90EF901D
:10037000DF90CF9077CF6111B3CF63E070E0F4CF1F
:1003800070E060E0F1CFAF92BF92CF92DF92EF9238
:10039000FF920F931F93CF93DF936C017B018B012F
:1003A000040F151FEB015E01AE18BF08C017D1077F
:1003B00059F06991D601ED91FC910190F081E02D09
:1003C000C6011995892B79F7C501DF91CF911F914E
:1003D0000F91FF90EF90DF90CF90BF90AF90089576
:1003E000FC01538D448D252F30E0842F90E0821B3B
:1003F000930B541710F0CF96089501970895FC01C0
:10040000918D828D981761F0A28DAE0FBF2FB11D17
:100410005D968C91928D9F5F9F73928F90E008956F
:100420008FEF9FEF0895FC01918D828D981731F029
:10043000828DE80FF11D858D90E008958FEF9FEF7D
:100440000895FC01918D228D892F90E0805C9F4F53
:10045000821B91098F739927089581E492E0F1DF5F
:1004600021E0892B09F420E0822F0895FC01A48D5E
:10047000A80FB92FB11DA35ABF4F2C91848D90E0C6
:1004800001968F739927848FA689B7892C93A089A9
:10049000B1898C91837080648C93938D848D981333
:1004A00006C00288F389E02D80818F7D80830895C6
:1004B000EF92FF920F931F93CF93DF93EC0181E0B4
:1004C000888F9B8D8C8D98131AC0E889F98980815B
:1004D00085FF15C09FB7F894EE89FF896083E8898E
:1004E000F98980818370806480839FBF81E090E080
:1004F000DF91CF911F910F91FF90EF900895F62E0D
:100500000B8D10E00F5F1F4F0F731127E02E8C8DA6
:100510008E110BC00FB607FCFACFE889F9898081EC
:1005200085FFF5CFCE01A2DFF2CFEB8DEC0FFD2FD3
:10053000F11DE35AFF4FF0829FB7F8940B8FEA89C1
:10054000FB8980818062D0CFCF93DF93EC01888DCF
:100550008823B1F0AA89BB89E889F9898C9185FD46
:1005600003C0808186FD0CC00FB607FCF7CF8C91CD
:1005700085FFF2CF808185FFEDCFCE0177DFEACF17
:10058000DF91CF91089580E090E0892B49F080E0E1
:1005900090E0892B29F00E94000081110E94000048
:1005A00080E090E0892B49F080E090E0892B29F0F1
:1005B0000E94000081110E94000080E090E0892BE1
:1005C00049F080E090E0892B29F00E940000811121
:1005D0000E94000080E090E0892B21F03EDF811135
:1005E0000C94000008958150823108F059C0E82F22
:1005F000F0E08827E250FD4F8F4F71C41E032203A5
:10060000100316031A03500325032B032F0335038E
:1006100039033D034303470350034B035103550381
:10062000809180008F778093800008958091800072
:100630008F7DF9CF80918000877FF5CF84B58F774C
:1006400084BD089584B58F7DFBCF8091B0008F77F6
:100650008093B00008958091B0008F7DF9CF809194
:1006600090008F77809390000895809190008F7D07
:10067000F9CF80919000877FF5CF8091A0008F7790
:100680008093A00008958091A0008F7DF9CF809184
:10069000A000877FF5CF809120018F778093200184
:1006A0000895809120018F7DF9CF80912001877F6F
:1006B000F5CFCF93DF93282F30E0F901E254FE4FBE
:1006C0008491F901E858FE4FD491F901EE5CFE4F98
:1006D000C491CC2399F0811186DFEC2FF0E0EE0F6E
:1006E000FF1FE85EFE4FA591B491EC91ED2381E0F0
:1006F00090E009F480E0DF91CF91089580E090E0F0
:10070000FACF862FD6CF1F93CF93DF93282F30E0D9
:10071000F901E254FE4F8491F901E858FE4FD4915B
:10072000F901EE5CFE4FC491CC23A1F0162F81118C
:100730005ADFEC2FF0E0EE0FFF1FE250FF4FA591C4
:10074000B4918FB7F894EC91111108C0D095DE23C5
:10075000DC938FBFDF91CF911F910895DE2BF8CFEF
:10076000862F642FD0CFCF93DF9390E0FC01E85821
:10077000FE4F24918E5C9E4FFC0184918823C9F02A
:1007800090E0880F991FFC01EC51FF4FA591B491A7
:10079000FC01E250FF4FC591D49161110DC09FB78C
:1007A000F8948C91209582238C9388812823288328
:1007B0009FBFDF91CF910895623051F49FB7F894B5
:1007C0003C91822F809583238C93E8812E2BEFCF51
:1007D0008FB7F894EC912E2B2C938FBFEACF862FF6
:1007E000642FC1CF1F920F920FB60F9211240BB638
:1007F0000F922F933F934F935F936F937F938F93BA
:100800009F93AF93BF93EF93FF9381E492E02EDE2B
:10081000FF91EF91BF91AF919F918F917F916F91D8
:100820005F914F913F912F910F900BBE0F900FBE94
:100830000F901F9018951F920F920FB60F921124D0
:100840000BB60F922F938F939F93EF93FF93E091AB
:100850005102F09152028081E0915702F0915802CA
:1008600082FD1DC0908180915A028F5F8F7320910D
:100870005B02821741F0E0915A02F0E0EF5BFD4F1E
:10088000958F80935A02FF91EF919F918F912F91B5
:100890000F900BBE0F900FBE0F901F901895808188
:1008A000F2CF1F920F920FB60F9211242F933F9306
:1008B0008F939F93AF93BF9380913D0290913E029F
:1008C000A0913F02B091400230913C0223E0230FFF
:1008D0002D3758F50196A11DB11D20933C02809340
:1008E0003D0290933E02A0933F02B093400280915C
:1008F000380290913902A0913A02B0913B020196E0
:10090000A11DB11D8093380290933902A0933A0241
:10091000B0933B02BF91AF919F918F913F912F91E7
:100920000F900FBE0F901F90189526E8230F029688
:10093000A11DB11DD2CF109244021092430288EE45
:1009400093E0A0E0B0E08093450290934602A0932C
:100950004702B09348028CE192E090934202809368
:10096000410285E391E090934E0280934D0284E32F
:1009700091E09093500280934F0280E391E0909336
:1009800052028093510281E391E09093540280934C
:10099000530282E391E0909356028093550286E3DE
:1009A00091E0909358028093570210925A0210924D
:1009B0005B0210925C0210925D021092E0021092B3
:1009C000E4021092E3021092E5028EE292E090932C
:1009D000DF028093DE02EAEFF2E0108214821382DB
:1009E0001582369683E0E633F807B9F784E092E0A3
:1009F000909341038093400380E092E090934303FF
:100A00008093420384E0809344038093450388E00D
:100A100092E090933F0380933E038AE090E09093AE
:100A200047038093460384EF91E0909349038093BA
:100A3000480310924C0310924B0310923A03109209
:100A40003B0310923C0310923D0310924A03089519
:100A5000789484B5826084BD84B5816084BD85B599
:100A6000826085BD85B5816085BD80916E008160A5
:100A700080936E001092810080918100826080934B
:100A8000810080918100816080938100809180004D
:100A90008160809380008091B10084608093B10078
:100AA0008091B00081608093B0008091910082605D
:100AB000809391008091910081608093910080915A
:100AC00090008160809390008091A100826080936B
:100AD000A1008091A10081608093A1008091A0007D
:100AE00081608093A0008091210182608093210128
:100AF000809121018160809321018091200181609A
:100B00008093200180917A00846080937A008091A4
:100B10007A00826080937A0080917A00816080936D
:100B20007A0080917A00806880937A001092C100E8
:100B3000E0915102F091520282E08083E0914D02F7
:100B4000F0914E021082E0914F02F09150028FEC32
:100B5000808310925902E0915502F091560286E08E
:100B60008083E0915302F091540280818061808300
:100B7000E0915302F0915402808188608083E0917B
:100B80005302F0915402808180688083E091530287
:100B9000F091540280818F7D808361E086E3E3DD04
:100BA00061E087E3E0DD61E088E3DDDD61E089E3CA
:100BB000DADD61E08DE3D7DD61E08CE3D4DD61E077
:100BC0008BE3D1DD61E08AE3CEDD61E08EE3CBDD56
:100BD00088248394412C512C32014394CC24CA9410
:100BE000DC2C56E0952E80924A038FB7F894409102
:100BF0003D0250913E0260913F02709140028FBFD2
:100C000080913A0390913B03A0913C03B0913D0346
:100C1000481B590B6A0B7B0B80914603909147034D
:100C2000B0E0A0E084179507A607B70708F004C155
:100C3000C0E080914403C81758F4E0914003F0915C
:100C40004103EC0FF11D62E080818DDDCF5FF1CFBC
:100C5000312C80914503381608F05AC0032D10E05E
:100C6000E0914203F0914303E00FF11F61E08081C6
:100C70007ADDE0914203F0914303E00FF11F60E061
:100C8000808141DDD301C201032C04C0880F991F6C
:100C9000AA1FBB1F0A94D2F75C017C01E094F09478
:100CA000212C809144032816F0F4C22DD0E0E0916D
:100CB0004003F0914103EC0FFD1F8081FADC249684
:100CC000CC0FDD1FC252DD4F892B41F48881998101
:100CD0008A299B29998388832394E3CF88819981EA
:100CE0008E219F21F7CFE0914203F0914303E00F63
:100CF000F11F61E0808107DD809142039091430301
:100D0000080F191F60E0F80180812DDD3394A1CF19
:100D10000EED12E0F801878D90A1892B21F4148E3D
:100D2000D68EC58E11A2369683E0EA31F80799F780
:100D3000F12C80914403F81608F04EC0E12CCF2D21
:100D4000D0E0CC0FDD1FCA51DD4F20914503E216E4
:100D500008F040C0688179810E2C02C076956795B5
:100D60000A94E2F7F29E900111242E0D311DEEED52
:100D7000F2E080E0458D568D2417350709F4ADC0AB
:100D80008F5F36968A30B1F760FF22C0EEEDF2E059
:100D900090E080E0448D411116C0E0913E03F09157
:100DA0003F03E20FF31F4081989EF001999EF00DE2
:100DB0001124E252FD4F448F368F258F10A2178EDB
:100DC00061E073DA05C0019636968A30910511F715
:100DD000E394BBCFF394ADCF80E0F80191A19111E2
:100DE000892F0A5F1F4FF3E00A311F07B1F79FB742
:100DF000F89440913D0250913E0260913F02709103
:100E000040029FBF40933A0350933B0360933C03DF
:100E100070933D03882381F08091FF02882361F065
:100E20008091FD029091FE02019731F4C091FA0287
:100E3000C11105C0A8DBD7CE10924A03FBCF6C2F9F
:100E400081E492E035DB42E050E064E372E081E46B
:100E500092E099DA61E086E3C13309F43CC061E0D5
:100E600087E3C23309F437C061E088E3C33399F103
:100E700061E089E3C43379F161E08DE3C53359F171
:100E800061E08CE3C63339F161E08BE3C73319F1DC
:100E900061E08AE3C833F9F061E0C933D9F0C033C7
:100EA00049F660E086E32FDC60E087E32CDC60E05D
:100EB00088E329DC60E089E326DC60E08DE323DC65
:100EC00060E08CE320DC60E08BE31DDC60E08AE323
:100ED0001ADC60E08EE317DCADCF617072CFEE0FED
:100EE000FF1F881F8BBF0790F691E02D1994F8948F
:020EF000FFCF32
:100EF2001F21232517191B1D373839413435364236
:100F0200313233432A302344000000005802C30127
:100F1200F001A4022102FF01130200000000EF030E
:080F2200B00381030D0A000079
:00000001FF
