:10000000F5C0000021C100001FC100001DC100009B
:100010001BC1000019C1000017C1000015C100007C
:1000200013C1000011C100000FC100000DC100008C
:100030000BC1000009C1000007C1000005C100009C
:1000400003C1000001C10000FFC00000FDC00000AE
:10005000FBC00000F9C00000F7C0000066C300004C
:10006000F3C00000F1C00000EFC00000EDC00000D0
:10007000EBC00000E9C00000E7C00000E5C00000E0
:10008000E3C00000E1C00000DFC00000DDC00000F0
:10009000DBC00000D9C00000D7C00000D5C0000000
:1000A000D3C00000D1C00000CFC00000CDC0000010
:1000B000CBC00000C9C00000C7C00000C5C0000020
:1000C000C3C00000C1C00000BFC00000BDC0000030
:1000D000BBC00000B9C00000B7C00000B5C0000040
:1000E000B3C0000000000A0B02090C0D0E08070344
:1000F00004010000000000000000000000000000FB
:1001000000000000000000000000000000000000EF
:1001100012111000000000000000000000000000AC
:100120000000000000000000000000002200250088
:1001300028002B002E0031003400020100000501D0
:1001400008010B0100002100240027002A002D00D7
:100150003000330001010000040107010A01050518
:100160000505070508080808020202020A0A08082D
:10017000040404040101010101010101030303035B
:1001800003030303040707070C0C0C0C0C0C0C0CEA
:100190000202020206060606060606060B0B0B0BFB
:1001A0000B0B0B0B01021020200808102040102020
:1001B000408002010201080402010102040810202B
:1001C0004080804020100804020180040201804029
:1001D0002010080402010804020101020408102092
:1001E00040800102040810204080F50411241FBE45
:1001F000CFEFD1E2DEBFCDBF00E00CBF12E0A0E048
:10020000B2E0E8E3FAE000E00BBF02C007900D9215
:10021000AA31B107D9F722E0AAE1B2E001C01D92EC
:10022000AD33B207E1F710E0C6EFD0E000E005C063
:1002300021970109802FFE01F5D3C53FD10780E04A
:100240000807B1F7BCD2F6C3DBCE90E0FC01EC5559
:10025000FE4F2491825A9E4FFC018491882399F08D
:1002600090E0880F991FFC01EC5BFE4FA591B491C3
:10027000FC01E65DFE4F859194918FB7F894EC9167
:10028000E22BEC938FBF0895AF92BF92CF92DF9293
:10029000EF92FF920F931F93CF93DF936C017B013B
:1002A0008B01040F151FEB015E01AE18BF08C017CC
:1002B000D10759F06991D601ED91FC910190F0813F
:1002C000E02DC6011995892B79F7C501DF91CF91F2
:1002D0001F910F91FF90EF90DF90CF90BF90AF9064
:1002E00008954CE050E06CE072E085E292E0CCCF03
:1002F000282F30E0F901EC51FF4F9491F901EC55B2
:10030000FE4F4491225A3E4FF9012491222309F4D1
:1003100034C0992309F191509231F0F4E92FF0E0C3
:100320008827EB56FE4F8F4F7DC3C601CA01A70138
:10033000BE01C201AC01CD01D301D701DD01E10154
:10034000E501EB01EF01AC01F301F901FD01809141
:1003500080008F7780938000E22FF0E0EE0FFF1F88
:10036000E65DFE4FA591B4918FB7F894EC916111C1
:1003700048C040954E234C938FBF089580918000D4
:100380008F7DE8CF80918000877FE4CF84B58F7721
:1003900084BDE2CF84B58F7DFBCF8091B0008F7795
:1003A0008093B000D9CF8091B0008F7DF9CF80913C
:1003B00090008F7780939000CFCF809190008F7DB9
:1003C000F9CF80919000877FF5CF8091A0008F7743
:1003D0008093A000C1CF8091A0008F7DF9CF809144
:1003E000A000877FF5CF809120018F778093200137
:1003F000B3CF809120018F7DF9CF80912001877F3D
:10040000F5CF4E2BB8CF3FB7F89480911F02909153
:100410002002A0912102B091220226B5A89B05C01E
:100420002F3F19F00196A11DB11D3FBFBA2FA92F73
:10043000982F8827BC01CD01620F711D811D911D70
:1004400042E0660F771F881F991F4A95D1F70895DC
:100450008F929F92AF92BF92CF92DF92EF92FF92D4
:10046000D2DF4B015C0184EFC82EDD24D394E12C54
:10047000F12CC9DF681979098A099B09683E734024
:1004800081059105B0F321E0C21AD108E108F10815
:1004900088EE880E83E0981EA11CB11CC114D10403
:1004A000E104F10431F7FF90EF90DF90CF90BF901F
:1004B000AF909F908F900895089590E080E0089508
:1004C000CF93DF93EC0160E08E8112DF61E08E81DB
:1004D0000FDF60E08E810CDF8BE891E00197F1F790
:1004E000DF91CF910895CF92DF92EF92FF920F9319
:1004F0001F93CF93DF936C017C0187E0E80EF11C22
:10050000D0E0C0E0062F10E0B8010C2E02C07595B7
:1005100067950A94E2F76170F70181917F01E8DE47
:100520002196C430D10581F7C601DF91CF911F918B
:100530000F91FF90EF90DF90CF90C2CFCF92DF92DC
:10054000EF92FF920F931F93CF93DF93EC01F62E60
:10055000642F8C81CDDE8D818F3F11F060E0C8DE8D
:100560000F2D10E08F8584FF23C06E0187E0C80E39
:10057000D11CF12CE12CB8010E2C02C075956795A9
:100580000A94E2F76170F60181916F01B1DEFFEF2D
:10059000EF1AFF0A88E0E816F10469F7CE01DF914F
:1005A000CF911F910F91FF90EF90DF90CF9088CF68
:1005B000B80184E0759567958A95E1F7CE0193DFE0
:1005C0006F2DCE01DF91CF911F910F91FF90EF9092
:1005D000DF90CF9088CF40E0682F85E292E0AECFE9
:1005E00081E0F9DF8BE39FE10197F1F70895CF9365
:1005F000DF93823029F49091340298609093340212
:10060000809338021092390280E480933A0280E1AC
:1006100080933B0280E580933C028091290215DEA5
:1006200080912A028F3F09F010DE80912B020DDEAF
:10063000C5E2D2E09E01255232408091340284FD11
:1006400009C084E090E021962817390734F48E81A0
:10065000FCDDF0CF88E090E0F6CF8BE39DE00197E2
:10066000F1F760E08091290243DE60E080912B0287
:100670003FDE80912A028F3F11F060E039DE8091E9
:10068000340284FD2CC063E085E292E02CDFCBE4F1
:10069000D6E4CE010197F1F763E085E292E023DF33
:1006A0002197F1F763E085E292E01DDF83E592E0B8
:1006B0000197F1F762E085E292E015DF8091340264
:1006C000806289DF84E0809335028CE084DF88DFFC
:1006D00082E08093360286E0DF91CF917CCF80620A
:1006E0007ADF8BE496E40197F1F78091340280621F
:1006F00072DF83E592E00197F1F780913402806226
:100700006ADFDCCF90913802691710F06FEF690F44
:10071000E62FF0E0EB5DFD4F9489890F80685BCF99
:1007200041E00CDF81E090E008951F920F920FB638
:100730000F9211242F933F938F939F93AF93BF9367
:1007400080911B0290911C02A0911D02B0911E028B
:1007500030911A0223E0230F2D3758F50196A11D81
:10076000B11D20931A0280931B0290931C02A09348
:100770001D02B0931E0280911F0290912002A09151
:100780002102B09122020196A11DB11D80931F028A
:1007900090932002A0932102B0932202BF91AF91C7
:1007A0009F918F913F912F910F900FBE0F901F90AF
:1007B000189526E8230F0296A11DB11DD2CF78947B
:1007C00084B5826084BD84B5816084BD85B5826056
:1007D00085BD85B5816085BD80916E008160809307
:1007E0006E00109281008091810082608093810070
:1007F0008091810081608093810080918000816080
:10080000809380008091B10084608093B1008091DA
:10081000B00081608093B0008091910082608093ED
:10082000910080919100816080939100809190006F
:100830008160809390008091A10082608093A100EC
:100840008091A10081608093A1008091A0008160CF
:100850008093A0008091210182608093210180918A
:10086000210181608093210180912001816080932A
:10087000200180917A00846080937A0080917A00D0
:10088000826080937A0080917A00816080937A0000
:1008900080917A00806880937A001092C10082E093
:1008A000A6DE00E010E09CDE1092240210922302EB
:1008B00060E080E027DF15DD109224021092230211
:1008C000C0912302D0912402C430D1054CF48CE1B4
:1008D00082DEBEDD2196D0932402C0932302F0CFA6
:1008E0007FDE809135028B7F80933502886073DED6
:1008F00061E080E007DFF5DC109224021092230211
:10090000C0912302D0912402CC30D10544F488E177
:1009100062DE2196D0932402C0932302F1CF60E0DF
:1009200080E1F0DEDEDC80913502982F94609093B8
:1009300035028C6050DE1092240210922302C09186
:100940002302D0912402CF30D1054CF48CE143DE58
:100950007FDD2196D0932402C0932302F0CF40DEA6
:10096000809135028B7F80933502886034DE60E0B1
:1009700080E0C8DEB6DC1092240210922302C091FF
:100980002302D0912402CC30D10544F488E123DE47
:100990002196D0932402C0932302F1CF61E080E13D
:1009A000B1DE9FDC80913502982F946090933502E0
:1009B0008C6011DE1092240210922302C091230257
:1009C000D0912402CC30D1054CF48CE104DE40DD22
:1009D0002196D0932402C0932302F0CF0115110574
:1009E00009F461CF0E9400005ECFE5E2F2E01382DD
:1009F000128284E092E0918380838DE084838FEF84
:100A000085838CE0868388E0878389E080878AE01D
:100A100081878BE082871386148615861686178653
:100A200081E0E5CDEE0FFF1F881F8BBF0790F69189
:080A3000E02D1994F894FFCFAA
:100A380000000000900344015D025C02536579796F
:0A0A48006564204D616864690000D8
:00000001FF
