:10000000F5C0000021C100001FC100001DC100009B
:100010001BC1000019C1000017C1000015C100007C
:1000200013C1000011C100000FC100000DC100008C
:100030000BC1000009C1000007C1000005C100009C
:1000400003C1000043C50000FFC00000FDC0000068
:10005000FBC00000F9C00000F7C0000007C40000AA
:10006000F3C00000F1C00000EFC00000EDC00000D0
:10007000EBC00000E9C00000E7C00000E5C00000E0
:10008000F8C40000E1C00000DFC00000DDC00000D7
:10009000DBC00000D9C00000D7C00000D5C0000000
:1000A000D3C00000D1C00000B7C40000CDC0000024
:1000B000CBC00000C9C00000C7C0000080C4000061
:1000C000C3C00000C1C00000BFC00000BDC0000030
:1000D000BBC00000B9C000003CC4000011C4000057
:1000E000B3C0000000000A0B02090C0D0E08070344
:1000F00004010000000000000000000000000000FB
:1001000000000000000000000000000000000000EF
:1001100012111000000000000000000000000000AC
:100120000000000000000000000000002200250088
:1001300028002B002E0031003400020100000501D0
:1001400008010B0100002100240027002A002D00D7
:100150003000330001010000040107010A01050518
:100160000505070508080808020202020A0A08082D
:10017000040404040101010101010101030303035B
:1001800003030303040707070C0C0C0C0C0C0C0CEA
:100190000202020206060606060606060B0B0B0BFB
:1001A0000B0B0B0B01021020200808102040102020
:1001B000408002010201080402010102040810202B
:1001C0004080804020100804020180040201804029
:1001D0002010080402010804020101020408102092
:1001E00040800102040810204080930511241FBEA6
:1001F000CFEFD1E2DEBFCDBF00E00CBF12E0A0E048
:10020000B2E0EAECF0E100E00BBF02C007900D9213
:10021000A63AB107D9F723E0A6EAB2E001C01D92E1
:10022000A03FB207E1F710E0C6EFD0E000E005C064
:1002300021970109802FFE013ED7C53FD10780E0FD
:100240000807B1F7CDD43FC7DBCE8F929F92AF9214
:10025000BF92FF920F931F93CF93DF93F090ED0324
:100260002FE22F1508F44AC02091EF0308E512E0B1
:10027000021B110927FD1395000F111F000F111FFD
:100280002091EE03C8E8D0E0C21BD10927FDD39529
:10029000CC0FDD1FCC0FDD1F4E010D2E000CAA0868
:1002A000BB089801012E000C440B550B2819390985
:1002B0004A095B09DC01BCD624EB30E040E050E0A9
:1002C00091D6820E931EA41EB51E8C169D062CF090
:1002D000E801801691060CF4E4012297CC0FDD1F93
:1002E0002FB7F8948F2D90E0FC01EE0FFF1FE80F61
:1002F000F91FE45AFC4FD283C1832FBFDF91CF9106
:100300001F910F91FF90BF90AF909F908F90089595
:1003100090E0FC01EC55FE4F2491825A9E4FFC0167
:100320008491882399F090E0880F991FFC01EC5B81
:10033000FE4FA591B491FC01E65DFE4F859194912D
:100340008FB7F894EC91E22BEC938FBF0895AF92A6
:10035000BF92CF92DF92EF92FF920F931F93CF93B2
:10036000DF936C017B018B01040F151FEB015E0114
:10037000AE18BF08C017D10759F06991D601ED91A9
:10038000FC910190F081E02DC6011995892B79F738
:10039000C501DF91CF911F910F91FF90EF90DF90FA
:1003A000CF90BF90AF900895FC01538D448D252FC1
:1003B00030E0842F90E0821B930B541710F0CF96FF
:1003C000089501970895FC01918D828D981761F031
:1003D000A28DAE0FBF2FB11D5D968C91928D9F5F48
:1003E0009F73928F90E008958FEF9FEF0895FC0127
:1003F000918D828D981731F0828DE80FF11D858DDA
:1004000090E008958FEF9FEF0895FC01918D228D6C
:10041000892F90E0805C9F4F821B91098F739927F1
:1004200008958FEB92E0F1DF21E0892B09F420E0C1
:10043000822F0895FC01A48DA80FB92FB11DA35AD6
:10044000BF4F2C91848D90E001968F739927848FF4
:10045000A689B7892C93A089B1898C918370806417
:100460008C93938D848D981306C00288F389E02DB8
:1004700080818F7D80830895EF92FF920F931F9369
:10048000CF93DF93EC0181E0888F9B8D8C8D981347
:100490001AC0E889F989808185FF15C09FB7F89453
:1004A000EE89FF896083E889F9898081837080649F
:1004B00080839FBF81E090E0DF91CF911F910F91EA
:1004C000FF90EF900895F62E0B8D10E00F5F1F4FF9
:1004D0000F731127E02E8C8D8E110BC00FB607FC09
:1004E000FACFE889F989808185FFF5CFCE01A2DFB7
:1004F000F2CFEB8DEC0FFD2FF11DE35AFF4FF08291
:100500009FB7F8940B8FEA89FB8980818062D0CFF6
:10051000CF93DF93EC01888D8823B1F0AA89BB8942
:10052000E889F9898C9185FD03C0808186FD0CC026
:100530000FB607FCF7CF8C9185FFF2CF808185FF46
:10054000EDCFCE0177DFEACFDF91CF91089580E044
:1005500090E0892B49F080E090E0892B29F00E94FF
:10056000000081110E94000080E090E0892B49F09A
:1005700080E090E0892B29F00E94000081110E9408
:10058000000080E090E0892B49F080E090E0892B2A
:1005900029F00E94000081110E94000080E090E09C
:1005A000892B21F03EDF81110C9400000895282F43
:1005B00030E0F901EC51FF4F9491F901EC55FE4FF9
:1005C0004491225A3E4FF9012491222309F434C068
:1005D000992309F191509231F0F4E92FF0E0882746
:1005E000EC50FD4F8F4F67C52503290306031D03FC
:1005F00021030B032C03320336033C034003440363
:100600004A034E030B03520358035C03809180009E
:100610008F7780938000E22FF0E0EE0FFF1FE65D02
:10062000FE4FA591B4918FB7F894EC91611148C039
:1006300040954E234C938FBF0895809180008F7D0D
:10064000E8CF80918000877FE4CF84B58F7784BD29
:10065000E2CF84B58F7DFBCF8091B0008F77809300
:10066000B000D9CF8091B0008F7DF9CF80919000FC
:100670008F7780939000CFCF809190008F7DF9CFBE
:1006800080919000877FF5CF8091A0008F77809335
:10069000A000C1CF8091A0008F7DF9CF8091A000F4
:1006A000877FF5CF809120018F7780932001B3CF92
:1006B000809120018F7DF9CF80912001877FF5CF38
:1006C0004E2BB8CFAF92BF92CF92DF92EF92FF92B4
:1006D0000F931F93CF93DF936B017A01EC01CA55FF
:1006E000DD4F28813CE0389F8001399F100D112497
:1006F000A090EC03B12C27FF1FC0FB0111821082D8
:1007000088818F5F888388819801280F311D87FD3C
:100710003A95F6012A153B051CF488818C30BCF112
:1007200080819181049680349C4908F471C0F6015F
:100730008081918104966EC088819801280F311DB7
:1007400087FD3A952A153B05DCF68881A801480FFC
:10075000511D87FD5A95FA01EE0FFF1FE40FF51F9B
:10076000E45AFC4F808186FFCBCF8881F801E80FE7
:10077000F11D87FDFA95CF01EE0FFF1FE80FF91F5E
:10078000E45AFC4F808160E08F7311DFB9CF808124
:1007900091812881A801420F511D27FD5A959A0188
:1007A000FA01EE0FFF1FE20FF31FE45AFC4F218105
:1007B0003281820F931FF701918380838881980192
:1007C000280F311D87FD3A95F901EE0FFF1FE20F4B
:1007D000F31FE45AFC4F808186FF21C08881080FF7
:1007E000111D87FD1A95F801EE0FFF1FE00FF11F95
:1007F000E45AFC4F808161E08F73DF91CF911F91AC
:100800000F91FF90EF90DF90CF90BF90AF90CFCE41
:1008100080E49CE9F701918380838FEF8883DF91E7
:10082000CF911F910F91FF90EF90DF90CF90BF90ED
:10083000AF90089542E050E062E172E08FEB92E009
:1008400086CDCF93DF93FC0101900020E9F731972B
:10085000AF01481B590BBC018FEB92E078DDEC0136
:10086000E9DF8C0F9D1FDF91CF9108951F920F92AA
:100870000FB60F9211242F933F938F939F93AF93B3
:10088000BF938091BB029091BC02A091BD02B09138
:10089000BE023091BA0223E0230F2D3758F501969E
:1008A000A11DB11D2093BA028093BB029093BC029C
:1008B000A093BD02B093BE028091B6029091B702A0
:1008C000A091B802B091B9020196A11DB11D80930B
:1008D000B6029093B702A093B802B093B902BF9149
:1008E000AF919F918F913F912F910F900FBE0F90DD
:1008F0001F90189526E8230F0296A11DB11DD2CF97
:100900001F920F920FB60F9211240BB60F922F93D6
:100910003F934F935F936F937F938F939F93AF9387
:10092000BF93EF93FF938FEB92E084DDFF91EF9104
:10093000BF91AF919F918F917F916F915F914F91F7
:100940003F912F910F900BBE0F900FBE0F901F90F5
:1009500018951F920F920FB60F9211240BB60F929B
:100960002F938F939F93EF93FF93E091CF02F0919A
:10097000D0028081E091D502F091D60282FD1DC0A7
:1009800090818091D8028F5F8F732091D902821756
:1009900041F0E091D802F0E0E154FD4F958F809353
:1009A000D802FF91EF919F918F912F910F900BBEE5
:1009B0000F900FBE0F901F9018958081F2CF1F925D
:1009C0000F920FB60F9211240BB60F922F933F93F5
:1009D0004F935F936F937F938F939F93AF93BF9347
:1009E000EF93FF9348E251E064E271E090E080E031
:1009F00069DEFF91EF91BF91AF919F918F917F91B0
:100A00006F915F914F913F912F910F900BBE0F907F
:100A10000FBE0F901F9018951F920F920FB60F9256
:100A200011240BB60F922F933F934F935F936F93C5
:100A30007F938F939F93AF93BF93EF93FF9348EA76
:100A400050E064EA70E083E090E03CDEFF91EF91DB
:100A5000BF91AF919F918F917F916F915F914F91D6
:100A60003F912F910F900BBE0F900FBE0F901F90D4
:100A700018951F920F920FB60F9211240BB60F927A
:100A80002F933F934F935F936F937F938F939F9396
:100A9000AF93BF93EF93FF9348E950E064E970E0B0
:100AA00082E090E00FDEFF91EF91BF91AF919F91B7
:100AB0008F917F916F915F914F913F912F910F9007
:100AC0000BBE0F900FBE0F901F9018951F920F92A4
:100AD0000FB60F9211240BB60F922F933F934F93A3
:100AE0005F936F937F938F939F93AF93BF93EF9396
:100AF000FF9348E850E064E870E081E090E0E2DDD8
:100B0000FF91EF91BF91AF919F918F917F916F91E5
:100B10005F914F913F912F910F900BBE0F900FBEA1
:100B20000F901F9018951092C2021092C10288EE89
:100B300093E0A0E0B0E08093C3029093C402A0933E
:100B4000C502B093C60284E092E09093C002809305
:100B5000BF0285E391E09093CC028093CB0284E3C3
:100B600091E09093CE028093CD0280E391E0909348
:100B7000D0028093CF0281E391E09093D2028093E0
:100B8000D10282E391E09093D4028093D30286E372
:100B900091E09093D6028093D5021092D8021092E1
:100BA000D9021092DA021092DB028091EC038033BA
:100BB00098F491E0980F9093EC038093ED0390E00C
:100BC000FC01EE0FFF1FE80FF91FE45AFC4F88EB02
:100BD0009BE09283818308958FEF8093ED030895C6
:100BE000CF93DF93CDB7DEB7789484B5826084BDB0
:100BF00084B5816084BD85B5826085BD85B5816021
:100C000085BD80916E00816080936E00109281009E
:100C10008091810082608093810080918100816059
:100C2000809381008091800081608093800080911A
:100C3000B10084608093B1008091B00081608093A6
:100C4000B00080919100826080939100809191002A
:100C500081608093910080919000816080939000EA
:100C60008091A10082608093A1008091A1008160A9
:100C70008093A1008091A00081608093A00080916A
:100C80002101826080932101809121018160809304
:100C900021018091200181608093200180917A0060
:100CA000846080937A0080917A00826080937A00D9
:100CB00080917A00816080937A0080917A008068C8
:100CC00080937A001092C100E091CF02F091D0029F
:100CD00082E08083E091CB02F091CC021082E0911F
:100CE000CD02F091CE028FEC80831092D702E0917A
:100CF000D302F091D40286E08083E091D102F0919A
:100D0000D202808180618083E091D102F091D20291
:100D1000808188608083E091D102F091D20280814D
:100D200080688083E091D102F091D20280818F7D32
:100D300080838091ED03803308F04FC089E0E8DACA
:100D40008091ED03282F30E0F901EE0FFF1FE20F35
:100D5000F31FE45AFC4F9081907C9960908310922D
:100D6000EE031092EF032CE0622F99D1829FB00125
:100D7000112430E020E0AB01420F531FFA01EE0FC7
:100D8000FF1FE40FF51FE45AFC4F908196FD17C03A
:100D90002F5F3F4F2C30310571F7813009F05EC075
:100DA0001092800082E08093810010928500109262
:100DB0008400B19A80916F00826080936F00E0910F
:100DC000ED038E2F90E0FC01EE0FFF1FE80FF91FDF
:100DD000E45AFC4F80818064808389E099DA8AE05C
:100DE00097DA8BE095DA8CE093DA1092B5021092E4
:100DF000B4028AE590E029DA54EBC52E52E0D52EF4
:100E000060E3962E8FEB92E000DB181619060CF0CB
:100E10008FC08FEB92E0D7DA2091B4023091B50207
:100E20008E3209F0AEC0ADB6BEB68DB79EB7821B8E
:100E3000930B0FB6F8949EBF0FBE8DBF01964AEA82
:100E4000E42E42E0F42EDC01F701AF014A5A524091
:100E5000421753077CF541914D93F7CF823061F4EF
:100E6000109290008093910010929500109294003F
:100E700088BB80937100A3CF833069F41092A000E7
:100E800082E08093A1001092A5001092A40089BB7B
:100E90008093720094CF811192CF1092200182E052
:100EA0008093210110922501109224018ABB809326
:100EB000730085CF1092B5021092B4026ED08C01EF
:100EC000F70191927F01CE16DF06D1F70FB6F894A5
:100ED000BEBE0FBEADBEAEDC01151105F9F485E155
:100EE00092E0AFDC8CE192E0ACDC89E292E0A9DC3C
:100EF00087E392E0A6DC81E492E0A3DC8CE492E05C
:100F0000A0DC88E592E09DDC85E692E09ADC86E74D
:100F100092E097DC87E892E094DC0AC061E00B3055
:100F2000110521F00C30110529F460E08AE03FDB67
:100F30000EDB68CF61E00531110521F006311105A6
:100F400019F460E08CE0F3CF61E00F31110521F07E
:100F50000032110519F460E08BE0E9CF8CE390E0FA
:100F60000932110561F08AE590E00A32110539F085
:100F700089E992E00B32110579F687E890E065D9AE
:100F8000D7CFA9014F5F5F4F5093B5024093B40292
:100F900026553D4FF9018083CBCFFC018827992747
:100FA000E89421912032E9F3293010F02E30C8F373
:100FB0002B3239F02D3231F4689403C00BD0820FFC
:100FC000911D219120532A30C8F31EF490958195EC
:100FD0009F4F08957AE0979F902D879F802D910DC8
:100FE00011240895052E97FB16F400940FD057FD99
:100FF00005D024D007FC02D046F408C05095409597
:10100000309521953F4F4F4F5F4F089590958095B4
:10101000709561957F4F8F4F9F4F089531D0A59F59
:10102000900DB49F900DA49F800D911D11240895E3
:10103000B7FFF4CFF3DF821B930B0895A1E21A2EC2
:10104000AA1BBB1BFD010DC0AA1FBB1FEE1FFF1F6C
:10105000A217B307E407F50720F0A21BB30BE40BBC
:10106000F50B661F771F881F991F1A9469F7609503
:101070007095809590959B01AC01BD01CF010895BD
:10108000A29FB001B39FC001A39F700D811D1124C9
:10109000911DB29F700D811D1124911D0895991B02
:1010A00079E004C0991F961708F0961B881F7A955F
:1010B000C9F780950895EE0FFF1F881F8BBF07901B
:0A10C000F691E02D1994F894FFCF8B
:1010CA00000000003C02A701D40188020502E301E6
:1010DA00F7010D0A00303A68656C700031313A62E6
:1010EA00757A7A6572206F6E0031323A62757A7A51
:1010FA006572206F66660032313A6C6564206F6EE5
:10110A000032323A6C6564206F66660033313A6D9C
:10111A006F746F72206F6E0033323A6D6F746F7234
:10112A00206F66660034313A6C656420616E676CC4
:10113A00653A2036300034323A6C656420616E6755
:10114A006C653A2039300034333A6C656420616E3C
:10115A00676C653A203133350057726F6E672049E4
:06116A006E7075740000B8
:00000001FF
