:1000000002C100002EC100002CC100002AC1000066
:1000100028C1000026C1000024C1000022C1000048
:1000200020C100001EC100001CC100001AC1000058
:1000300018C1000016C1000014C1000012C1000068
:1000400010C100000EC100000CC100000AC1000078
:1000500008C1000006C1000004C1000022C4000065
:1000600000C10000E8C30000BDC30000FAC00000EA
:10007000F8C00000F6C00000F4C00000F2C00000AC
:10008000F0C00000EEC00000ECC00000EAC00000BC
:10009000E8C00000E6C00000E4C00000E2C00000CC
:1000A000E0C00000DEC00000DCC00000DAC00000DC
:1000B000D8C00000D6C00000D4C00000D2C00000EC
:1000C000D0C00000CEC00000CCC00000CAC00000FC
:1000D000C8C00000C6C00000C4C00000C2C000000C
:1000E000C0C0000000002100240027002A002D00CD
:1000F0003000330001010000040107010A01000083
:100100002200250028002B002E00310034000201BF
:100110000000050108010B0100002000230026005B
:1001200029002C002F00320000010000030106010D
:10013000090105050505070508080808020202026D
:100140000A0A080804040404010101010101010173
:100150000303030303030303040707070C0C0C0C3E
:100160000C0C0C0C02020202060606060606060627
:100170000B0B0B0B0B0B0B0B0102102020080810B4
:100180002040102040800201020108040201010207
:1001900004081020408080402010080402018004E0
:1001A000020180402010080402010804020101023B
:1001B0000408102040800102040810204080000044
:1001C0000A0B02090C0D0E080703040100000000D1
:1001D000000000000000000000000000000000001F
:1001E00000000000000000000000121110000000DC
:1001F00000000000000000000000000000000000FF
:10020000000000009B0411241FBECFEFD1E2DEBF2F
:10021000CDBF00E00CBF12E0A0E0B2E0E8EEFEE0EF
:1002200000E00BBF02C007900D92A433B107D9F7CD
:1002300023E0A4E3B2E001C01D92A934B207E1F7C4
:1002400011E0C3E0D1E000E005C021970109802F53
:10025000FE0140D6C230D10780E00807B1F7F8D3DD
:1002600041C6CECE96E0899FD0011124A652BD4F43
:1002700090967C936E935F9791E091969C93919763
:10028000E0914703F091480390914603992339F098
:10029000309751F0811108C08091F602199430977F
:1002A00019F05C968C91FACF0895CF92DF92EF927D
:1002B000FF920F931F9396E0899FF0011124E6525D
:1002C000FD4F11A2278D30A12130310549F178F081
:1002D0002230310509F44FC02330310509F450C0F4
:1002E0001F910F91FF90EF90DF90CF9008956623BC
:1002F000B9F361E070E0B6DF2FB7F894809139026E
:1003000090913A02A0913B02B0913C022FBF8093A2
:10031000320390933303A0933403B0933503E0CFBB
:100320009FB7F894C0903902D0903A02E0903B0217
:10033000F0903C029FBF0091320310913303209153
:10034000340330913503C01AD10AE20AF30A00914E
:1003500044031091450330E020E00C151D052E05E7
:100360003F0548F462E070E01F910F91FF90EF901D
:10037000DF90CF9077CF6111B3CF63E070E0F4CF1F
:1003800070E060E0F1CFAF92BF92CF92DF92EF9238
:10039000FF920F931F93CF93DF936C017B018B012F
:1003A000040F151FEB015E01AE18BF08C017D1077F
:1003B00059F06991D601ED91FC910190F081E02D09
:1003C000C6011995892B79F7C501DF91CF911F914E
:1003D0000F91FF90EF90DF90CF90BF90AF90089576
:1003E000FC01538D448D252F30E0842F90E0821B3B
:1003F000930B541710F0CF96089501970895FC01C0
:10040000918D828D981761F0A28DAE0FBF2FB11D17
:100410005D968C91928D9F5F9F73928F90E008956F
:100420008FEF9FEF0895FC01918D828D981731F029
:10043000828DE80FF11D858D90E008958FEF9FEF7D
:100440000895FC01918D228D892F90E0805C9F4F53
:10045000821B91098F73992708958DE392E0F1DF54
:1004600021E0892B09F420E0822F0895FC01A48D5E
:10047000A80FB92FB11DA35ABF4F2C91848D90E0C6
:1004800001968F739927848FA689B7892C93A089A9
:10049000B1898C91837080648C93938D848D981333
:1004A00006C00288F389E02D80818F7D80830895C6
:1004B000EF92FF920F931F93CF93DF93EC0181E0B4
:1004C000888F9B8D8C8D98131AC0E889F98980815B
:1004D00085FF15C09FB7F894EE89FF896083E8898E
:1004E000F98980818370806480839FBF81E090E080
:1004F000DF91CF911F910F91FF90EF900895F62E0D
:100500000B8D10E00F5F1F4F0F731127E02E8C8DA6
:100510008E110BC00FB607FCFACFE889F9898081EC
:1005200085FFF5CFCE01A2DFF2CFEB8DEC0FFD2FD3
:10053000F11DE35AFF4FF0829FB7F8940B8FEA89C1
:10054000FB8980818062D0CFCF93DF93EC01888DCF
:100550008823B1F0AA89BB89E889F9898C9185FD46
:1005600003C0808186FD0CC00FB607FCF7CF8C91CD
:1005700085FFF2CF808185FFEDCFCE0177DFEACF17
:10058000DF91CF91089580E090E0892B21F065DF25
:1005900081110E94000080E090E0892B49F080E00A
:1005A00090E0892B29F00E94000081110E94000038
:1005B00080E090E0892B49F080E090E0892B29F0E1
:1005C0000E94000081110E94000080E090E0892BD1
:1005D00049F080E090E0892B29F00E940000811111
:1005E0000C94000008958150823108F059C0E82F22
:1005F000F0E08827E250FD4F8F4F6CC41E032203AA
:10060000100316031A03500325032B032F0335038E
:1006100039033D034303470350034B035103550381
:10062000809180008F778093800008958091800072
:100630008F7DF9CF80918000877FF5CF84B58F774C
:1006400084BD089584B58F7DFBCF8091B0008F77F6
:100650008093B00008958091B0008F7DF9CF809194
:1006600090008F77809390000895809190008F7D07
:10067000F9CF80919000877FF5CF8091A0008F7790
:100680008093A00008958091A0008F7DF9CF809184
:10069000A000877FF5CF809120018F778093200184
:1006A0000895809120018F7DF9CF80912001877F6F
:1006B000F5CFCF93DF93282F30E0F901E254FE4FBE
:1006C0008491F901E858FE4FD491F901EE5CFE4F98
:1006D000C491CC2399F0811186DFEC2FF0E0EE0F6E
:1006E000FF1FE85EFE4FA591B491EC91ED2381E0F0
:1006F00090E009F480E0DF91CF91089580E090E0F0
:10070000FACF862FD6CF1F93CF93DF93282F30E0D9
:10071000F901E254FE4F8491F901E858FE4FD4915B
:10072000F901EE5CFE4FC491CC23A1F0162F81118C
:100730005ADFEC2FF0E0EE0FFF1FE250FF4FA591C4
:10074000B4918FB7F894EC91111108C0D095DE23C5
:10075000DC938FBFDF91CF911F910895DE2BF8CFEF
:10076000862F642FD0CFCF93DF9390E0FC01E85821
:10077000FE4F24918E5C9E4FFC0184918823C9F02A
:1007800090E0880F991FFC01EC51FF4FA591B491A7
:10079000FC01E250FF4FC591D49161110DC09FB78C
:1007A000F8948C91209582238C9388812823288328
:1007B0009FBFDF91CF910895623051F49FB7F894B5
:1007C0003C91822F809583238C93E8812E2BEFCF51
:1007D0008FB7F894EC912E2B2C938FBFEACF862FF6
:1007E000642FC1CF1F920F920FB60F9211240BB638
:1007F0000F922F933F934F935F936F937F938F93BA
:100800009F93AF93BF93EF93FF938DE392E02EDE20
:10081000FF91EF91BF91AF919F918F917F916F91D8
:100820005F914F913F912F910F900BBE0F900FBE94
:100830000F901F9018951F920F920FB60F921124D0
:100840000BB60F922F938F939F93EF93FF93E091AB
:100850004D02F0914E028081E0915302F0915402DA
:1008600082FD1DC09081809156028F5F8F73209111
:100870005702821741F0E0915602F0E0E35CFD4F31
:10088000958F80935602FF91EF919F918F912F91B9
:100890000F900BBE0F900FBE0F901F901895808188
:1008A000F2CF1F920F920FB60F9211242F933F9306
:1008B0008F939F93AF93BF938091390290913A02A7
:1008C000A0913B02B0913C023091380223E0230F0B
:1008D0002D3758F50196A11DB11D20933802809344
:1008E000390290933A02A0933B02B0933C0280916C
:1008F000340290913502A0913602B09137020196F0
:10090000A11DB11D8093340290933502A09336024D
:10091000B0933702BF91AF919F918F913F912F91EB
:100920000F900FBE0F901F90189526E8230F029688
:10093000A11DB11DD2CF1092400210923F0288EE4D
:1009400093E0A0E0B0E08093410290934202A09334
:100950004302B09344028CE192E090933E02809374
:100960003D0285EC90E090934A028093490284EC2A
:1009700090E090934C0280934B0280EC90E0909337
:100980004E0280934D0281EC90E090935002809350
:100990004F0282EC90E0909352028093510286ECD9
:1009A00090E090935402809353021092560210925A
:1009B000570210925802109259021092DC021092C3
:1009C000E0021092DF021092E1028EE292E0909338
:1009D000DB028093DA02E6EFF2E0108214821382E7
:1009E0001582369683E0E233F807B9F784E092E0A7
:1009F00090933D0380933C0380E092E090933F030B
:100A000080933E0384E0809340038093410388E019
:100A100092E090933B0380933A038AE090E09093B6
:100A200043038093420384EF91E0909345038093C6
:100A30004403109248031092470310923603109219
:100A40003703109238031092390310924603089529
:100A5000789484B5826084BD84B5816084BD85B599
:100A6000826085BD85B5816085BD80916E008160A5
:100A700080936E001092810080918100826080934B
:100A8000810080918100816080938100809180004D
:100A90008160809380008091B10084608093B10078
:100AA0008091B00081608093B0008091910082605D
:100AB000809391008091910081608093910080915A
:100AC00090008160809390008091A100826080936B
:100AD000A1008091A10081608093A1008091A0007D
:100AE00081608093A0008091210182608093210128
:100AF000809121018160809321018091200181609A
:100B00008093200180917A00846080937A008091A4
:100B10007A00826080937A0080917A00816080936D
:100B20007A0080917A00806880937A001092C100E8
:100B3000E0914D02F0914E0282E08083E091490203
:100B4000F0914A021082E0914B02F0914C028FEC3E
:100B5000808310925502E0915102F091520286E09A
:100B60008083E0914F02F091500280818061808308
:100B7000E0914F02F0915002808188608083E09183
:100B80004F02F0915002808180688083E0914F0293
:100B9000F091500280818F7D808361E086E3E3DD08
:100BA00061E087E3E0DD61E088E3DDDD61E089E3CA
:100BB000DADD61E08DE3D7DD61E08CE3D4DD61E077
:100BC0008BE3D1DD61E08AE3CEDD61E08EE3CBDD56
:100BD000812C912C5401839446E1442E43E0542E01
:100BE00066246A94762C51E0509346038FB7F894AC
:100BF0004091390250913A0260913B0270913C025F
:100C00008FBF8091360390913703A0913803B09144
:100C10003903481B590B6A0B7B0B8091420390915F
:100C20004303B0E0A0E084179507A607B70708F0D4
:100C300008C1C0E080914003C81758F4E0913C031C
:100C4000F0913D03EC0FF11D62E080818CDDCF5F00
:100C5000F1CF312C80914103381608F05AC0032D92
:100C600010E0E0913E03F0913F03E00FF11F61E0DF
:100C7000808179DDE0913E03F0913F03E00FF11FA9
:100C800060E0808140DDD501C401032C04C0880FE1
:100C9000991FAA1FBB1F0A94D2F76C017C01E09434
:100CA000F094212C809140032816F0F4C22DD0E05E
:100CB000E0913C03F0913D03EC0FFD1F8081F9DCD6
:100CC0002496CC0FDD1FC652DD4F892B41F488815D
:100CD00099818C299D29998388832394E3CF8881E6
:100CE00099818E219F21F7CFE0913E03F0913F0340
:100CF000E00FF11F61E0808106DD80913E0390915D
:100D00003F03080F191F60E0F80180812CDD339448
:100D1000A1CF0AED12E0E8018F8D98A1892B21F473
:100D20001C8E7E8E6D8E19A226964C165D06A1F73E
:100D3000D12C80914003D81608F052C0C12CED2C64
:100D4000F12CEE0CFF1CC7018E519D4F7C012091B0
:100D50004103C21608F042C0F701608171810C2C7A
:100D600002C0769567950A94E2F7D29E900111240D
:100D70002C0D311DEAEDF2E080E0458D568D2417F3
:100D8000350709F4A5C08F5F36968A30B1F760FF4A
:100D900023C0EAEDF2E090E080E0448D411117C0FD
:100DA000E0913A03F0913B03E20FF31F408156E0DC
:100DB000589FF001599FF00D1124E652FD4F448FCA
:100DC000368F258F10A2178E61E06FDA05C001966D
:100DD00036968A30910509F7C394B9CFD394A9CF39
:100DE00080E0F80191A19111892F0A5F1F4F0C1724
:100DF0001D07B9F79FB7F8944091390250913A0214
:100E000060913B0270913C029FBF40933603509328
:100E100037036093380370933903882391F08091EE
:100E2000FB02882371F08091F9029091FA020197F8
:100E300041F48091F602813341F461E086E363DCA2
:100E400002C0109246039FDBCECE823319F461E0DC
:100E500087E3F5CF833319F461E088E3F0CF84337F
:100E600019F461E089E3EBCF853319F461E08DE398
:100E7000E6CF863319F461E08CE3E1CF873319F4D0
:100E800061E08BE3DCCF883319F461E08AE3D7CFEC
:100E900061E08933D9F08033B1F660E086E333DC7A
:100EA00060E087E330DC60E088E32DDC60E089E32C
:100EB0002ADC60E08DE327DC60E08CE324DC60E08A
:100EC0008BE321DC60E08AE31EDC60E08EE3B7CFD9
:100ED00061707BCFEE0FFF1F881F8BBF0790F691CD
:080EE000E02D1994F894FFCFF6
:100EE8001F21232517191B1D373839413435364240
:100EF800313233432A302344000000005802C30132
:100F0800F001A4022102FF01130200000000EF0318
:040F1800B00381039E
:00000001FF
