:1000000002C100002EC100002CC100002AC1000066
:1000100028C1000026C1000024C1000022C1000048
:1000200020C100001EC100001CC100001AC1000058
:1000300018C1000016C1000014C1000012C1000068
:1000400010C100000EC100000CC100000AC1000078
:1000500008C1000006C1000004C1000022C4000065
:1000600000C10000E8C30000BDC30000FAC00000EA
:10007000F8C00000F6C00000F4C00000F2C00000AC
:10008000F0C00000EEC00000ECC00000EAC00000BC
:10009000E8C00000E6C00000E4C00000E2C00000CC
:1000A000E0C00000DEC00000DCC00000DAC00000DC
:1000B000D8C00000D6C00000D4C00000D2C00000EC
:1000C000D0C00000CEC00000CCC00000CAC00000FC
:1000D000C8C00000C6C00000C4C00000C2C000000C
:1000E000C0C0000000002100240027002A002D00CD
:1000F0003000330001010000040107010A01000083
:100100002200250028002B002E00310034000201BF
:100110000000050108010B0100002000230026005B
:1001200029002C002F00320000010000030106010D
:10013000090105050505070508080808020202026D
:100140000A0A080804040404010101010101010173
:100150000303030303030303040707070C0C0C0C3E
:100160000C0C0C0C02020202060606060606060627
:100170000B0B0B0B0B0B0B0B0102102020080810B4
:100180002040102040800201020108040201010207
:1001900004081020408080402010080402018004E0
:1001A000020180402010080402010804020101023B
:1001B0000408102040800102040810204080000044
:1001C0000A0B02090C0D0E080703040100000000D1
:1001D000000000000000000000000000000000001F
:1001E00000000000000000000000121110000000DC
:1001F00000000000000000000000000000000000FF
:10020000000000009B0411241FBECFEFD1E2DEBF2F
:10021000CDBF00E00CBF12E0A0E0B2E0E4E9FEE0F8
:1002200000E00BBF02C007900D92A433B107D9F7CD
:1002300023E0A4E3B2E001C01D92AA34B207E1F7C3
:1002400011E0C3E0D1E000E005C021970109802F53
:10025000FE0116D6C230D10780E00807B1F7F8D307
:1002600017C6CECE96E0899FD0011124A552BD4F6E
:1002700090967C936E935F9791E091969C93919763
:10028000E0914803F091490390914703992339F095
:10029000309751F0811108C08091F702199430977E
:1002A00019F05C968C91FACF0895CF92DF92EF927D
:1002B000FF920F931F9396E0899FF0011124E5525E
:1002C000FD4F11A2278D30A12130310549F178F081
:1002D0002230310509F44FC02330310509F450C0F4
:1002E0001F910F91FF90EF90DF90CF9008956623BC
:1002F000B9F361E070E0B6DF2FB7F89480913A026D
:1003000090913B02A0913C02B0913D022FBF80939F
:10031000330390933403A0933503B0933603E0CFB7
:100320009FB7F894C0903A02D0903B02E0903C0214
:10033000F0903D029FBF0091330310913403209150
:10034000350330913603C01AD10AE20AF30A00914C
:1003500045031091460330E020E00C151D052E05E5
:100360003F0548F462E070E01F910F91FF90EF901D
:10037000DF90CF9077CF6111B3CF63E070E0F4CF1F
:1003800070E060E0F1CFAF92BF92CF92DF92EF9238
:10039000FF920F931F93CF93DF936C017B018B012F
:1003A000040F151FEB015E01AE18BF08C017D1077F
:1003B00059F06991D601ED91FC910190F081E02D09
:1003C000C6011995892B79F7C501DF91CF911F914E
:1003D0000F91FF90EF90DF90CF90BF90AF90089576
:1003E000FC01538D448D252F30E0842F90E0821B3B
:1003F000930B541710F0CF96089501970895FC01C0
:10040000918D828D981761F0A28DAE0FBF2FB11D17
:100410005D968C91928D9F5F9F73928F90E008956F
:100420008FEF9FEF0895FC01918D828D981731F029
:10043000828DE80FF11D858D90E008958FEF9FEF7D
:100440000895FC01918D228D892F90E0805C9F4F53
:10045000821B91098F73992708958EE392E0F1DF53
:1004600021E0892B09F420E0822F0895FC01A48D5E
:10047000A80FB92FB11DA35ABF4F2C91848D90E0C6
:1004800001968F739927848FA689B7892C93A089A9
:10049000B1898C91837080648C93938D848D981333
:1004A00006C00288F389E02D80818F7D80830895C6
:1004B000EF92FF920F931F93CF93DF93EC0181E0B4
:1004C000888F9B8D8C8D98131AC0E889F98980815B
:1004D00085FF15C09FB7F894EE89FF896083E8898E
:1004E000F98980818370806480839FBF81E090E080
:1004F000DF91CF911F910F91FF90EF900895F62E0D
:100500000B8D10E00F5F1F4F0F731127E02E8C8DA6
:100510008E110BC00FB607FCFACFE889F9898081EC
:1005200085FFF5CFCE01A2DFF2CFEB8DEC0FFD2FD3
:10053000F11DE35AFF4FF0829FB7F8940B8FEA89C1
:10054000FB8980818062D0CFCF93DF93EC01888DCF
:100550008823B1F0AA89BB89E889F9898C9185FD46
:1005600003C0808186FD0CC00FB607FCF7CF8C91CD
:1005700085FFF2CF808185FFEDCFCE0177DFEACF17
:10058000DF91CF91089580E090E0892B21F065DF25
:1005900081110E94000080E090E0892B49F080E00A
:1005A00090E0892B29F00E94000081110E94000038
:1005B00080E090E0892B49F080E090E0892B29F0E1
:1005C0000E94000081110E94000080E090E0892BD1
:1005D00049F080E090E0892B29F00E940000811111
:1005E0000C94000008958150823108F059C0E82F22
:1005F000F0E08827E250FD4F8F4F42C41E032203D4
:10060000100316031A03500325032B032F0335038E
:1006100039033D034303470350034B035103550381
:10062000809180008F778093800008958091800072
:100630008F7DF9CF80918000877FF5CF84B58F774C
:1006400084BD089584B58F7DFBCF8091B0008F77F6
:100650008093B00008958091B0008F7DF9CF809194
:1006600090008F77809390000895809190008F7D07
:10067000F9CF80919000877FF5CF8091A0008F7790
:100680008093A00008958091A0008F7DF9CF809184
:10069000A000877FF5CF809120018F778093200184
:1006A0000895809120018F7DF9CF80912001877F6F
:1006B000F5CFCF93DF93282F30E0F901E254FE4FBE
:1006C0008491F901E858FE4FD491F901EE5CFE4F98
:1006D000C491CC2399F0811186DFEC2FF0E0EE0F6E
:1006E000FF1FE85EFE4FA591B491EC91ED2381E0F0
:1006F00090E009F480E0DF91CF91089580E090E0F0
:10070000FACF862FD6CF1F93CF93DF93282F30E0D9
:10071000F901E254FE4F8491F901E858FE4FD4915B
:10072000F901EE5CFE4FC491CC23A1F0162F81118C
:100730005ADFEC2FF0E0EE0FFF1FE250FF4FA591C4
:10074000B4918FB7F894EC91111108C0D095DE23C5
:10075000DC938FBFDF91CF911F910895DE2BF8CFEF
:10076000862F642FD0CFCF93DF9390E0FC01E85821
:10077000FE4F24918E5C9E4FFC0184918823C9F02A
:1007800090E0880F991FFC01EC51FF4FA591B491A7
:10079000FC01E250FF4FC591D49161110DC09FB78C
:1007A000F8948C91209582238C9388812823288328
:1007B0009FBFDF91CF910895623051F49FB7F894B5
:1007C0003C91822F809583238C93E8812E2BEFCF51
:1007D0008FB7F894EC912E2B2C938FBFEACF862FF6
:1007E000642FC1CF1F920F920FB60F9211240BB638
:1007F0000F922F933F934F935F936F937F938F93BA
:100800009F93AF93BF93EF93FF938EE392E02EDE1F
:10081000FF91EF91BF91AF919F918F917F916F91D8
:100820005F914F913F912F910F900BBE0F900FBE94
:100830000F901F9018951F920F920FB60F921124D0
:100840000BB60F922F938F939F93EF93FF93E091AB
:100850004E02F0914F028081E0915402F0915502D6
:1008600082FD1DC09081809157028F5F8F73209110
:100870005802821741F0E0915702F0E0E25CFD4F30
:10088000958F80935702FF91EF919F918F912F91B8
:100890000F900BBE0F900FBE0F901F901895808188
:1008A000F2CF1F920F920FB60F9211242F933F9306
:1008B0008F939F93AF93BF9380913A0290913B02A5
:1008C000A0913C02B0913D023091380223E0230F09
:1008D0002D3758F50196A11DB11D20933802809344
:1008E0003A0290933B02A0933C02B0933D02809168
:1008F000340290913502A0913602B09137020196F0
:10090000A11DB11D8093340290933502A09336024D
:10091000B0933702BF91AF919F918F913F912F91EB
:100920000F900FBE0F901F90189526E8230F029688
:10093000A11DB11DD2CF109241021092400288EE4B
:1009400093E0A0E0B0E08093420290934302A09332
:100950004402B09345028CE192E090933F02809371
:100960003E0285EC90E090934B0280934A0284EC27
:1009700090E090934D0280934C0280EC90E0909335
:100980004F0280934E0281EC90E09093510280934D
:10099000500282EC90E0909353028093520286ECD6
:1009A00090E0909355028093540210925702109257
:1009B00058021092590210925A021092DD021092BF
:1009C000E1021092E0021092E2028EE292E0909335
:1009D000DC028093DB02E7EFF2E0108214821382E4
:1009E0001582369683E0E333F807B9F784E092E0A6
:1009F00090933E0380933D0380E092E09093400308
:100A000080933F0384E0809341038093420388E016
:100A100092E090933C0380933B038AE090E09093B4
:100A200044038093430384EF91E0909346038093C3
:100A30004503109249031092480310923703109215
:100A400038031092390310923A0310924703089525
:100A5000789484B5826084BD84B5816084BD85B599
:100A6000826085BD85B5816085BD80916E008160A5
:100A700080936E001092810080918100826080934B
:100A8000810080918100816080938100809180004D
:100A90008160809380008091B10084608093B10078
:100AA0008091B00081608093B0008091910082605D
:100AB000809391008091910081608093910080915A
:100AC00090008160809390008091A100826080936B
:100AD000A1008091A10081608093A1008091A0007D
:100AE00081608093A0008091210182608093210128
:100AF000809121018160809321018091200181609A
:100B00008093200180917A00846080937A008091A4
:100B10007A00826080937A0080917A00816080936D
:100B20007A0080917A00806880937A001092C100E8
:100B3000E0914E02F0914F0282E08083E0914A0200
:100B4000F0914B021082E0914C02F0914D028FEC3B
:100B5000808310925602E0915202F091530286E097
:100B60008083E0915002F091510280818061808306
:100B7000E0915002F0915102808188608083E09181
:100B80005002F0915102808180688083E091500290
:100B9000F091510280818F7D808361E087E0E3DD09
:100BA00061E086E0E0DD61E085E0DDDD36E0332E0A
:100BB000812C912C5401839466246A94762C8EE3C4
:100BC00092E03FDC1816190694F48EE392E017DCED
:100BD0008F3309F047C081E08093390260E087E0FD
:100BE00092DD60E086E08FDD60E085E08CDD809165
:100BF0003902882309F42FC181E0809347038FB71E
:100C0000F89440913A0250913B0260913C027091FD
:100C10003D028FBF8091370390913803A091390333
:100C2000B0913A03481B590B6A0B7B0B809143032D
:100C300090914403B0E0A0E084179507A607B7079A
:100C400008F00BC1C0E080914103C81788F4E0911F
:100C50003D03F0913E03EC0FF11D62E0808183DDE6
:100C6000CF5FF1CF883719F61092390261E0BACF21
:100C7000512C80914203581608F05AC0052D10E0FF
:100C8000E0913F03F0914003E00FF11F61E08081AC
:100C90006ADDE0913F03F0914003E00FF11F60E057
:100CA000808131DDD501C401052C04C0880F991F56
:100CB000AA1FBB1F0A94D2F76C017C01E094F09448
:100CC000412C809141034816F0F4C42DD0E0E0910E
:100CD0003D03F0913E03EC0FFD1F8081EADC24967A
:100CE000CC0FDD1FC552DD4F892B41F488819981DE
:100CF0008C299D29998388834394E3CF88819981A6
:100D00008E219F21F7CFE0913F03F0914003E00F48
:100D1000F11F61E08081F7DC80913F0390914003F7
:100D2000080F191F60E0F80180811DDD5394A1CFE9
:100D3000CBEDD2E0FE01878D90A1892B21F4148E9A
:100D4000768E658E11A2369683E0E731F80799F723
:100D500010E080914103181708F051C000E0E12E27
:100D6000F12CEE0CFF1CF701ED51FD4F7F0120919E
:100D70004203021708F041C0F70160817181002E23
:100D800002C0769567950A94E2F7129F90011124AC
:100D9000200F311DEBEDF2E080E0458D568D2417DC
:100DA000350709F46BC08F5F36968A30B1F760FF64
:100DB00022C0EBEDF2E090E080E0448D411116C0DE
:100DC000E0913B03F0913C03E20FF31F6081389EFA
:100DD000F001399EF00D1124E552FD4F648F368FDE
:100DE000258F10A2178E61E060DA05C00196369655
:100DF0008A30910511F70F5FBACF1F5FAACF80E04D
:100E000099A19111892F2696F3E0C731DF07C1F729
:100E10009FB7F89440913A0250913B0260913C0296
:100E200070913D029FBF4093370350933803609306
:100E3000390370933A03882381F08091FC02882360
:100E400061F08091FA029091FB02019731F4809158
:100E5000F702811105C097DBB2CE10924703FBCF9A
:100E600061E0803341F462E48EE392E021DB61E0F3
:100E700087E049DC60E085E046DCEDCF6170B4CF0F
:100E8000EE0FFF1F881F8BBF0790F691E02D19947E
:040E9000F894FFCF04
:100E940017191B1D1F2123253738392F3435362ABE
:100EA4003132332D4330452B000000005802C3017A
:100EB400F001A4022102FF01130200000000EF036D
:040EC400B0038103F3
:00000001FF
