:1000000002C1000031C100002FC100002DC100005D
:100010002BC1000029C1000027C1000025C100003C
:1000200023C1000021C100001FC100001DC100004C
:100030001BC1000019C1000017C1000015C100005C
:1000400013C1000011C100000FC100000DC100006C
:100050000BC1000009C1000007C100000C94420957
:1000600003C100000C9419090C94F008FDC00000B5
:10007000FBC00000F9C00000F7C00000F5C00000A0
:10008000F3C00000F1C00000EFC00000EDC00000B0
:100090000C94C7080C949E08E7C000000C948C09CF
:1000A000E3C00000E1C00000DFC00000DDC00000D0
:1000B000DBC00000D9C00000D7C00000D5C00000E0
:1000C000D3C00000D1C00000CFC000000C94750860
:1000D000E3C70000C9C00000B6C700008BC700001E
:1000E000C3C0000000002100240027002A002D00CA
:1000F0003000330001010000040107010A01000083
:100100002200250028002B002E00310034000201BF
:100110000000050108010B0100002000230026005B
:1001200029002C002F00320000010000030106010D
:10013000090105050505070508080808020202026D
:100140000A0A080804040404010101010101010173
:100150000303030303030303040707070C0C0C0C3E
:100160000C0C0C0C02020202060606060606060627
:100170000B0B0B0B0B0B0B0B0102102020080810B4
:100180002040102040800201020108040201010207
:1001900004081020408080402010080402018004E0
:1001A000020180402010080402010804020101023B
:1001B0000408102040800102040810204080000044
:1001C0000A0B02090C0D0E080703040100000000D1
:1001D000000000000000000000000000000000001F
:1001E00000000000000000000000121110000000DC
:1001F00000000000000000000000000000000000FF
:1002000000000000AF0A11241FBECFEFD1E2DEBF15
:10021000CDBF00E00CBF12E0A0E0B2E0ECEAF0E2FB
:1002200000E00BBF02C007900D92A036B107D9F7CE
:1002300027E0A0E6B2E001C01D92AA3CB207E1F7B8
:1002400011E0C3E0D1E000E006C021970109802F52
:10025000FE010E944510C230D10780E00807A9F7CF
:100260000E942C0C0C945410CBCEFC01A089B189B7
:1002700082E08C93A485B5851C92A685B7858FEC0A
:100280008C93108EA489B58986E08C93A289B3895A
:100290008C9180618C93A289B3898C9188608C93B6
:1002A000A289B3898C9180688C930288F389E02DB0
:1002B00080818F7D80830895982F2091C20481E0F2
:1002C000213208F043C080919E048111FCCF8091BF
:1002D000C10432E030939E0490939D049FEF90936D
:1002E0009C0410929B0420939A04A1EAB4E0EAE7EC
:1002F000F4E090E0291331C01092790490917904D0
:10030000880F892B8093790480917804813049F596
:1003100010927804809179048093BB008091BC0096
:1003200083FDF8CF85EC8093BC0080919E048230E1
:10033000E1F380919C048F3FB1F080919C04803266
:10034000A1F080919C04803391F084E01092A0048D
:100350001092C20410929F0408953D9131939F5FC3
:10036000C9CF85EEE0CF80E0F1CF82E0EFCF83E030
:10037000EDCF96E0899FD0011124A55AB84F9096F1
:100380007C936E935F9791E091969C939197E09107
:10039000C807F091C9079091C707992339F03097A2
:1003A00051F0811108C0809177071994309719F0A6
:1003B0005C968C91FACF089508950895AF92BF92FC
:1003C000CF92DF92EF92FF920F931F93CF93DF9321
:1003D0006C017B018B01040F151FEB015E01AE1850
:1003E000BF08C017D10759F06991D601ED91FC9172
:1003F0000190F081E02DC6011995892B79F7C5018F
:10040000DF91CF911F910F91FF90EF90DF90CF90F0
:10041000BF90AF900895FC01A089B1898C91A68905
:10042000B78982FD0FC09C91818D8F5F8F73228D64
:10043000821749F0A18DAE0FBF2FB11D5D969C9321
:10044000818F08958C910895FC01538D448D252F43
:1004500030E0842F90E0821B930B541710F0CF965E
:10046000089501970895FC01918D828D981761F090
:10047000A28DAE0FBF2FB11D5D968C91928D9F5FA7
:100480009F73928F90E008958FEF9FEF0895FC0186
:10049000918D828D981731F0828DE80FF11D858D39
:1004A00090E008958FEF9FEF0895FC01918D228DCC
:1004B000892F90E0805C9F4F821B91098F73992751
:1004C000089583EC94E0F1DF21E0892B09F420E02A
:1004D000822F089580E695E0E8DF21E0892B09F47A
:1004E00020E0822F08958DEF95E0DFDF21E0892B5A
:1004F00009F420E0822F08958AE996E0D6DF21E012
:10050000892B09F420E0822F0895FC01A48DA80F07
:10051000B92FB11DA35ABF4F2C91848D90E0019645
:100520008F739927848FA689B7892C93A089B18965
:100530008C91837080648C93938D848D981306C006
:100540000288F389E02D80818F7D80830895EF926A
:10055000FF920F931F93CF93DF93EC0181E0888F7D
:100560009B8D8C8D98131AC0E889F989808185FF4D
:1005700015C09FB7F894EE89FF896083E889F989EF
:1005800080818370806480839FBF81E090E0DF91F1
:10059000CF911F910F91FF90EF900895F62E0B8D44
:1005A00010E00F5F1F4F0F731127E02E8C8D8E11FF
:1005B0000BC00FB607FCFACFE889F989808185FF67
:1005C000F5CFCE01A2DFF2CFEB8DEC0FFD2FF11DA9
:1005D000E35AFF4FF0829FB7F8940B8FEA89FB89AB
:1005E00080818062D0CFB3CFCF93DF93EC01888D31
:1005F0008823B1F0AA89BB89E889F9898C9185FDA6
:1006000003C0808186FD0CC00FB607FCF7CF8C912C
:1006100085FFF2CF808185FFEDCFCE0176DFEACF77
:10062000DF91CF91089580E090E0892B21F064DF85
:1006300081110E94000080E090E0892B21F053DFBF
:1006400081110E94000080E090E0892B21F042DFC0
:1006500081110E94000080E090E0892B21F031DFC1
:1006600081110C94000008958150823108F05AC025
:10067000E82FF0E08827E05CFC4F8F4F0C9445108A
:1006800060036403520358035C03920367036D0322
:10069000710377037B037F038503890392038D0333
:1006A00093039703809180008F7780938000089553
:1006B000809180008F7DF9CF80918000877FF5CF7A
:1006C00084B58F7784BD089584B58F7DFBCF8091ED
:1006D000B0008F778093B00008958091B0008F7D37
:1006E000F9CF809190008F7780939000089580914A
:1006F00090008F7DF9CF80919000877FF5CF80911A
:10070000A0008F778093A00008958091A0008F7D36
:10071000F9CF8091A000877FF5CF809120018F775E
:10072000809320010895809120018F7DF9CF8091E1
:100730002001877FF5CFCF93DF93282F30E0F90199
:10074000E254FE4F8491F901E858FE4FD491F9012B
:10075000EE5CFE4FC491CC2399F0811185DFEC2F24
:10076000F0E0EE0FFF1FE85EFE4FA591B491EC9113
:10077000ED2381E090E009F480E0DF91CF910895CE
:1007800080E090E0FACF862FD6CF1F93CF93DF93F0
:10079000282F30E0F901E254FE4F8491F901E85826
:1007A000FE4FD491F901EE5CFE4FC491CC23A1F031
:1007B000162F811159DFEC2FF0E0EE0FFF1FE250F2
:1007C000FF4FA591B4918FB7F894EC91111108C027
:1007D000D095DE23DC938FBFDF91CF911F910895D9
:1007E000DE2BF8CF862F642FD0CFCF93DF9390E00E
:1007F000FC01E858FE4F24918E5C9E4FFC018491D1
:100800008823C9F090E0880F991FFC01EC51FF4F3D
:10081000A591B491FC01E250FF4FC591D4916111B3
:100820000DC09FB7F8948C91209582238C9388817A
:10083000282328839FBFDF91CF910895623051F420
:100840009FB7F8943C91822F809583238C93E88105
:100850002E2BEFCF8FB7F894EC912E2B2C938FBFCC
:10086000EACF862F642FC1CF3FB7F8948091A802BA
:100870009091A902A091AA02B091AB0226B5A89BC3
:1008800005C02F3F19F00196A11DB11D3FBFBA2F22
:10089000A92F982F8827BC01CD01620F711D811DE2
:1008A000911D42E0660F771F881F991F4A95D1F767
:1008B00008952FB7F8946091A4027091A5028091D9
:1008C000A6029091A7022FBF08950F931F93CF9375
:1008D000DF93C82FD62F86E0C89FF0011124E55A78
:1008E000F84F11A2878D90A181309105E1F058F069
:1008F00082309105D1F1039709F43CC0DF91CF918B
:100900001F910F9108956623C9F361E070E08C2F69
:1009100030DDCFDF6093B3077093B4078093B507E2
:100920009093B607EBCFC5DF0091B3071091B407E2
:100930002091B5073091B607AB01BC01401B510BAC
:10094000620B730B8091C5079091C607B0E0A0E0E1
:1009500084179507A607B70740F462E070E08C2F74
:10096000DF91CF911F910F9104CD63E070E0D11121
:10097000C5CFF5CF70E060E0F2CF85ED8093BC008D
:100980008091BC0084FDFCCF10929E0408952091BC
:100990008002260F3327331F21323105ECF42091DA
:1009A0009E04FC0190E080E0243069F082E008952C
:1009B000A09180022191AC01405A5D4FA40FB52F48
:1009C000B11D2C930196861798F380918002680FD1
:1009D0006093800280E0089581E008950895E09199
:1009E000B1028091B002E81730F4F0E0EE54FD4F10
:1009F000808190E008958FEF9FEF08959091B1026C
:100A00008091B0022FEF3FEF981748F4E92FF0E004
:100A1000EE54FD4F208130E09F5F9093B102C901F9
:100A200008958091B0029091B102891B990B0895AD
:100A3000CF92DF92EF92FF920F931F93CF93DF93AA
:100A40007C01CB018A0120919F04222389F0EB01D4
:100A50006B01C40ED51ECC15DD0561F06991D7017F
:100A6000ED91FC910190F081E02DC7011995F3CF34
:100A7000642F8DDFC801DF91CF911F910F91FF90FF
:100A8000EF90DF90CF900895CF93DF931F92CDB773
:100A9000DEB7698320919F042223F9F02091C204DC
:100AA000203258F021E030E0FC013383228390E0D3
:100AB00080E00F90DF91CF9108958091A004E82FFE
:100AC000F0E0EF55FB4F998190838F5F8093A004F6
:100AD0008093C20481E090E0ECCF61E0CE0101960A
:100AE00056DFF8CF682F87E397E0CECF089590E0E8
:100AF00080E008958F929F92AF92BF920F931F93C1
:100B0000CF93DF93CDB7DEB7A1970FB6F894DEBFD2
:100B10000FBECDBF19A2423008F44AE08E010F5D2E
:100B20001F4F842E912CB12CA12CA50194010E9461
:100B30002310E62FB901CA01EA303CF5E05DD80187
:100B4000EE938D01232B242B252B79F790E080E069
:100B5000109761F0FD0101900020E9F73197AF0196
:100B60004A1B5B0BBD0183E497E028DCA1960FB61E
:100B7000F894DEBF0FBECDBFDF91CF911F910F91D3
:100B8000BF90AF909F908F900895E95CD8CFFC0103
:100B900001900020E9F73197AF01481B590BBC01C8
:100BA00083E497E00BCCCF93DF93EC0160E08E8180
:100BB000ECDD61E08E81E9DD60E08E81E6DD8BE8D1
:100BC00091E00197F1F7DF91CF910895CF92DF92F5
:100BD000EF92FF920F931F93CF93DF936C017C01F1
:100BE00087E0E80EF11CD0E0C0E0062F10E0B8016D
:100BF0000C2E02C0759567950A94E2F76170F701B3
:100C000081917F01C2DD2196C430D10581F7C601F3
:100C1000DF91CF911F910F91FF90EF90DF90CF90D8
:100C2000C2CFCF92DF92EF92FF920F931F93CF9399
:100C3000DF93EC01F62E642F8C81A7DD8D818F3F31
:100C400011F060E0A2DD0F2D10E08F8584FF23C03E
:100C50006E0187E0C80ED11CF12CE12CB8010E2CDE
:100C600002C0759567950A94E2F76170F60181916B
:100C70006F018BDDFFEFEF1AFF0A88E0E816F10441
:100C800069F7CE01DF91CF911F910F91FF90EF9007
:100C9000DF90CF9088CFB80184E0759567958A95ED
:100CA000E1F7CE0193DF6F2DCE01DF91CF911F9140
:100CB0000F91FF90EF90DF90CF9088CF40E0682FAA
:100CC00083E497E0AECFCF93DF93823029F4909105
:100CD00052079860909352078093560710925707D7
:100CE00080E48093580780E18093590780E58093E2
:100CF0005A0761E08091470778DD809148078F3F70
:100D000011F061E072DD61E0809149076EDDC3E4BE
:100D1000D7E09E01235437408091520784FD0AC0DA
:100D200084E090E02196281739073CF461E08E8139
:100D30005CDDEFCF88E090E0F5CF8BE39DE001979D
:100D4000F1F760E08091470720DD60E0809149077E
:100D50001CDD809148078F3F11F060E016DD809127
:100D6000520784FD31C063E083E497E02FDFCBE4DA
:100D7000D6E4CE010197F1F763E083E497E026DF44
:100D80002197F1F763E083E497E020DF83E592E0C9
:100D90000197F1F762E083E497E018DF8091520752
:100DA00080628CDF84E0809353078CE087DF81E0F2
:100DB00085DF8BE39FE10197F1F782E08093540791
:100DC00086E0DF91CF917ACF806278DF8BE496E482
:100DD0000197F1F780915207806270DF83E592E01E
:100DE0000197F1F780915207806268DFD7CF909129
:100DF0005607691710F06FEF690FE62FF0E0ED5B13
:100E0000F84F9489890F806859CF41E00ADF81E06B
:100E100090E00895CF92DF92EF92FF926C01990FCC
:100E2000EE08FF08F7FE14C041E06DE283E497E0AE
:100E3000F8DE66277727CB016C197D098E099F099B
:100E40004AE058DE0196FF90EF90DF90CF90089532
:100E50004AE0C701B601FF90EF90DF90CF904ACEF5
:100E600081E02CDF8BE39FE10197F1F760E080E008
:100E7000BEDF84E592E08BDE809171049091720474
:100E8000C9DF60E088E0B3DF87E592E080DE809133
:100E90006F0490917004BEDF61E080E0A8DF8AE516
:100EA00092E075DE80916D0490916E04B3DF61E095
:100EB00088E09DDF8DE592E06ADE80916B04909181
:100EC0006C04A8CF8F929F92AF92BF92CF92DF9285
:100ED000EF92FF92C5DF81E080939F0480E58093CD
:100EE000C1041092A0041092C20490E080E0FADDE8
:100EF0008AEA90E0F7DD8091710490917204F2DD4E
:100F000080916F0490917004EDDD80916D0490915B
:100F10006E04E8DD80916B0490916C04E3DD81E068
:100F2000CBD9A2DC4B015C0188EEC82E83E0D82E21
:100F3000E12CF12C99DC681979098A099B09683E32
:100F4000734081059105B0F321E0C21AD108E10890
:100F5000F10888EE880E83E0981EA11CB11CC11414
:100F6000D104E104F10431F7FF90EF90DF90CF90CE
:100F7000BF90AF909F908F900895CF93DF93809113
:100F800077048823A1F168E770E08AE996E02BDB1B
:100F900068E770E08DEF95E026DB68E770E080E6BB
:100FA00095E021DB68E770E083EC94E01CDBC09106
:100FB0006204D0916304CE01880F991F880F991F96
:100FC00065E674E08E529D4F0E944D102196D0939D
:100FD0006304C093620460E084E0D7DB60E085E0F6
:100FE000D4DB1092770410926A0410926904DF91A6
:100FF000CF9108951F920F920FB60F9211240BB646
:101000000F922F933F934F935F936F937F938F93A1
:101010009F93AF93BF93EF93FF9383EC94E075DAC4
:10102000FF91EF91BF91AF919F918F917F916F91C0
:101030005F914F913F912F910F900BBE0F900FBE7C
:101040000F901F9018951F920F920FB60F921124B8
:101050000BB60F922F933F934F935F936F937F93B2
:101060008F939F93AF93BF93EF93FF9383EC94E0A1
:10107000D2D9FF91EF91BF91AF919F918F917F91C5
:101080006F915F914F913F912F910F900BBE0F90F9
:101090000FBE0F901F9018951F920F920FB60F92D0
:1010A00011240BB60F922F933F934F935F936F933F
:1010B0007F938F939F93AF93BF93EF93FF9380E6BC
:1010C00095E023DAFF91EF91BF91AF919F918F91BE
:1010D0007F916F915F914F913F912F910F900BBE38
:1010E0000F900FBE0F901F9018951F920F920FB682
:1010F0000F9211240BB60F922F933F934F935F9350
:101100006F937F938F939F93AF93BF93EF93FF93CF
:1011100080E695E080D9FF91EF91BF91AF919F91CB
:101120008F917F916F915F914F913F912F910F9090
:101130000BBE0F900FBE0F901F9018951F920F922D
:101140000FB60F9211240BB60F922F933F934F932C
:101150005F936F937F938F939F93AF93BF93EF931F
:10116000FF938DEF95E0D1D9FF91EF91BF91AF91B2
:101170009F918F917F916F915F914F913F912F91AF
:101180000F900BBE0F900FBE0F901F9018951F92DF
:101190000F920FB60F9211240BB60F922F933F931D
:1011A0004F935F936F937F938F939F93AF93BF936F
:1011B000EF93FF938DEF95E02ED9FF91EF91BF91C3
:1011C000AF919F918F917F916F915F914F913F91DF
:1011D0002F910F900BBE0F900FBE0F901F90189580
:1011E0001F920F920FB60F9211240BB60F922F93EE
:1011F0003F934F935F936F937F938F939F93AF939F
:10120000BF93EF93FF938AE996E07FD9FF91EF9127
:10121000BF91AF919F918F917F916F915F914F910E
:101220003F912F910F900BBE0F900FBE0F901F900C
:1012300018951F920F920FB60F9211240BB60F92B2
:101240002F933F934F935F936F937F938F939F93CE
:10125000AF93BF93EF93FF938AE996E0DCD8FF91B9
:10126000EF91BF91AF919F918F917F916F915F911E
:101270004F913F912F910F900BBE0F900FBE0F908B
:101280001F9018951F920F920FB60F9211242F9353
:101290003F938F939F93AF93BF938091A4029091BC
:1012A000A502A091A602B091A7023091A30223E06B
:1012B000230F2D3758F50196A11DB11D2093A302D0
:1012C0008093A4029093A502A093A602B093A702D4
:1012D0008091A8029091A902A091AA02B091AB02BC
:1012E0000196A11DB11D8093A8029093A902A0931D
:1012F000AA02B093AB02BF91AF919F918F913F91A2
:101300002F910F900FBE0F901F90189526E8230F76
:101310000296A11DB11DD2CF1F920F920FB60F9250
:1013200011240BB60F922F933F934F935F936F93BC
:101330007F938F939F93AF93BF93EF93FF9380918E
:10134000B900887F803609F44CC008F03FC088326D
:1013500009F4A8C028F5803109F49CC0C8F488239A
:1013600009F4FAC0883009F495C0FF91EF91BF915C
:10137000AF919F918F917F916F915F914F913F912D
:101380002F910F900BBE0F900FBE0F901F901895CE
:10139000883109F487C0803241F780939C0414C0DF
:1013A000803409F49CC040F48033B9F38833E9F603
:1013B00080939C0485ECAFC0803509F484C08835E7
:1013C00009F495C0883489F6D8DACFCF883909F482
:1013D0008CC038F5883729F050F4883611F0803702
:1013E00021F683E080939E041092A20257C08838B1
:1013F00009F47BC0803919F0803809F0B6CF8091AC
:10140000A202803208F071C0E091A20281E08E0F4A
:101410008093A2028091BB00F0E0EE57FD4F8083E5
:101420003DC0803B39F0E0F4803A09F479C0883A55
:1014300009F09BCF84E080939E0410928102109269
:101440008002E091AE02F091AF0219958091800286
:1014500081110FC081E0809380021092600209C068
:10146000803C09F4A7CF883C09F4A4CF883B09F05D
:101470007CCFE091810281E08E0F80938102F0E0C9
:10148000E05AFD4F80818093BB0090918102809152
:10149000800229C0809179048093BB0085EC809301
:1014A000BC0063CF90919B0480919A04981758F5E3
:1014B000E0919B0481E08E0F80939B04F0E0E6585E
:1014C000FB4F8081E9CFE0919B0481E08E0F8093F8
:1014D0009B048091BB00F0E0E658FB4F8083909125
:1014E0009B0480919A049817C8F285E8D8CFE091C0
:1014F0009B0481E08E0F80939B048091BB00F0E001
:10150000E658FB4F808380919D0481115DCF81E07F
:101510008093780484EA8093BC0010929E0425CFC7
:1015200085EC8093BC0010929E048091A2028032D0
:1015300030F4E091A202F0E0EE57FD4F108260918E
:10154000A20270E0E091AC02F091AD0282E892E07C
:1015500019951092A20209CF10929C0435CF1092D7
:10156000C6041092C50488EE93E0A0E0B0E080933A
:10157000C7049093C804A093C904B093CA042EE191
:1015800032E03093C4042093C30445E351E0509308
:10159000D0044093CF0444E351E05093D2044093ED
:1015A000D10440E351E05093D4044093D30441E389
:1015B00051E05093D6044093D50442E351E0509358
:1015C000D8044093D70446E351E05093DA044093A3
:1015D000D9041092DC041092DD041092DE04109203
:1015E000DF04109263051092620580936405909366
:1015F0006505A0936605B093670530936105209358
:10160000600545ED50E050936D0540936C0544ED49
:1016100050E050936F0540936E0540ED50E05093BD
:1016200071054093700541ED50E050937305409370
:10163000720542ED50E0509375054093740546EDF8
:1016400050E05093770540937605109279051092FB
:101650007A0510927B0510927C051092000610927C
:10166000FF058093010690930206A0930306B093B2
:1016700004063093FE052093FD054DEC50E0509399
:101680000A06409309064CEC50E050930C06409338
:101690000B0648EC50E050930E0640930D0649ECC3
:1016A00050E05093100640930F064AEC50E05093E0
:1016B0001206409311064EEC50E0509314064093EE
:1016C0001306109216061092170610921806109222
:1016D000190610929D0610929C0680939E06909388
:1016E0009F06A093A006B093A10630939B0620937B
:1016F0009A0625EC30E03093A7062093A60624EC4A
:1017000030E03093A9062093A80620EC30E0309317
:10171000AB062093AA0621EC30E03093AD0620936F
:10172000AC0622EC30E03093AF062093AE0626ECF8
:1017300030E03093B1062093B0061092B3061092B9
:10174000B4061092B5061092B60610923A0710929F
:10175000390780933B0790933C07A0933D07B093D4
:101760003E0780E392E0909338078093370710920A
:101770005D071092610710926007109262078EE475
:1017800092E090935C0780935B07E7E7F7E01082B5
:10179000148213821582369687E0E33BF807B9F787
:1017A00086E092E09093BE078093BD0782E092E0CE
:1017B0009093C0078093BF0784E08093C107809314
:1017C000C2078AE092E09093BC078093BB078AE04F
:1017D00090E09093C4078093C30784EF91E09093C7
:1017E000C6078093C5071092C9071092C8071092C8
:1017F000B7071092B8071092B9071092BA07109263
:10180000C707109246071092450782E492E0909332
:101810004407809343078DE0809347078FEF8093C1
:1018200048078CE08093490788E080934A0789E065
:1018300080934B078AE080934C078BE080934D07A1
:1018400010924E0710924F071092500710925107B6
:101850001092520781E037CA789484B5826084BDC3
:1018600084B5816084BD85B5826085BD85B58160A4
:1018700085BD80916E00816080936E001092810022
:1018800080918100826080938100809181008160DD
:10189000809381008091800081608093800080919E
:1018A000B10084608093B1008091B000816080932A
:1018B000B0008091910082608093910080919100AE
:1018C000816080939100809190008160809390006E
:1018D0008091A10082608093A1008091A10081602D
:1018E0008093A1008091A00081608093A0008091EE
:1018F0002101826080932101809121018160809388
:1019000021018091200181608093200180917A00E3
:10191000846080937A0080917A00826080937A005C
:1019200080917A00816080937A0080917A0080684B
:1019300080937A001092C10082E0C5D91092B10262
:101940001092B0021092A0041092C20410929E0451
:10195000C1E0C0939D041092780461E084E10E948C
:10196000C50361E085E10E94C5038091B9008E7FC7
:101970008093B9008091B9008D7F8093B90088E48D
:101980008093B80085E48093BC008CED91E0909347
:10199000AF028093AE028DED91E09093AD02809303
:1019A000AC028AE996E00E9435018DEF95E00E9435
:1019B000350180E695E00E94350183EC94E00E94B9
:1019C000350110926A041092690461E083E00E947C
:1019D000F50361E084E00E94F50361E085E00E9488
:1019E000F50360E084E00E94C50360E085E00E94AA
:1019F000C503C0939F0480E58093C1041092A004A6
:101A00001092C20490E080E06DD88AEA90E06AD833
:101A100081E00E945C0180919E048111FCCF81E0F5
:101A200080939E0480939D049FEF90939C0410925A
:101A30009B0493E090939A048093790480917904B5
:101A4000806A8093790480917804813009F018C10C
:101A500010927804809179048093BB008091BC003F
:101A600083FDF8CF85EC8093BC0080919E0481308B
:101A7000E1F380919B0494E0843010F490919B04F6
:101A8000AAE7B4E0E2EBF2E080E08913FBC0109239
:101A9000B1028093B00287E397E00E94FE04992789
:101AA000909372048093710487E397E00E94FE0490
:101AB00099279093700480936F0487E397E00E94C6
:101AC000FE04992790936E0480936D0487E397E05A
:101AD0000E94FE04992790936C0480936B04C0D9F4
:101AE00054E6252E312C412C512C812C912C540163
:101AF000839480917704882319F10E9459040091FE
:101B00007304109174042091750430917604601B65
:101B1000710B820B930BA201910195D2809100026F
:101B200090910102092E000CAA0BBB0B82179307A0
:101B3000A407B50728F461E083E00E94C5031DDA1D
:101B40008AE996E00E94550218161906ACF48AE953
:101B500096E00E94330290917704992369F08134D2
:101B600059F48091710490917204019690937204DB
:101B70008093710402DAA6D98DEF95E00E94550298
:101B800018161906ACF48DEF95E00E94330290917F
:101B90007704992369F0823459F480916F0490910D
:101BA000700401969093700480936F04E6D98AD9EB
:101BB00080E695E00E94550218161906ACF480E6FE
:101BC00095E00E94330290917704992369F0833461
:101BD00059F480916D0490916E04019690936E0477
:101BE00080936D04CAD96ED983EC94E00E945502AB
:101BF00018161906ACF483EC94E00E94330290911D
:101C00007704992369F0843459F480916B0490919E
:101C10006C04019690936C0480936B04AED952D9F6
:101C200081E08093C7070E9459040091B707109183
:101C3000B8072091B9073091BA07AB01BC01401B2E
:101C4000510B620B730B8091C3079091C407B0E0F6
:101C5000A0E084179507A607B70708F012C1C0E0F7
:101C60008091C107C81790F4E091BD07F091BE07BD
:101C7000EC0FF11D62E080810E94F503CF5FF0CF91
:101C800085EEF1CE2D9121938F5FFFCE712C809147
:101C9000C207781608F05FC0072D10E0E091BF077B
:101CA000F091C007E00FF11F61E080810E94F50311
:101CB000E091BF07F091C007E00FF11F60E0808165
:101CC0000E94C503D501C401072C04C0880F991FC9
:101CD000AA1FBB1F0A94D2F76C017C01E094F09418
:101CE000612C8091C1076816F8F4C62DD0E0E09110
:101CF000BD07F091BE07EC0FFD1F80810E949B0382
:101D00002496CC0FDD1FC55AD84F892B41F488810A
:101D100099818C299D29998388836394E2CF888156
:101D200099818E219F21F7CFE091BF07F091C007E5
:101D3000E00FF11F61E080810E94C5038091BF0721
:101D40009091C007080F191F60E0F80180810E9480
:101D5000F50373949CCF3BE5E32E37E0F32EE701C8
:101D60008F8D98A1892B31F41C8E2FEF3FEF3E8F82
:101D70002D8F19A2269687E997E08C179D0781F78A
:101D800010E08091C107181708F053C000E0812FC0
:101D900090E0880F991FFC01ED59F84F6F014091B9
:101DA000C207041708F043C0F60160817181002E5C
:101DB00002C0769567950A94E2F7149FA00111245A
:101DC000400F511DEBE5F7E080E0258D368D421781
:101DD000530709F411C18F5F36968A30B1F760FF5F
:101DE00024C0EBE5F7E090E080E0248D211118C0DD
:101DF000E091BB07F091BC07E40FF51F608126E07E
:101E0000289FF001299FF00D1124E55AF84F648FA7
:101E1000568F458F10A2178E61E00E94650405C0A1
:101E2000019636968A30910501F70F5FB8CF1F5F94
:101E3000A8CF10E0F70181A18111182FF6E0EF0E75
:101E4000F11CEC16FD06B1F70E9459046093B70728
:101E50007093B8078093B9079093BA07112389F05C
:101E6000C0917C07CC2369F080917A0790917B0721
:101E7000019739F480917707811106C00E941303FE
:101E800038CE1092C707FACF8A3249F1833409F469
:101E90008BC0853499F38F3209F499C08D3271F378
:101EA000E0916904F0916A048B3261F4EB59FB4FC5
:101EB000C5E6D4E0CF018556944004970CF08AC063
:101EC0001192F6CFE430F10524F4DF01AB59BB4F9A
:101ED0008C933196F0936A04E0936904CFCF80919C
:101EE000690490916A04049761F5409162045091ED
:101EF000630482ED92E030E020E02417350764F4BB
:101F0000E5E6F4E0DC017D916191761316C064E0B2
:101F1000E936F607C1F7C0E0C093640410926A0482
:101F20001092690460E083E00E94C503C1110EC0F5
:101F300061E085E00E94C503A1CF2F5F3F4F04966B
:101F4000DCCF61E087E30E94C503E5CF6FE370E07B
:101F50008AE996E00E94F3026FE370E08DEF95E06E
:101F60000E94F3026FE370E080E695E00E94F302C6
:101F70006FE370E083EC94E00E94F30261E084E0A0
:101F80000E94C50360E085E00E94C5030E945904D9
:101F90006093730470937404809375049093760433
:101FA00081E0809377046ACF60E083E00E94C503FC
:101FB00060E084E00E94C50360E085E00E94C50304
:101FC00010926A04109269041092640457CF0E9420
:101FD000BD0754CF85E694E011D01992EFE6F4E006
:101FE000EC17FD07D1F710926A04109269049093E0
:101FF00001028093000242CF61700FCFFC0188275D
:102000009927E89421912032E9F3293010F02E30FD
:10201000C8F32B3239F02D3231F4689403C00BD061
:10202000820F911D219120532A30C8F31EF4909500
:1020300081959F4F08957AE0979F902D879F802DDF
:10204000910D11240895A1E21A2EAA1BBB1BFD01BC
:102050000DC0AA1FBB1FEE1FFF1FA217B307E40787
:10206000F50720F0A21BB30BE40BF50B661F771FDF
:10207000881F991F1A9469F76095709580959095BF
:102080009B01AC01BD01CF010895EE0FFF1F881F1A
:102090008BBF0790F691E02D1994FB01DC010190B4
:0C20A0000D920020E1F70895F894FFCFA6
:1020AC000A0017191B1D1F2123253738392F3435EA
:1020BC00362A3132332D4330452B00000000A70265
:1020CC00DE012402F4025502330247020000000034
:1020DC00440518057705EE041105FE04EF04000015
:1020EC0000000507DE0177057605000000003104CD
:1020FC00F203C303413A00423A00433A00443A0027
:00000001FF
