:1000000002C100001FC100001DC100001BC1000093
:1000100019C1000017C1000015C1000013C1000084
:1000200011C100000FC100000DC100000BC1000094
:1000300009C10000BBC1000005C1000003C10000F0
:1000400001C10000FFC00000FDC00000FBC00000B7
:10005000F9C00000F7C00000F5C000006BC200004E
:10006000F1C00000EFC00000EDC00000EBC00000D8
:10007000E9C00000E7C00000E5C00000E3C00000E8
:10008000E1C00000DFC00000DDC00000DBC00000F8
:10009000D9C00000D7C00000D5C00000D3C0000008
:1000A000D1C00000CFC00000CDC00000CBC0000018
:1000B000C9C00000C7C00000C5C00000C3C0000028
:1000C000C1C00000BFC00000BDC00000BBC0000038
:1000D000B9C00000B7C00000B5C00000B3C0000048
:1000E000B1C00000000020002300260029002C00E1
:1000F0002F00320000010000030106010901000089
:100100000A0B02090C0D0E08070304010000000091
:1001100000000000000000000000000000000000DF
:10012000000000000000000000001211100000009C
:1001300000000000000000000000000000000000BF
:100140000000000000002100240027002A002D00EC
:100150003000330001010000040107010A0101021F
:1001600010202008081020401020408002010201C9
:100170000804020101020408102040808040201081
:1001800008040201800402018040201008040201DA
:100190000804020101020408102040800102040842
:1001A0001020408000002200250028002B002E0097
:1001B0003100340002010000050108010B010505B2
:1001C0000505070508080808020202020A0A0808CD
:1001D00004040404010101010101010103030303FB
:1001E00003030303040707070C0C0C0C0C0C0C0C8A
:1001F0000202020206060606060606060B0B0B0B9B
:100200000B0B0B0B020011241FBECFEFD1E2DEBFA0
:10021000CDBF00E00CBF13E0A0E0B2E0E2E5F1E109
:1002200000E00BBF02C007900D92A634B107D9F7CA
:1002300023E0A6E4B3E001C01D92A137B207E1F7C5
:10024000C3D185C7DDCE8150823108F059C0E82F77
:10025000F0E08827E25DFE4F8F4F48C74E01520104
:10026000400146014A01800155015B015F016501C2
:1002700069016D017301770180017B0181018501B5
:10028000809180008F778093800008958091800016
:100290008F7DF9CF80918000877FF5CF84B58F77F0
:1002A00084BD089584B58F7DFBCF8091B0008F779A
:1002B0008093B00008958091B0008F7DF9CF809138
:1002C00090008F77809390000895809190008F7DAB
:1002D000F9CF80919000877FF5CF8091A0008F7734
:1002E0008093A00008958091A0008F7DF9CF809128
:1002F000A000877FF5CF809120018F778093200128
:100300000895809120018F7DF9CF80912001877F12
:10031000F5CFCF93DF93282F30E0F901E250FF4F64
:100320008491F901E25AFE4FD491F901E254FE4F53
:10033000C491CC2399F0811186DFEC2FF0E0EE0F11
:10034000FF1FEC51FF4FA591B491EC91ED2381E09B
:1003500090E009F480E0DF91CF91089580E090E093
:10036000FACF3FB7F89480914B0390914C03A09142
:100370004D03B0914E0326B5A89B05C02F3F19F041
:100380000196A11DB11D3FBFBA2FA92F982F882715
:10039000BC01CD01620F711D811D911D42E0660FF0
:1003A000771F881F991F4A95D1F708951F920F92C2
:1003B0000FB60F9211240BB60F922F933F934F93CA
:1003C0005F936F937F938F939F93AF93BF93CF93DD
:1003D000DF93EF93FF938091630390916403A09167
:1003E0006503B0916603892B8A2B8B2BF1F19091D9
:1003F0005203E0915303F091540380818927808355
:100400008091630390916403A0916503B0916603AA
:10041000181619061A061B069CF480916303909126
:100420006403A0916503B09166030197A109B10926
:100430008093630390936403A0936503B093660372
:10044000FF91EF91DF91CF91BF91AF919F918F91EC
:100450007F916F915F914F913F912F910F900BBEC4
:100460000F900FBE0F901F90189520910002E4E0AE
:10047000F2E0E4918FEF80930002E23009F43DC096
:1004800040F5EE2309F430C0E13009F430C030E02B
:10049000F901E250FF4F8491F901E25AFE4FD491E5
:1004A000F901E254FE4FC491CC2309F4C9CF811164
:1004B000CADEEC2FF0E0EE0FFF1FEC55FE4FA591CA
:1004C000B4918FB7F894EC91D095DE23DC938FBF75
:1004D000B7CFE43049F110F1E530C9F680917300EF
:1004E0008D7F80937300D3CF10926E00D0CF809118
:1004F0006F008D7F80936F00CACF809170008D7FD9
:100500008093700081E08093B0008091B100887F7B
:1005100084608093B1001092B300B9CF80917100D4
:100520008D7F80937100B3CF809172008D7F809317
:100530007200ADCF1F920F920FB60F9211242F931E
:100540003F938F939F93AF93BF9380914703909175
:100550004803A0914903B0914A033091460323E038
:10056000230F2D3758F50196A11DB11D2093460389
:100570008093470390934803A0934903B0934A03A1
:1005800080914B0390914C03A0914D03B0914E0389
:100590000196A11DB11D80934B0390934C03A09332
:1005A0004D03B0934E03BF91AF919F918F913F91B7
:1005B0002F910F900FBE0F901F90189526E8230FD4
:1005C0000296A11DB11DD2CFCF93DF9300D000D0F2
:1005D00000D01F921F92CDB7DEB7789484B58260A9
:1005E00084BD84B5816084BD85B5826085BD85B5D7
:1005F000816085BD80916E00816080936E00109255
:1006000081008091810082608093810080918100CF
:100610008160809381008091800081608093800060
:100620008091B10084608093B1008091B0008160BE
:100630008093B000809191008260809391008091BE
:1006400091008160809391008091900081608093FF
:1006500090008091A10082608093A1008091A10010
:1006600081608093A1008091A00081608093A000B0
:10067000809121018260809321018091210181601C
:1006800080932101809120018160809320018091DD
:100690007A00846080937A0080917A0082608093EF
:1006A0007A0080917A00816080937A0080917A004C
:1006B000806880937A001092C100E5E6F1E0249111
:1006C000E5ECF1E084918823C9F090E0880F991F50
:1006D000FC01EC5BFE4F65917491FC01EC55FE4F03
:1006E000A591B4919FB7F894FB0180812095822356
:1006F00080838C91E22FE823EC939FBF87E009DE93
:10070000892B09F07DC306E611E056EC252E51E059
:10071000352E80916F03909170038135910508F01B
:1007200064C380917B00877F80937B00F0E4F0932B
:100730007C0080917A00806480937A0080917A00B6
:1007400086FDFCCF3091780020917900E0916F0315
:10075000F0917003EE0FFF1FDF01AD55BD4F6D919E
:100760007C9184EF91E071D47E836D83EF5FFD4FC8
:10077000A080B180809100022B01770F6608770876
:10078000883089F5E4E0F2E0F491FB87FB85F7FF20
:1007900098C0C301B2016AD326E636E646EA5FE3B3
:1007A000C9D336D36B017C01DCDD4B015C01C11484
:1007B000D104E104F10409F409C3D3DD681979090E
:1007C0008A099B09683E73408105910580F3E1E049
:1007D000CE1AD108E108F108F8EE8F0EF3E09F1E63
:1007E000A11CB11CE4CF8F3FA1F688E080930002EA
:1007F000E4E0F2E0F491FB87FF3F59F2F23009F4B4
:1008000046C118F5FF2309F446C0F13009F0BECF08
:100810001092800010928100809181008860809306
:10082000810080918100816080938100F101849139
:10083000E82FF0E0EE0FFF1FEC55FE4F85919491ED
:10084000F8018491809355033CC04B85443009F4F2
:100850005EC108F43DC1453009F098CF10922001E7
:100860001092210180912101886080932101809163
:100870002101816080932101F1018491E82FF0E052
:10088000EE0FFF1FEC55FE4F85919491F801849176
:1008900080934F0316C014BC15BC84B5826084BD20
:1008A00085B5816085BDF1018491E82FF0E0EE0F00
:1008B000FF1FEC55FE4F85919491F8018491809330
:1008C0005603F8016491F1018491882399F090E036
:1008D000880F991FFC01EC5BFE4FA591B491FC01C0
:1008E000EC55FE4F459154918FB7F8949C91692B2C
:1008F0006C938FBF722F632F072E000C880B990B00
:10090000B5D220E030E040E05BE314D36B017C0122
:10091000B501BB0C880B990BA9D29B01AC01C70197
:10092000B60108D375D26F83788789879A874F81FC
:1009300058854A01B12CA12C60E072E18AE790E071
:10094000A5019401B7D329833A834B835C83690162
:100950007A0151E0C51AD108E108F1088B858D7F35
:1009600009F06DC18FEFC816D104E104F10409F05C
:100970000CF434C160E472E48FE090E0A5019401CE
:1009800099D369017A0191E0C91AD108E108F10807
:10099000EB85E23009F0D8C082E0FFEFCF16D1043A
:1009A000E104F10409F00CF46BC060E970ED83E040
:1009B00090E0A50194017ED369017A0181E0C81A13
:1009C000D108E108F10883E09FEFC916D104E104E2
:1009D000F10409F00CF454C068E478EE81E090E092
:1009E000A501940167D369017A0181E0C81AD10891
:1009F000E108F10884E09FEFC916D104E104F10495
:100A000009F00CF43DC064E274EF80E090E0A501D1
:100A1000940150D369017A0181E0C81AD108E10834
:100A2000F10885E04FEFC416D104E104F10441F16F
:100A300038F162E17AE780E090E0A50194013AD3D1
:100A400069017A01E1E0CE1AD108E108F10886E0F7
:100A5000FFEFCF16D104E104F10491F088F0C980D2
:100A6000DA80EB80FC809AE0F594E794D794C79401
:100A70009A95D1F741E0C41AD108E108F10887E05E
:100A80009091B100987F892B8093B100AFC01092F4
:100A9000B0001092B1008091B00082608093B000ED
:100AA0008091B10081608093B100F1018491E82FC1
:100AB000F0E0EE0FFF1FEC55FE4F8591949190935F
:100AC000540380935303F801849180935203F9CE29
:100AD0001092900010929100809191008860809314
:100AE000910080919100816080939100F101849147
:100AF000E82FF0E0EE0FFF1FEC55FE4F859194912B
:100B0000F801849180935103F3E0FB87DACE1092D1
:100B1000A0001092A1008091A10088608093A100A4
:100B20008091A10081608093A100F1018491E82F60
:100B3000F0E0EE0FFF1FEC55FE4F85919491F80108
:100B4000849180935003BDCEEFEFCE16D104E10423
:100B5000F10409F00CF471C068E478EE81E090E0F3
:100B6000A5019401A7D269017A01F1E0CF1AD10859
:100B7000E108F1082B8584E0211154CF83E02FEFA9
:100B8000C216D104E104F10469F164F162E17AE78B
:100B900080E090E0A50194018DD269017A0191E095
:100BA000C91AD108E108F10884E0EFEFCE16D104AC
:100BB000E104F104B9F0B0F0C980DA80EB80FC8088
:100BC0008AE0F594E794D794C7948A95D1F751E0D9
:100BD000C51AD108E108F10885E004C081E0FB8571
:100BE000F1114ECF95B5987F892B85BD2FEF3FEF43
:100BF000A901411451046104710409F047C08B85B7
:100C0000823009F4D3C00CF0BAC0882309F4BFC005
:100C1000813009F0BECDD0928900C0928800209327
:100C20006703309368034093690350936A0380918C
:100C30006F00826080936F00ACCD82E0D0CF91E0F6
:100C4000C114D10421E0E206F1047CF068E478EEFE
:100C500081E090E0A50194012DD269017A0181E043
:100C6000C81AD108E108F10893E0EB85E130D9F426
:100C700080918100887F892B809381002FEF3FEF47
:100C8000A901411451046104710429F22F813885AE
:100C9000220F331FAD81BE8131D228EE33E040E018
:100CA00050E0E6D1ACCFFB85F33001F580919100A7
:100CB000887F892B809391002FEF3FEFA90141148A
:100CC00051046104710411F7D0929900C092980008
:100CD00020935F033093600340936103509362035A
:100CE0008091710082608093710053CD2B852430F8
:100CF00009F58091A100887F892B8093A1002FEFB7
:100D00003FEFA901411451046104710409F0BECF01
:100D1000D092A900C092A80020935B0330935C039B
:100D200040935D0350935E038091720082608093D4
:100D300072002FCD4B85453009F058CF80912101AD
:100D4000887F892B809321012FEF3FEFA901411468
:100D500051046104710409F099CFD0922901C09225
:100D6000280120935703309358034093590350931D
:100D70005A03809173008260809373000ACD9B8533
:100D8000943031F20CF4A0CF953039F302CDC7BCCA
:100D900020936B0330936C0340936D0350936E0369
:100DA00080916E00826080936E00F3CCC092B3009D
:100DB0002093630330936403409365035093660369
:100DC00080917000826080937000E3CC87E0A1DAAC
:100DD00020916F0330917003892B39F42F5F3F4FBF
:100DE0003093700320936F0394CC80916F039091A4
:100DF00070038135910521F41092700310926F03F6
:100E000080E090E0892B09F479CC0E94000076CC38
:100E100070D088F09F5790F0B92F9927B751A0F064
:100E2000D1F0660F771F881F991F1AF0BA95C9F77E
:100E300012C0B13081F077D0B1E0089574C0672F4F
:100E4000782F8827B85F39F0B93FCCF3869577952E
:100E50006795B395D9F73EF4909580957095619517
:100E60007F4F8F4F9F4F0895E89409C097FB3EF442
:100E700090958095709561957F4F8F4F9F4F9923E7
:100E8000A9F0F92F96E9BB279395F6958795779565
:100E90006795B795F111F8CFFAF4BB0F11F460FF25
:100EA0001BC06F5F7F4F8F4F9F4F16C0882311F07D
:100EB00096E911C0772321F09EE8872F762F05C091
:100EC000662371F096E8862F70E060E02AF09A952C
:100ED000660F771F881FDAF7880F9695879597F921
:100EE000089557FD9058440F551F59F05F3F71F01A
:100EF0004795880F97FB991F61F09F3F79F0879581
:100F00000895121613061406551FF2CF4695F1DF09
:100F100008C0161617061806991FF1CF8695710599
:100F2000610508940895E894BB2766277727CB01CD
:100F300097F908950BD078C069D028F06ED018F0DA
:100F4000952309F05AC05FC01124EECFCADFA0F389
:100F5000959FD1F3950F50E0551F629FF001729F4E
:100F6000BB27F00DB11D639FAA27F00DB11DAA1F6D
:100F7000649F6627B00DA11D661F829F2227B00DBA
:100F8000A11D621F739FB00DA11D621F839FA00D45
:100F9000611D221F749F3327A00D611D231F849F95
:100FA000600D211D822F762F6A2F11249F575040EC
:100FB0008AF0E1F088234AF0EE0FFF1FBB1F661F87
:100FC000771F881F91505040A9F79E3F510570F040
:100FD00014C0AACF5F3FECF3983EDCF3869577957B
:100FE0006795B795F795E7959F5FC1F7FE2B880F3B
:100FF000911D9695879597F9089597F99F6780E8D1
:1010000070E060E008959FEF80EC089500240A945A
:101010001616170618060906089500240A941216D3
:101020001306140605060895092E0394000C11F406
:10103000882352F0BB0F40F4BF2B11F460FF04C0B3
:101040006F5F7F4F8F4F9F4F089597FB072E16F4CA
:10105000009406D077FD08D057D007FC05D03EF4A9
:10106000909581959F4F0895709561957F4F089554
:10107000A1E21A2EAA1BBB1BFD010DC0AA1FBB1F9C
:10108000EE1FFF1FA217B307E407F50720F0A21B0E
:10109000B30BE40BF50B661F771F881F991F1A947B
:1010A00069F760957095809590959B01AC01BD01A5
:1010B000CF010895052E97FB16F400940FD057FD2D
:1010C00005D0D6DF07FC02D046F408C05095409505
:1010D000309521953F4F4F4F5F4F089590958095E4
:1010E000709561957F4F8F4F9F4F0895EE0FFF1FB3
:1010F000881F8BBF0790F691E02D199419D0B7FF88
:101100000895821B930B0895AA1BBB1B51E107C0D6
:10111000AA1FBB1FA617B70710F0A61BB70B881F87
:10112000991F5A95A9F780959095BC01CD01089516
:10113000A29FB001B39FC001A39F700D811D112418
:10114000911DB29F700D811D1124911D0895F89479
:02115000FFCFCF
:10115200FF2601B801B801B80126012601B801B87D
:1011620001B8012601B801D2010B02B8014B020BF2
:10117200020B02D201D201B801B80188015D0188D7
:10118200010B02B8012601060126014A015D014A4E
:10119200015D018801B8010B02D201B80188015D2D
:1011A200014A0126010601880188018801B801D29D
:1011B20001B80188015D018801B80188015D014A19
:1011C200015D0188015D014A012601D201B801B821
:1011D20001880188015D015D014A01B80188018829
:1011E200015D015D014A014A0126015D015D01883F
:1011F20001B801040008000800040004000400080B
:1012020000080004000400040008000800020008AE
:101212000008000800080008000800080008000490
:101222000008000800020008000800080008000882
:10123200000800080008000800080008000800086C
:101242000008000800080004000800080004000468
:10125200000400080008000400040004000800085C
:10126200000400040004000800080002000800084E
:10127200000800080008000800080008000800082C
:101282000008000800080008000800080004000820
:061292000008000200004C
:00000001FF
