:1000000002C1000031C100002FC100002DC100005D
:100010002BC1000029C1000027C1000025C100003C
:1000200023C1000021C100001FC100001DC100004C
:100030001BC1000019C1000017C1000015C100005C
:1000400013C1000011C100000FC100000DC100006C
:100050000BC1000009C1000007C100000C94B208E8
:1000600003C100000C947C080C945308FDC00000F0
:10007000FBC00000F9C00000F7C00000F5C00000A0
:10008000F3C00000F1C00000EFC00000EDC00000B0
:10009000EBC00000E9C00000E7C000000C94FC08C1
:1000A000E3C00000E1C00000DFC00000DDC00000D0
:1000B000DBC00000D9C00000D7C00000D5C00000E0
:1000C000D3C00000D1C00000CFC00000CDC00000F0
:1000D000CBC00000C9C00000C7C00000C5C0000000
:1000E000C3C0000000002100240027002A002D00CA
:1000F0003000330001010000040107010A01000083
:100100002200250028002B002E00310034000201BF
:100110000000050108010B0100002000230026005B
:1001200029002C002F00320000010000030106010D
:10013000090105050505070508080808020202026D
:100140000A0A080804040404010101010101010173
:100150000303030303030303040707070C0C0C0C3E
:100160000C0C0C0C02020202060606060606060627
:100170000B0B0B0B0B0B0B0B0102102020080810B4
:100180002040102040800201020108040201010207
:1001900004081020408080402010080402018004E0
:1001A000020180402010080402010804020101023B
:1001B0000408102040800102040810204080000044
:1001C0000A0B02090C0D0E080703040100000000D1
:1001D000000000000000000000000000000000001F
:1001E00000000000000000000000121110000000DC
:1001F00000000000000000000000000000000000FF
:10020000000000001F0A11241FBECFEFD1E2DEBFA5
:10021000CDBF00E00CBF12E0A0E0B2E0E4E7FDE1FA
:1002200000E00BBF02C007900D92AC3DB107D9F7BB
:1002300024E0ACEDB2E001C01D92A73DB207E1F7AA
:1002400011E0C3E0D1E000E006C021970109802F52
:10025000FE010E94B00EC230D10780E00807A9F766
:100260000E94E80A0C94B80ECBCE982F2091A603DA
:1002700081E0213208F043C0809182038111FCCFDC
:100280008091A50332E030938203909381039FEF26
:100290009093800310927F0320937E03A5E8B3E040
:1002A000EEE5F3E090E0291331C010925D039091E8
:1002B0005D03880F892B80935D0380915C038130FF
:1002C00049F510925C0380915D038093BB0080919F
:1002D000BC0083FDF8CF85EC8093BC008091820345
:1002E0008230E1F3809180038F3FB1F080918003F1
:1002F0008032A1F080918003803391F084E01092ED
:1003000084031092A6031092830308953D913193C4
:100310009F5FC9CF85EEE0CF80E0F1CF82E0EFCFE5
:1003200083E0EDCF96E0899FD0011124A859BB4FFF
:1003300090967C936E935F9791E091969C939197A2
:10034000E091D504F091D6049091D404992339F02A
:10035000309751F0811108C080918404199430972E
:1003600019F05C968C91FACF089508950895AF9294
:10037000BF92CF92DF92EF92FF920F931F93CF9392
:10038000DF936C017B018B01040F151FEB015E01F4
:10039000AE18BF08C017D10759F06991D601ED9189
:1003A000FC910190F081E02DC6011995892B79F718
:1003B000C501DF91CF911F910F91FF90EF90DF90DA
:1003C000CF90BF90AF900895FC01538D448D252FA1
:1003D00030E0842F90E0821B930B541710F0CF96DF
:1003E000089501970895FC01918D828D981761F011
:1003F000A28DAE0FBF2FB11D5D968C91928D9F5F28
:100400009F73928F90E008958FEF9FEF0895FC0106
:10041000918D828D981731F0828DE80FF11D858DB9
:1004200090E008958FEF9FEF0895FC01918D228D4C
:10043000892F90E0805C9F4F821B91098F739927D1
:10044000089587EA93E0F1DF21E0892B09F420E0A9
:10045000822F0895FC01A48DA80FB92FB11DA35AB6
:10046000BF4F2C91848D90E001968F739927848FD4
:10047000A689B7892C93A089B1898C9183708064F7
:100480008C93938D848D981306C00288F389E02D98
:1004900080818F7D80830895EF92FF920F931F9349
:1004A000CF93DF93EC0181E0888F9B8D8C8D981327
:1004B0001AC0E889F989808185FF15C09FB7F89433
:1004C000EE89FF896083E889F9898081837080647F
:1004D00080839FBF81E090E0DF91CF911F910F91CA
:1004E000FF90EF900895F62E0B8D10E00F5F1F4FD9
:1004F0000F731127E02E8C8D8E110BC00FB607FCE9
:10050000FACFE889F989808185FFF5CFCE01A2DF96
:10051000F2CFEB8DEC0FFD2FF11DE35AFF4FF08270
:100520009FB7F8940B8FEA89FB8980818062D0CFD6
:10053000CF93DF93EC01888D8823B1F0AA89BB8922
:10054000E889F9898C9185FD03C0808186FD0CC006
:100550000FB607FCF7CF8C9185FFF2CF808185FF26
:10056000EDCFCE0177DFEACFDF91CF91089580E024
:1005700090E0892B21F065DF81110E94000080E06E
:1005800090E0892B49F080E090E0892B29F00E94CF
:10059000000081110E94000080E090E0892B49F06A
:1005A00080E090E0892B29F00E94000081110E94D8
:1005B000000080E090E0892B49F080E090E0892BFA
:1005C00029F00E94000081110C94000008958150D0
:1005D000823108F05AC0E82FF0E08827ED50FD4F37
:1005E0008F4F0C94B00E1303170305030B030F0377
:1005F00045031A03200324032A032E03320338037E
:100600003C034503400346034A03809180008F77F3
:10061000809380000895809180008F7DF9CF809134
:100620008000877FF5CF84B58F7784BD089584B52A
:100630008F7DFBCF8091B0008F778093B0000895BD
:100640008091B0008F7DF9CF809190008F7780935B
:1006500090000895809190008F7DF9CF8091900057
:10066000877FF5CF8091A0008F778093A0000895B9
:100670008091A0008F7DF9CF8091A000877FF5CF7A
:10068000809120018F77809320010895809120012F
:100690008F7DF9CF80912001877FF5CFCF93DF93B6
:1006A000282F30E0F901E254FE4F8491F901E85817
:1006B000FE4FD491F901EE5CFE4FC491CC2399F02A
:1006C000811185DFEC2FF0E0EE0FFF1FE85EFE4F9B
:1006D000A591B491EC91ED2381E090E009F480E0E4
:1006E000DF91CF91089580E090E0FACF862FD6CFAA
:1006F0001F93CF93DF93282F30E0F901E254FE4F90
:100700008491F901E858FE4FD491F901EE5CFE4F57
:10071000C491CC23A1F0162F811159DFEC2FF0E00A
:10072000EE0FFF1FE250FF4FA591B4918FB7F894E1
:10073000EC91111108C0D095DE23DC938FBFDF91BF
:10074000CF911F910895DE2BF8CF862F642FD0CF45
:10075000CF93DF9390E0FC01E858FE4F24918E5C2C
:100760009E4FFC0184918823C9F090E0880F991F67
:10077000FC01EC51FF4FA591B491FC01E250FF4FF9
:10078000C591D49161110DC09FB7F8948C912095BB
:1007900082238C938881282328839FBFDF91CF9168
:1007A0000895623051F49FB7F8943C91822F809560
:1007B00083238C93E8812E2BEFCF8FB7F894EC91A5
:1007C0002E2B2C938FBFEACF862F642FC1CF3FB73C
:1007D000F8948091240390912503A0912603B09171
:1007E000270326B5A89B05C02F3F19F00196A11D30
:1007F000B11D3FBFBA2FA92F982F8827BC01CD016B
:10080000620F711D811D911D42E0660F771F881FC9
:10081000991F4A95D1F708952FB7F8946091200356
:100820007091210380912203909123032FBF08959B
:100830000F931F93CF93DF93C82FD62F86E0C89FC7
:10084000F0011124E859FB4F11A2878D90A181304E
:100850009105E1F058F082309105D1F1039709F448
:100860003CC0DF91CF911F910F9108956623C9F38A
:1008700061E070E08C2F56DDCFDF6093C004709391
:10088000C1048093C2049093C304EBCFC5DF0091F1
:10089000C0041091C1042091C2043091C304AB0183
:1008A000BC01401B510B620B730B8091D2049091E1
:1008B000D304B0E0A0E084179507A607B70740F47B
:1008C00062E070E08C2FDF91CF911F910F912ACDC4
:1008D00063E070E0D111C5CFF5CF70E060E0F2CFFA
:1008E0006F927F928F929F92AF92BF92CF92DF9240
:1008F000EF92FF920F931F93CF93DF9381E080934A
:10090000D4048ADF0091C4041091C5042091C60468
:100910003091C704AB01BC01401B510B620B730B40
:100920008091D0049091D104B0E0A0E084179507A5
:10093000A607B70708F00CC1C0E08091CE04C81725
:1009400058F4E091CA04F091CB04EC0FF11D62E081
:100950008081FEDECF5FF1CF712C812C912C540170
:1009600083948091CF04781608F05AC0072D10E0C8
:10097000E091CC04F091CD04E00FF11F61E08081A3
:10098000E7DEE091CC04F091CD04E00FF11F60E0D0
:100990008081AEDED501C401072C04C0880F991FE9
:1009A000AA1FBB1F0A94D2F76C017C01E094F0945B
:1009B000612C8091CE046816F0F4C62DD0E0E09151
:1009C000CA04F091CB04EC0FFD1F808167DE2496F2
:1009D000CC0FDD1FC859DB4F892B41F488819981E9
:1009E0008C299D29998388836394E3CF8881998199
:1009F0008E219F21F7CFE091CC04F091CD04E00F40
:100A0000F11F61E0808174DE8091CC049091CD046F
:100A1000080F191F60E0F80180819ADE7394A1CF5E
:100A2000C8E6D4E0FE018FEF9FEF278D30A1232B86
:100A300021F4148E968F858F11A2369624E0E43A25
:100A4000F20799F7F12C96E0D92E8091CE04F81692
:100A500008F04FC0E12C0F2D10E0000F111F0059BE
:100A60001B4F2091CF04E21608F041C0F8016081CD
:100A700071810E2C02C0769567950A94E2F7F29E7A
:100A8000900111242E0D311DE8E6F4E080E0458D43
:100A9000568D2417350709F45FC08F5F36968A306C
:100AA000B1F760FF22C0E8E6F4E090E080E0448D1A
:100AB000411116C0E091C804F091C904E20FF31F80
:100AC0004081D89EF001D99EF00D1124E859FB4FCA
:100AD000448F368F258F10A2178E61E0A9DE05C0E6
:100AE000019636968A30910511F7E394BACFF394C4
:100AF000ACCF10E089A18111182F2696F4E0C43AFA
:100B0000DF07C1F789DE6093C4047093C504809346
:100B1000C6049093C7041123D9F0809189048823D7
:100B2000B9F08091870490918804019789F48091AD
:100B30008404DF91CF911F910F91FF90EF90DF9090
:100B4000CF90BF90AF909F908F907F906F900895BF
:100B50001092D40480E0EDCF6170C0CF85ED80931A
:100B6000BC008091BC0084FDFCCF109282030895EC
:100B70002091FC02260F3327331F21323105ECF47C
:100B800020918203FC0190E080E0243069F082E053
:100B90000895A091FC022191AC0144525D4FA40F35
:100BA000B52FB11D2C930196861798F38091FC0206
:100BB000680F6093FC0280E0089581E00895089535
:100BC000E0912D0380912C03E81730F4F0E0E25D12
:100BD000FC4F808190E008958FEF9FEF08959091F2
:100BE0002D0380912C032FEF3FEF981748F4E92F46
:100BF000F0E0E25DFC4F208130E09F5F90932D0399
:100C0000C901089580912C0390912D03891B990BA4
:100C10000895CF92DF92EF92FF920F931F93CF939D
:100C2000DF937C01CB018A0120918303222389F089
:100C3000EB016B01C40ED51ECC15DD0561F0699189
:100C4000D701ED91FC910190F081E02DC70119953C
:100C5000F3CF642F8DDFC801DF91CF911F910F91EA
:100C6000FF90EF90DF90CF900895CF93DF931F9286
:100C7000CDB7DEB76983209183032223F9F0209159
:100C8000A603203258F021E030E0FC0133832283B8
:100C900090E080E00F90DF91CF91089580918403E0
:100CA000E82FF0E0EB57FC4F998190838F5F8093A2
:100CB00084038093A60381E090E0ECCF61E0CE0155
:100CC000019656DFF8CF682F84E494E0CECF0895E4
:100CD00090E080E00895CF93DF93EC0160E08E8197
:100CE00007DD61E08E8104DD60E08E8101DD8BE84F
:100CF00091E00197F1F7DF91CF910895CF92DF92C4
:100D0000EF92FF920F931F93CF93DF936C017C01BF
:100D100087E0E80EF11CD0E0C0E0062F10E0B8013B
:100D20000C2E02C0759567950A94E2F76170F70181
:100D300081917F01DDDC2196C430D10581F7C601A8
:100D4000DF91CF911F910F91FF90EF90DF90CF90A7
:100D5000C2CFCF92DF92EF92FF920F931F93CF9368
:100D6000DF93EC01F62E642F8C81C2DC8D818F3FE6
:100D700011F060E0BDDC0F2D10E08F8584FF23C0F3
:100D80006E0187E0C80ED11CF12CE12CB8010E2CAD
:100D900002C0759567950A94E2F76170F60181913A
:100DA0006F01A6DCFFEFEF1AFF0A88E0E816F104F6
:100DB00069F7CE01DF91CF911F910F91FF90EF90D6
:100DC000DF90CF9088CFB80184E0759567958A95BC
:100DD000E1F7CE0193DF6F2DCE01DF91CF911F910F
:100DE0000F91FF90EF90DF90CF9088CF40E0682F79
:100DF00080E594E0AECF81E0F9DF8BE39FE10197DE
:100E0000F1F70895CF93DF93823029F490915F0436
:100E1000986090935F04809363041092640480E46C
:100E20008093650480E18093660480E58093670485
:100E300061E0809154048CDC809155048F3F11F067
:100E400061E086DC61E08091560482DCC0E5D4E09C
:100E50009E012055344080915F0484FD0AC084E0E7
:100E600090E02196281739073CF461E08E8170DC10
:100E7000EFCF88E090E0F5CF8BE39DE00197F1F7AD
:100E800060E08091540434DC60E08091560430DCF2
:100E9000809155048F3F11F060E02ADC80915F045F
:100EA00084FD2CC063E080E594E028DFCBE4D6E449
:100EB000CE010197F1F763E080E594E01FDF219711
:100EC000F1F763E080E594E019DF83E592E00197B4
:100ED000F1F762E080E594E011DF80915F048062C9
:100EE00085DF84E0809360048CE080DF84DF82E033
:100EF0008093610486E0DF91CF9178CF806276DFC6
:100F00008BE496E40197F1F780915F0480626EDFD5
:100F100083E592E00197F1F780915F04806266DFDC
:100F2000DCCF90916304891710F08FEF890FE82FC1
:100F3000F0E0E05BFB4F8489806858CF41E009DF37
:100F400081E090E00895FB0101900020E9F73197DE
:100F5000AF01461B570BDC01ED91FC910280F38140
:100F6000E02D19944F925F926F927F92AF92BF9251
:100F7000CF92DF92EF92FF920F931F93CF93DF9365
:100F8000CDB7DEB7A1970FB6F894DEBF0FBECDBFC9
:100F90005C016A017B01F7FE45C0DC01ED91FC912B
:100FA0000190F081E02D6DE219958C012227332705
:100FB000A9012C193D094E095F0919A2FE01B1963C
:100FC0007F019AE0492E512C612C712CCA01B90184
:100FD000A3019201A3D6605DD7016E937D01211517
:100FE00031054105510591F790E080E0109719F027
:100FF000BD01C501A8DF800F911FA1960FB6F8941F
:10100000DEBF0FBECDBFDF91CF911F910F91FF903B
:10101000EF90DF90CF90BF90AF907F906F905F90F8
:101020004F900895AB01960119A28E010F5D1F4FDD
:101030008AE0C82ED12CE12CF12CCA01B901A701FC
:1010400096016CD6605DF80162938F012115310520
:101050004105510591F790E080E0309771F2BF01B2
:10106000C50171DFCACFCF93DF93E0915A03F091AE
:101070005B03EA5AFC4FC6E5D3E0CF0186559340A7
:10108000049714F41192F7CF86E593E022D61992D3
:1010900023E0C036D207D9F710925B0310925A03AF
:1010A000DF91CF9108951F920F920FB60F921124E6
:1010B0000BB60F922F933F934F935F936F937F9352
:1010C0008F939F93AF93BF93EF93FF9387EA93E040
:1010D000C1D9FF91EF91BF91AF919F918F917F9176
:1010E0006F915F914F913F912F910F900BBE0F9099
:1010F0000FBE0F901F9018951F920F920FB60F9270
:1011000011240BB60F922F938F939F93EF93FF931E
:10111000E091B703F091B8038081E091BD03F091B5
:10112000BE0382FD1DC090818091C0038F5F8F73CD
:101130002091C103821741F0E091C003F0E0E9552E
:10114000FC4F958F8093C003FF91EF919F918F91FA
:101150002F910F900BBE0F900FBE0F901F90189500
:101160008081F2CF1F920F920FB60F9211242F930E
:101170003F938F939F93AF93BF9380912003909160
:101180002103A0912203B091230330911F0323E098
:10119000230F2D3758F50196A11DB11D20931F0374
:1011A0008093200390932103A0932203B093230301
:1011B0008091240390912503A0912603B0912703E9
:1011C0000196A11DB11D8093240390932503A09344
:1011D0002603B0932703BF91AF919F918F913F91C9
:1011E0002F910F900FBE0F901F90189526E8230F98
:1011F0000296A11DB11DD2CF1F920F920FB60F9272
:1012000011240BB60F922F933F934F935F936F93DD
:101210007F938F939F93AF93BF93EF93FF938091AF
:10122000B900887F803609F44CC008F03FC088328E
:1012300009F4A8C028F5803109F49CC0C8F48823BB
:1012400009F4FAC0883009F495C0FF91EF91BF917D
:10125000AF919F918F917F916F915F914F913F914E
:101260002F910F900BBE0F900FBE0F901F901895EF
:10127000883109F487C0803241F78093800314C01D
:10128000803409F49CC040F48033B9F38833E9F624
:101290008093800385ECAFC0803509F484C0883525
:1012A00009F495C0883489F659DCCFCF883909F420
:1012B0008CC038F5883729F050F4883611F0803723
:1012C00021F683E08093820310921E0357C0883872
:1012D00009F47BC0803919F0803809F0B6CF8091CD
:1012E0001E03803208F071C0E0911E0381E08E0F72
:1012F00080931E038091BB00F0E0E250FD4F80839D
:101300003DC0803B39F0E0F4803A09F479C0883A76
:1013100009F09BCF84E0809382031092FD0210922B
:10132000FC02E0912A03F0912B0319958091FC02B5
:1013300081110FC081E08093FC021092DC0209C091
:10134000803C09F4A7CF883C09F4A4CF883B09F07E
:101350007CCFE091FD0281E08E0F8093FD02F0E0F2
:10136000E452FD4F80818093BB009091FD028091FB
:10137000FC0229C080915D038093BB0085EC8093C3
:10138000BC0063CF90917F0380917E03981758F53E
:10139000E0917F0381E08E0F80937F03F0E0E25ABB
:1013A000FC4F8081E9CFE0917F0381E08E0F809335
:1013B0007F038091BB00F0E0E25AFC4F8083909164
:1013C0007F0380917E039817C8F285E8D8CFE0911B
:1013D0007F0381E08E0F80937F038091BB00F0E05C
:1013E000E25AFC4F80838091810381115DCF81E0BF
:1013F00080935C0384EA8093BC001092820325CF23
:1014000085EC8093BC001092820380911E03803291
:1014100030F4E0911E03F0E0E250FD4F1082609145
:101420001E0370E0E0912803F09129038EEF92E013
:10143000199510921E0309CF1092800335CF109298
:10144000AA031092A90388EE93E0A0E0B0E0809395
:10145000AB039093AC03A093AD03B093AE032CE524
:1014600032E03093A8032093A70325EC30E03093BB
:10147000B4032093B30324EC30E03093B6032093FD
:10148000B50320EC30E03093B8032093B70321EC90
:1014900030E03093BA032093B90322EC30E030936C
:1014A000BC032093BB0326EC30E03093BE032093B3
:1014B000BD031092C0031092C1031092C203109298
:1014C000C3031092470410924604809348049093FB
:1014D0004904A0934A04B0934B048EE692E09093A3
:1014E00045048093440410926A0410926E04109292
:1014F0006D0410926F048CE892E0909369048093DD
:101500006804E4E8F4E010821482138215823696AF
:1015100084E0E03CF807B9F784E492E09093CB04D0
:101520008093CA0480E492E09093CD048093CC042D
:1015300084E08093CE048093CF0488E492E090937B
:10154000C9048093C8048AE090E09093D10480930A
:10155000D00484EF91E09093D3048093D20410924E
:10156000D6041092D5041092C4041092C5041092AF
:10157000C6041092C7041092D4041092530410921F
:10158000520480E892E090935104809350048DE0DF
:10159000809354048FEF809355048CE0809356041D
:1015A00088E08093570489E0809358048AE0809310
:1015B00059048BE080935A0410925B0410925C04EF
:1015C00010925D0410925E0410925F0481E01ACCC8
:1015D000789484B5826084BD84B5816084BD85B50E
:1015E000826085BD85B5816085BD80916E0081601A
:1015F00080936E00109281008091810082608093C0
:1016000081008091810081608093810080918000C1
:101610008160809380008091B10084608093B100EC
:101620008091B00081608093B000809191008260D1
:1016300080939100809191008160809391008091CE
:1016400090008160809390008091A10082608093DF
:10165000A1008091A10081608093A1008091A000F1
:1016600081608093A000809121018260809321019C
:10167000809121018160809321018091200181600E
:101680008093200180917A00846080937A00809119
:101690007A00826080937A0080917A0081608093E2
:1016A0007A0080917A00806880937A001092C1005D
:1016B00082E0A8DBA0DB80E034DC61E084E048D895
:1016C00061E085E045D861E086E042D861E087E0EE
:1016D0003FD810922D0310922C0310928403109285
:1016E000A6031092820381E08093810310925C0331
:1016F00061E084E10E94780361E085E10E94780363
:101700008091B9008E7F8093B9008091B9008D7F60
:101710008093B90088E48093B80085E48093BC008E
:1017200085EB91E090932B0380932A0386EB91E065
:101730009093290380932803E091B703F091B803B5
:1017400082E08083E091B303F091B4031082E091D2
:10175000B503F091B6038FEC80831092BF03E09144
:10176000BB03F091BC0386E08083E091B903F09164
:10177000BA03808180618083E091B903F091BA035C
:10178000808188608083E091B903F091BA03808101
:1017900080688083E091B903F091BA0380818F7DE6
:1017A000808335EE232E45EC342E9AD88823E9F336
:1017B0008A32F1F0833409F44BC18534B1F3982FA8
:1017C0009D7F9D3291F38B3209F45FC120915A03C2
:1017D00030915B032430310524F4F901EA5AFC4FBF
:1017E00080832F5F3F4F30935B0320935A03DDCFFD
:1017F0003ADC01978730910508F0F2C090935503C9
:1018000080935403109253031092520305D86B0136
:101810007C01109251031092500360E084E00E941A
:10182000780360E085E00E94780360E086E00E9433
:10183000780360E087E00E947803E0915403F09120
:101840005503EE0FFF1FEE0FFF1F80915203909183
:101850005303E80FF91FEE0FFF1FE85FFD4FC08134
:10186000D1810E940C0421976C197D098E099F0972
:10187000CC0FDD1F693E73408105910538F18091E1
:10188000500390915103019690935103809350031C
:101890000E940C046B017C01AEDA81E042DB62E95C
:1018A00072E080E594E04FDBFE01E050FE4F4081A6
:1018B00051818091500390915103481B590B052E83
:1018C000000C660B770B80E594E04CDBC050DE4FDC
:1018D000288139818091500390915103281739074D
:1018E00009F041C0C0915203D091530360E084E0FD
:1018F0000E94780360E085E00E94780360E086E063
:101900000E94780360E087E00E947803E09154032E
:10191000F0915503EE0FFF1FEE0FFF1FEC0FFD1FA1
:10192000EE0FFF1FE85FFD4F40815181052E000C37
:10193000660B770B87EA93E015DB69E972E087EACB
:1019400093E001DB809152039091530301969093B1
:1019500053038093520310925103109250030E943C
:101960000C046B017C0180915203909153038430ED
:10197000910594F4E0915403F0915503EE0FFF1F8D
:10198000EE0FFF1FE80FF91FEE0FFF1FE85FFD4F7F
:1019900080819181892B49F561E084E00E94780380
:1019A00061E085E00E94780361E086E00E947803B0
:1019B00061E087E00E947803109251031092500377
:1019C0001ADA80E0AEDA6CE972E080E594E0BBDA26
:1019D00081E0A7DA6DEA72E080E594E0B4DAE5CE62
:1019E00010925503109254030DCF0E9470048F3251
:1019F00021F40E9470048823E1F3E0915403F091F4
:101A00005503EE0FFF1FEE0FFF1F809152039091C1
:101A10005303E80FF91FEE0FFF1FE85FFD4F8081B2
:101A200091818130910519F461E084E004CF823026
:101A3000910519F461E085E0FECE8330910519F43B
:101A400061E086E0F8CE049709F0F7CE61E0F2CECF
:101A5000D2D980E066DA6CE972E080E594E073DA6E
:101A600010925B0310925A0360E084E00E947803B6
:101A700060E085E00E94780360E086E00E947803E1
:101A800060E087E00E94780390CEEDDA20914E036B
:101A900030914F032115310509F403C1220F331F83
:101AA000F901E250FE4F9183808381E080938303AC
:101AB00080E58093A503109284031092A60390E022
:101AC00080E001D98AEA90E0FED850E0C52E52E0CD
:101AD000D52E7601F701819191917F01F4D8F8E03C
:101AE000EF16F2E0FF06B1F708E012E0E8014E0160
:101AF000B12CA12CF401819191914F01E4D8FFEF19
:101B0000AF1ABF0A24E0A216B104A1F7289682E01A
:101B1000C034D80761F781E00E9435010E94E703D5
:101B20002B013C0188EE882E83E0982EA12CB12C4D
:101B30000E94E7036419750986099709683E734096
:101B400081059105A8F391E0891A9108A108B108CF
:101B5000E8EE4E0EE3E05E1E611C711C81149104E0
:101B6000A104B10429F781E08093830310928403D8
:101B70001092A60390E080E0A6D88AEA90E0A3D86D
:101B800081E00E943501809182038111FCCF81E0C8
:101B900080938203809381032FEF20938003109220
:101BA0007F039FE190937E0380935D0380915D03AB
:101BB000806A80935D0380915C03813009F06AC084
:101BC00010925C0380915D038093BB008091BC0008
:101BD00083FDF8CF3092BC00809182038130E1F325
:101BE00080917F0390E2803210F490917F03AEE504
:101BF000B3E0EEE2F3E080E089134FC010922D03D2
:101C000080932C0384E494E00E94EF059927F60169
:101C1000819391936F01EE16FF06A1F76801F12CF5
:101C2000E12C84E494E00E94EF059927F60181936A
:101C300091936F01FFEFEF1AFF0A24E0E216F1041F
:101C400081F7085F1F4FC017D10741F7D4D880E054
:101C500068D96CE972E080E594E075D981E061D9DA
:101C60006CEB72E080E594E06ED940914E035091A8
:101C70004F03052E000C660B770B80E594E072D9BC
:101C800062EC72E080E594E05ED910924F0310920E
:101C90004E038BCD2092BC009FCF2D9121938F5F5F
:101CA000ABCF9C01215031092430310568F0A3D815
:101CB00080E037D96CE972E080E594E044D981E0B6
:101CC00030D96BEC72E088CE90934F0380934E0333
:101CD0006CCDFC0188279927E89421912032E9F303
:101CE000293010F02E30C8F32B3239F02D3231F478
:101CF000689403C00BD0820F911D219120532A308C
:101D0000C8F31EF4909581959F4F08957AE0979FB0
:101D1000902D879F802D910D11240895A1E21A2EF8
:101D2000AA1BBB1BFD010DC0AA1FBB1FEE1FFF1F7F
:101D3000A217B307E407F50720F0A21BB30BE40BCF
:101D4000F50B661F771F881F991F1A9469F7609516
:101D50007095809590959B01AC01BD01CF010895D0
:101D6000EE0FFF1F881F8BBF0790F691E02D19948F
:041D7000F894FFCF15
:101D74000500050005000500010002000300040041
:101D84000100020004000000010003000400000040
:101D94000200030004000000010004000000000031
:101DA4000200040000000000030004000000000022
:101DB40017191B1D1F2123253738392F3435362A8F
:101DC4003132332D4330452B000000004C02B70163
:101DD400E40198021502F301070200000000350631
:101DE40009066806DF050206EF05E00500000000AD
:101DF4009E07B7016806670600000000E403A50318
:101E0400760374696D653A20000D0A0064656661A5
:101E1400756C746D6F64653A313233340020202060
:101E240066696E69736865642020200054696D6575
:101E34007200206368616E676564002020496E76D5
:0C1E4400616C69642073746570202000DC
:00000001FF
