:10000000F5C0000021C100001FC100001DC100009B
:100010001BC1000019C1000017C1000015C100007C
:1000200013C1000011C100000FC100000DC100008C
:100030000BC1000009C1000007C1000005C100009C
:1000400003C10000CAC40000FFC00000FDC00000E2
:10005000FBC00000F9C00000F7C00000EDC30000C5
:10006000F3C00000F1C00000EFC00000EDC00000D0
:10007000EBC00000E9C00000E7C00000E5C00000E0
:100080007FC40000E1C00000DFC00000DDC0000050
:10009000DBC00000D9C00000D7C00000D5C0000000
:1000A000D3C00000D1C000003EC40000CDC000009D
:1000B000CBC00000C9C00000C7C0000007C40000DA
:1000C000C3C00000C1C00000BFC00000BDC0000030
:1000D000BBC00000B9C0000079C300004EC30000DF
:1000E000B3C0000000000A0B02090C0D0E08070344
:1000F00004010000000000000000000000000000FB
:1001000000000000000000000000000000000000EF
:1001100012111000000000000000000000000000AC
:100120000000000000000000000000002200250088
:1001300028002B002E0031003400020100000501D0
:1001400008010B0100002100240027002A002D00D7
:100150003000330001010000040107010A01050518
:100160000505070508080808020202020A0A08082D
:10017000040404040101010101010101030303035B
:1001800003030303040707070C0C0C0C0C0C0C0CEA
:100190000202020206060606060606060B0B0B0BFB
:1001A0000B0B0B0B01021020200808102040102020
:1001B000408002010201080402010102040810202B
:1001C0004080804020100804020180040201804029
:1001D0002010080402010804020101020408102092
:1001E000408001020408102040801A0511241FBE1F
:1001F000CFEFD1E2DEBFCDBF00E00CBF12E0A0E048
:10020000B2E0E4EDFFE000E00BBF02C007900D920A
:10021000A231B107D9F723E0A2E1B2E001C01D92FB
:10022000A035B207E1F710E0C6EFD0E000E005C06E
:1002300021970109802FFE01BDD6C53FD10780E07F
:100240000807B1F754D4C4C6DBCEAF92BF92CF92A9
:10025000DF92EF92FF920F931F93CF93DF936C0186
:100260007B018B01040F151FEB015E01AE18BF0867
:10027000C017D10759F06991D601ED91FC91019019
:10028000F081E02DC6011995892B79F7C501DF9121
:10029000CF911F910F91FF90EF90DF90CF90BF9083
:1002A000AF900895FC01538D448D252F30E0842FAD
:1002B00090E0821B930B541710F0CF96089501978E
:1002C0000895FC01918D828D981761F0A28DAE0F7B
:1002D000BF2FB11D5D968C91928D9F5F9F73928F02
:1002E00090E008958FEF9FEF0895FC01918D828D2E
:1002F000981731F0828DE80FF11D858D90E00895FB
:100300008FEF9FEF0895FC01918D228D892F90E052
:10031000805C9F4F821B91098F73992708958FE10D
:1003200092E0F1DF21E0892B09F420E0822F08958B
:10033000FC01A48DA80FB92FB11DA35ABF4F2C915A
:10034000848D90E001968F739927848FA689B78951
:100350002C93A089B1898C91837080648C93938D48
:10036000848D981306C00288F389E02D80818F7DEB
:1003700080830895EF92FF920F931F93CF93DF93A3
:10038000EC0181E0888F9B8D8C8D98131AC0E889D1
:10039000F989808185FF15C09FB7F894EE89FF89A0
:1003A0006083E889F98980818370806480839FBF3E
:1003B00081E090E0DF91CF911F910F91FF90EF903E
:1003C0000895F62E0B8D10E00F5F1F4F0F7311274E
:1003D000E02E8C8D8E110BC00FB607FCFACFE8898A
:1003E000F989808185FFF5CFCE01A2DFF2CFEB8DB9
:1003F000EC0FFD2FF11DE35AFF4FF0829FB7F894E9
:100400000B8FEA89FB8980818062D0CFCF93DF9305
:10041000EC01888D8823B1F0AA89BB89E889F98924
:100420008C9185FD03C0808186FD0CC00FB607FC52
:10043000F7CF8C9185FFF2CF808185FFEDCFCE0184
:1004400077DFEACFDF91CF91089580E090E0892BAC
:1004500049F080E090E0892B29F00E940000811192
:100460000E94000080E090E0892B49F080E090E05D
:10047000892B29F00E94000081110E94000080E079
:1004800090E0892B49F080E090E0892B29F00E94D0
:10049000000081110E94000080E090E0892B21F093
:1004A0003EDF81110C9400000895282F30E0F901FF
:1004B000EC51FF4F9491F901EC55FE4F4491225AB3
:1004C0003E4FF9012491222309F434C0992309F104
:1004D00091509231F0F4E92FF0E08827EE58FD4F6B
:1004E0008F4F68C5A302A70284029B029F02890264
:1004F000AA02B002B402BA02BE02C202C802CC0210
:100500008902D002D602DA02809180008F77809330
:100510008000E22FF0E0EE0FFF1FE65DFE4FA59199
:10052000B4918FB7F894EC91611148C040954E2377
:100530004C938FBF0895809180008F7DE8CF80918C
:100540008000877FE4CF84B58F7784BDE2CF84B508
:100550008F7DFBCF8091B0008F778093B000D9CF93
:100560008091B0008F7DF9CF809190008F7780933C
:100570009000CFCF809190008F7DF9CF8091900037
:10058000877FF5CF8091A0008F778093A000C1CFA7
:100590008091A0008F7DF9CF8091A000877FF5CF5B
:1005A000809120018F7780932001B3CF809120012B
:1005B0008F7DF9CF80912001877FF5CF4E2BB8CF6B
:1005C0003FB7F89480911B0290911C02A0911D02EC
:1005D000B0911E0226B5A89B05C02F3F19F00196C9
:1005E000A11DB11D3FBFBA2FA92F982F8827BC018D
:1005F000CD01620F711D811D911D42E0660F771FB5
:10060000881F991F4A95D1F70895AF92BF92CF9254
:10061000DF92EF92FF920F931F93CF93DF936B01C3
:100620007A01EC01CE5EDD4F28813CE0389F8001ED
:10063000399F100D1124A0904C03B12C27FF1FC02F
:10064000FB011182108288818F5F888388819801E5
:10065000280F311D87FD3A95F6012A153B051CF43C
:1006600088818C30BCF180819181049680349C49D2
:1006700008F471C0F6018081918104966EC0888172
:100680009801280F311D87FD3A952A153B05DCF6A8
:100690008881A801480F511D87FD5A95FA01EE0F78
:1006A000FF1FE40FF51FE454FD4F808186FFCBCF81
:1006B0008881F801E80FF11D87FDFA95CF01EE0F53
:1006C000FF1FE80FF91FE454FD4F808160E08F7336
:1006D000ECDEB9CF808191812881A801420F511DA4
:1006E00027FD5A959A01FA01EE0FFF1FE20FF31F43
:1006F000E454FD4F21813281820F931FF7019183D2
:10070000808388819801280F311D87FD3A95F90172
:10071000EE0FFF1FE20FF31FE454FD4F808186FFB1
:1007200021C08881080F111D87FD1A95F801EE0F71
:10073000FF1FE00FF11FE454FD4F808161E08F73D4
:10074000DF91CF911F910F91FF90EF90DF90CF90AD
:10075000BF90AF90AACE80E49CE9F701918380839B
:100760008FEF8883DF91CF911F910F91FF90EF90D2
:10077000DF90CF90BF90AF9008951F920F920FB669
:100780000F9211240BB60F922F933F934F935F93C9
:100790006F937F938F939F93AF93BF93EF93FF9349
:1007A0008FE192E0C5DDFF91EF91BF91AF919F91F5
:1007B0008F917F916F915F914F913F912F910F900A
:1007C0000BBE0F900FBE0F901F9018951F920F92A7
:1007D0000FB60F9211240BB60F922F938F939F9306
:1007E000EF93FF93E0912F02F09130028081E0912E
:1007F0003502F091360282FD1DC090818091380251
:100800008F5F8F7320913902821741F0E091380297
:10081000F0E0E15EFD4F958F80933802FF91EF91FC
:100820009F918F912F910F900BBE0F900FBE0F9045
:100830001F9018958081F2CF1F920F920FB60F92E2
:1008400011242F933F938F939F93AF93BF938091E6
:10085000170290911802A0911902B0911A023091DA
:10086000160223E0230F2D3758F50196A11DB11D67
:10087000209316028093170290931802A0931902F6
:10088000B0931A0280911B0290911C02A0911D024C
:10089000B0911E020196A11DB11D80931B02909381
:1008A0001C02A0931D02B0931E02BF91AF919F91B5
:1008B0008F913F912F910F900FBE0F901F90189521
:1008C00026E8230F0296A11DB11DD2CF1F920F92D1
:1008D0000FB60F9211240BB60F922F933F934F93A5
:1008E0005F936F937F938F939F93AF93BF93EF9398
:1008F000FF9348E251E064E271E090E080E085DE41
:10090000FF91EF91BF91AF919F918F917F916F91E7
:100910005F914F913F912F910F900BBE0F900FBEA3
:100920000F901F9018951F920F920FB60F921124DF
:100930000BB60F922F933F934F935F936F937F93D9
:100940008F939F93AF93BF93EF93FF9348EA50E049
:1009500064EA70E083E090E058DEFF91EF91BF9190
:10096000AF919F918F917F916F915F914F913F9147
:100970002F910F900BBE0F900FBE0F901F901895E8
:100980001F920F920FB60F9211240BB60F922F9356
:100990003F934F935F936F937F938F939F93AF9307
:1009A000BF93EF93FF9348E950E064E970E082E081
:1009B00090E02BDEFF91EF91BF91AF919F918F91CE
:1009C0007F916F915F914F913F912F910F900BBE4F
:1009D0000F900FBE0F901F9018951F920F920FB699
:1009E0000F9211240BB60F922F933F934F935F9367
:1009F0006F937F938F939F93AF93BF93EF93FF93E7
:100A000048E850E064E870E081E090E0FEDDFF91AE
:100A1000EF91BF91AF919F918F917F916F915F9176
:100A20004F913F912F910F900BBE0F900FBE0F90E3
:100A30001F901895109222021092210288EE93E0E6
:100A4000A0E0B0E08093230290932402A0932502BB
:100A5000B093260284E092E09093200280931F02DC
:100A600085E391E090932C0280932B0284E391E044
:100A700090932E0280932D0280E391E090933002B8
:100A800080932F0281E391E09093320280933102B0
:100A900082E391E0909334028093330286E391E005
:100AA00090933602809335021092380210923902E8
:100AB00010923A0210923B0280914C03803398F4DA
:100AC00091E0980F90934C0380934D0390E0FC01CC
:100AD000EE0FFF1FE80FF91FE454FD4F88EB9BE07A
:100AE0009283818308958FEF80934D0308957894C6
:100AF00084B5826084BD84B5816084BD85B5826023
:100B000085BD85B5816085BD80916E0081608093D3
:100B10006E0010928100809181008260809381003C
:100B2000809181008160809381008091800081604C
:100B3000809380008091B10084608093B1008091A7
:100B4000B00081608093B0008091910082608093BA
:100B5000910080919100816080939100809190003C
:100B60008160809390008091A10082608093A100B9
:100B70008091A10081608093A1008091A00081609C
:100B80008093A00080912101826080932101809157
:100B900021018160809321018091200181608093F7
:100BA000200180917A00846080937A0080917A009D
:100BB000826080937A0080917A00816080937A00CD
:100BC00080917A00806880937A001092C100E09151
:100BD0002F02F091300282E08083E0912B02F091AD
:100BE0002C021082E0912D02F0912E028FEC808376
:100BF00010923702E0913302F091340286E0808354
:100C0000E0913102F0913202808180618083E09135
:100C10003102F0913202808188608083E09131025C
:100C2000F0913202808180688083E0913102F091FE
:100C3000320280818F7D808380914D03803308F064
:100C400068C0E1EBF1E02491EBE6F1E084918823C8
:100C500099F090E0880F991FFC01EC5BFE4FA59185
:100C6000B491FC01E65DFE4F859194918FB7F894A5
:100C7000EC91E22BEC938FBF80914D03282F30E055
:100C8000F901EE0FFF1FE20FF31FE454FD4F9081B7
:100C9000907C9D60908310924E0310924F032CE045
:100CA000622F7CD1829FB001112430E020E0AB01A3
:100CB000420F531FFA01EE0FFF1FE40FF51FE4541C
:100CC000FD4F908196FD17C02F5F3F4F2C303105AF
:100CD00071F7813009F0D9C01092800082E08093D2
:100CE00081001092850010928400B19A80916F006B
:100CF000826080936F00E0914D038E2F90E0FC01A5
:100D0000EE0FFF1FE80FF91FE454FD4F8081806450
:100D10008083C0E43C2E08E810E0C8E5D2E084EB14
:100D2000482E512C612C712C80917B00877F809301
:100D30007B0030927C0080917A00806480937A00FE
:100D400080917A0086FDFCCF80917800A091790097
:100D5000BA2FA82F24EB30E035D12FEF33E040E05D
:100D600050E0BFD0C901203242E03407B4F52091F1
:100D70004E036801C21AD10827FDD394CC0CDD1CA8
:100D8000CC0CDD1C0D2C000CEE08FF0820914F034D
:100D9000AE01421B510927FD5395440F551F440FC7
:100DA000551F052E000C660B770B9A01AB012C1911
:100DB0003D094E095F09DC01853B910514F0A4EB68
:100DC000B0E0B7FF02C0B0E0A0E0B1D0A301920153
:100DD00088D02C0D3D1D4E1D5F1D40914D034033AD
:100DE00080F580914E03B801681B710987FD7395EA
:100DF000CB01880F991F880F991F2817390784F096
:100E000080914F03BE01681B710987FD7395CB016B
:100E1000880F991F880F991F281739070CF4C901EB
:100E20000297880F991F6FB7F89450E09A01220F2C
:100E3000331F240F351FF901E454FD4F9283818342
:100E40006FBFBEDB4B015C018AE0C82ED12CE12CC8
:100E5000F12CB6DB681979098A099B09683E734051
:100E600081059105B0F371E0C71AD108E108F108D6
:100E700088EE880E83E0981EA11CB11CC114D10419
:100E8000E104F10431F7E1DA4FCF823061F41092DE
:100E9000900080939100109295001092940088BB6E
:100EA0008093710028CF833069F41092A00082E013
:100EB0008093A1001092A5001092A40089BB80939A
:100EC000720019CF811117CF1092200182E0809318
:100ED000210110922501109224018ABB8093730096
:100EE0000ACF052E97FB16F400940FD057FD05D0BE
:100EF00024D007FC02D046F408C0509540953095A8
:100F000021953F4F4F4F5F4F089590958095709575
:100F100061957F4F8F4F9F4F089531D0A59F900DC2
:100F2000B49F900DA49F800D911D11240895B7FFCB
:100F3000F4CFF3DF821B930B0895A1E21A2EAA1BB4
:100F4000BB1BFD010DC0AA1FBB1FEE1FFF1FA21779
:100F5000B307E407F50720F0A21BB30BE40BF50B76
:100F6000661F771F881F991F1A9469F760957095FF
:100F7000809590959B01AC01BD01CF010895A29F82
:100F8000B001B39FC001A39F700D811D1124911D5D
:100F9000B29F700D811D1124911D0895991B79E058
:100FA00004C0991F961708F0961B881F7A95C9F7F9
:100FB00080950895EE0FFF1F881F8BBF0790F69155
:100FC000E02D1994DCDFB7FF0895821B930B089581
:040FD000F894FFCFC3
:100FD40000000000BA0125015201060283016101EB
:020FE400750195
:00000001FF
