:1000000002C100002EC100002CC100002AC1000066
:1000100028C1000026C1000024C1000022C1000048
:1000200020C100001EC100001CC100001AC1000058
:1000300018C1000016C1000014C1000012C1000068
:1000400010C100000EC100000CC100000AC1000078
:1000500008C1000006C1000004C10000EFC3000099
:1000600000C10000FEC00000FCC00000FAC000009B
:10007000F8C00000F6C00000F4C00000F2C00000AC
:10008000F0C00000EEC00000ECC00000EAC00000BC
:10009000E8C00000E6C00000E4C00000E2C00000CC
:1000A000E0C00000DEC00000DCC00000DAC00000DC
:1000B000D8C00000D6C00000D4C00000D2C00000EC
:1000C000D0C00000CEC00000CCC00000CAC00000FC
:1000D000C8C00000C6C00000C4C00000C2C000000C
:1000E000C0C0000000002100240027002A002D00CD
:1000F0003000330001010000040107010A01000083
:100100002200250028002B002E00310034000201BF
:100110000000050108010B0100002000230026005B
:1001200029002C002F00320000010000030106010D
:10013000090105050505070508080808020202026D
:100140000A0A080804040404010101010101010173
:100150000303030303030303040707070C0C0C0C3E
:100160000C0C0C0C02020202060606060606060627
:100170000B0B0B0B0B0B0B0B0102102020080810B4
:100180002040102040800201020108040201010207
:1001900004081020408080402010080402018004E0
:1001A000020180402010080402010804020101023B
:1001B0000408102040800102040810204080000044
:1001C0000A0B02090C0D0E080703040100000000D1
:1001D000000000000000000000000000000000001F
:1001E00000000000000000000000121110000000DC
:1001F00000000000000000000000000000000000FF
:1002000000000000830611241FBECFEFD1E2DEBF45
:10021000CDBF00E00CBF12E0A0E0B2E0E4E0FEE001
:1002200000E00BBF02C007900D92A035B107D9F7CF
:1002300022E0A0E5B2E001C01D92A73EB207E1F7BF
:1002400011E0C3E0D1E000E005C021970109802F53
:10025000FE01CED5C230D10780E00807B1F738D310
:10026000CFC5CECE96E0899FD0011124A05ABD4FB4
:1002700090967C936E935F9791E091969C93919763
:10028000E091CD02F091CE029091CC02992339F009
:10029000309751F0811108C080917C0219943097F9
:1002A00019F05C968C91FACF0895CF92DF92EF927D
:1002B000FF920F931F9396E0899FF0011124E05A5B
:1002C000FD4F11A2278D30A12130310549F178F081
:1002D0002230310509F44FC02330310509F450C0F4
:1002E0001F910F91FF90EF90DF90CF9008956623BC
:1002F000B9F361E070E0B6DF2FB7F89480915C024B
:1003000090915D02A0915E02B0915F022FBF809339
:10031000B8029093B902A093BA02B093BB02E0CFA7
:100320009FB7F894C0905C02D0905D02E0905E02AE
:10033000F0905F029FBF0091B8021091B902209126
:10034000BA023091BB02C01AD10AE20AF30A009144
:10035000CA021091CB0230E020E00C151D052E05DD
:100360003F0548F462E070E01F910F91FF90EF901D
:10037000DF90CF9077CF6111B3CF63E070E0F4CF1F
:1003800070E060E0F1CFAF92BF92CF92DF92EF9238
:10039000FF920F931F93CF93DF936C017B018B012F
:1003A000040F151FEB015E01AE18BF08C017D1077F
:1003B00059F06991D601ED91FC910190F081E02D09
:1003C000C6011995892B79F7C501DF91CF911F914E
:1003D0000F91FF90EF90DF90CF90BF90AF90089576
:1003E0008150823108F059C0E82FF0E08827E550AD
:1003F000FE4F8F4FFDC41B021F020D021302170296
:100400004D02220228022C02320236023A02400237
:1004100044024D0248024E025202809180008F77C2
:10042000809380000895809180008F7DF9CF809126
:100430008000877FF5CF84B58F7784BD089584B51C
:100440008F7DFBCF8091B0008F778093B0000895AF
:100450008091B0008F7DF9CF809190008F7780934D
:1004600090000895809190008F7DF9CF8091900049
:10047000877FF5CF8091A0008F778093A0000895AB
:100480008091A0008F7DF9CF8091A000877FF5CF6C
:10049000809120018F778093200108958091200121
:1004A0008F7DF9CF80912001877FF5CFCF93DF93A8
:1004B000282F30E0F901E254FE4F8491F901E85809
:1004C000FE4FD491F901EE5CFE4FC491CC2399F01C
:1004D000811186DFEC2FF0E0EE0FFF1FE85EFE4F8C
:1004E000A591B491EC91ED2381E090E009F480E0D6
:1004F000DF91CF91089580E090E0FACF862FD6CF9C
:100500001F93CF93DF93282F30E0F901E254FE4F81
:100510008491F901E858FE4FD491F901EE5CFE4F49
:10052000C491CC23A1F0162F81115ADFEC2FF0E0FB
:10053000EE0FFF1FE250FF4FA591B4918FB7F894D3
:10054000EC91111108C0D095DE23DC938FBFDF91B1
:10055000CF911F910895DE2BF8CF862F642FD0CF37
:10056000CF93DF9390E0FC01E858FE4F24918E5C1E
:100570009E4FFC0184918823C9F090E0880F991F59
:10058000FC01EC51FF4FA591B491FC01E250FF4FEB
:10059000C591D49161110DC09FB7F8948C912095AD
:1005A00082238C938881282328839FBFDF91CF915A
:1005B0000895623051F49FB7F8943C91822F809552
:1005C00083238C93E8812E2BEFCF8FB7F894EC9197
:1005D0002E2B2C938FBFEACF862F642FC1CF089587
:1005E00090E080E00895CF93DF93EC0160E08E818E
:1005F00087DF61E08E8184DF60E08E8181DF8BE8C0
:1006000091E00197F1F7DF91CF910895CF92DF92BA
:10061000EF92FF920F931F93CF93DF936C017C01B6
:1006200087E0E80EF11CD0E0C0E0062F10E0B80132
:100630000C2E02C0759567950A94E2F76170F70178
:1006400081917F015DDF2196C430D10581F7C6011C
:10065000DF91CF911F910F91FF90EF90DF90CF909E
:10066000C2CFCF92DF92EF92FF920F931F93CF935F
:10067000DF93EC01F62E642F8C8142DF8D818F3F5A
:1006800011F060E03DDF0F2D10E08F8584FF23C067
:100690006E0187E0C80ED11CF12CE12CB8010E2CA4
:1006A00002C0759567950A94E2F76170F601819131
:1006B0006F0126DFFFEFEF1AFF0A88E0E816F1046A
:1006C00069F7CE01DF91CF911F910F91FF90EF90CD
:1006D000DF90CF9088CFB80184E0759567958A95B3
:1006E000E1F7CE0193DF6F2DCE01DF91CF911F9106
:1006F0000F91FF90EF90DF90CF9088CF40E0682F70
:100700008FEC92E0AECF81E0F9DF8BE39FE10197C0
:10071000F1F70895CF93DF93823029F49091DE02B0
:1007200098609093DE028093E2021092E30280E4EC
:100730008093E40280E18093E50280E58093E60205
:1007400061E08091D3020CDF8091D4028F3F11F0E1
:1007500061E006DF61E08091D50202DFCFECD2E0FC
:100760009E012F5C32408091DE0284FD0AC084E04D
:1007700090E02196281739073CF461E08E81F0DE85
:10078000EFCF88E090E0F5CF8BE39DE00197F1F7A4
:1007900060E08091D302B4DE60E08091D502B0DEEB
:1007A0008091D4028F3F11F060E0AADE8091DE02DA
:1007B00084FD2CC063E08FEC92E028DFCBE4D6E42C
:1007C000CE010197F1F763E08FEC92E01FDF2197F4
:1007D000F1F763E08FEC92E019DF83E592E0019797
:1007E000F1F762E08FEC92E011DF8091DE0280622F
:1007F00085DF84E08093DF028CE080DF84DF82E0AD
:100800008093E00286E0DF91CF9178CF806276DF3F
:100810008BE496E40197F1F78091DE0280626EDF4F
:1008200083E592E00197F1F78091DE02806266DF56
:10083000DCCF41E016DF81E090E008951F920F9237
:100840000FB60F9211242F933F938F939F93AF93E3
:10085000BF9380915C0290915D02A0915E02B09185
:100860005F023091540223E0230F2D3758F5019693
:10087000A11DB11D2093540280935C0290935D02F0
:10088000A0935E02B0935F0280915002909151025A
:10089000A0915202B09153020196A11DB11D809307
:1008A000500290935102A0935202B0935302BF9111
:1008B000AF919F918F913F912F910F900FBE0F900D
:1008C0001F90189526E8230F0296A11DB11DD2CFC7
:1008D000789484B5826084BD84B5816084BD85B51B
:1008E000826085BD85B5816085BD80916E00816027
:1008F00080936E00109281008091810082608093CD
:1009000081008091810081608093810080918000CE
:100910008160809380008091B10084608093B100F9
:100920008091B00081608093B000809191008260DE
:1009300080939100809191008160809391008091DB
:1009400090008160809390008091A10082608093EC
:10095000A1008091A10081608093A1008091A000FE
:1009600081608093A00080912101826080932101A9
:10097000809121018160809321018091200181601B
:100980008093200180917A00846080937A00809126
:100990007A00826080937A0080917A0081608093EF
:1009A0007A0080917A00806880937A001092C1006A
:1009B00082E0B0DEA8DEE1E08091E2028111E0E0B9
:1009C000E195F0E0E153FD4F8489806897DE109255
:1009D0005B0210925A02412C512C32014394222482
:1009E0002A94322C50E0C52E50E0D52E51E0509381
:1009F000CC028FB7F89440915C0250915D026091F7
:100A00005E0270915F028FBF8091BC029091BD0227
:100A1000A091BE02B091BF02481B590B6A0B7B0B21
:100A20008091C8029091C902B0E0A0E084179507B8
:100A3000A607B70708F00BC1C0E08091C602C8172F
:100A400058F4E091C202F091C302EC0FF11D62E094
:100A5000808186DDCF5FF1CF912C8091C7029816FF
:100A600008F05AC0092D10E0E091C402F091C502CF
:100A7000E00FF11F61E0808173DDE091C402F0912D
:100A8000C502E00FF11F60E080813ADDD301C201B1
:100A9000092C04C0880F991FAA1FBB1F0A94D2F704
:100AA0005C017C01E094F094812C8091C602881650
:100AB000F0F4C82DD0E0E091C202F091C302EC0F37
:100AC000FD1F8081F3DC2496CC0FDD1FC05ADD4F63
:100AD000892B41F4888199818A299B29998388836C
:100AE0008394E3CF888199818E219F21F7CFE09174
:100AF000C402F091C502E00FF11F61E0808100DDCA
:100B00008091C4029091C502080F191F60E0F8019E
:100B1000808126DD9394A1CFC0E6D2E0FE01878DCF
:100B200090A1892B21F4148E368E258E11A2369633
:100B300052E0EC39F50799F710E08091C6021817DA
:100B400008F052C000E0E12EF12CEE0CFF1CC701B2
:100B500088599D4F7C012091C702021708F042C0BE
:100B6000F70160817181002E02C0769567950A9425
:100B7000E2F7129F90011124200F311DE0E6F2E010
:100B800080E0458D568D2417350709F4BAC08F5F74
:100B900036968A30B1F760FF23C0E0E6F2E090E0DD
:100BA00080E0448D411117C0E091C002F091C10274
:100BB000E20FF31F408156E0589FF001599FF00D5E
:100BC0001124E05AFD4F448F368F258F10A2178EC7
:100BD00061E06BDB05C0019636968A30910509F716
:100BE0000F5FB9CF1F5FA9CF80E099A19111892F25
:100BF000269692E0CC39D907C1F79FB7F894409177
:100C00005C0250915D0260915E0270915F029FBF35
:100C10004093BC025093BD026093BE027093BF022A
:100C20008823A9F080918102882389F080917F0236
:100C300090918002019759F4C0917C02C1110AC0C1
:100C4000C114D10409F4D2CE0E940000CFCE10927C
:100C5000CC02F6CFCA32C9F0C33409F44AC041E02D
:100C60006C2F8FEC92E0FDDC80915A0290915B0238
:100C70008430910524F4FC01EA5AFD4FC0830196AB
:100C800090935B0280935A02DBCF80915A0290913D
:100C90005B02049781F480915602813361F4809164
:100CA0005702823341F480915802833321F48091BA
:100CB0005902843319F0E1E0E0935502E091E20239
:100CC000E230A8F4E150F0E0E153FD4F8489806800
:100CD00015DD8091550240E150E06EE272E0811135
:100CE00002C06FE372E08FEC92E04DDBA9CFE1E050
:100CF000EACF09DD10925B0210925A02109255025F
:100D00009FCF617066CF10926202109266021092BD
:100D100065021092670288E292E0909361028093EC
:100D20006002ECE7F2E0108214821382158236969C
:100D300082E0E83BF807B9F784E092E09093C302C1
:100D40008093C20280E092E09093C5028093C40237
:100D500084E08093C6028093C70288E092E090937B
:100D6000C1028093C0028AE090E09093C902809310
:100D7000C80284EF91E09093CB028093CA02109254
:100D8000CE021092CD021092BC021092BD021092BF
:100D9000BE021092BF021092CC021092D2021092A8
:100DA000D1028CE192E09093D0028093CF028DE04B
:100DB0008093D3028FEF8093D4028CE08093D5028E
:100DC00088E08093D60289E08093D7028AE08093FE
:100DD000D8028BE08093D9021092DA021092DB02E3
:100DE0001092DC021092DD021092DE0281E092CCC1
:100DF000EE0FFF1F881F8BBF0790F691E02D19940F
:040E0000F894FFCF94
:100E040017191B1D1F2123253738392F3435362A4E
:100E14003132332D4330452B000000001904C30147
:100E2400F002EF0200000000EC02AD027E02205747
:100E3400726F6E672070617373776F726420004302
:100E44006F72726563742070617373776F7264007C
:00000001FF
