:10000000F6C0000024C1000022C1000020C1000091
:100010001EC100001CC100001AC1000018C1000070
:1000200016C1000014C1000012C1000010C1000080
:100030000EC100000CC100000AC1000008C1000090
:1000400006C1000023C6000002C1000000C100007C
:10005000FEC00000FCC00000FAC0000046C5000061
:10006000F6C00000F4C00000F2C00000F0C00000C4
:10007000EEC00000ECC00000EAC00000E8C00000D4
:10008000D8C50000E4C00000E2C00000E0C00000ED
:10009000DEC00000DCC00000DAC00000D8C00000F4
:1000A000D6C00000D4C0000097C50000D0C000003A
:1000B000CEC00000CCC00000CAC0000060C5000077
:1000C000C6C00000C4C00000C2C00000C0C0000024
:1000D000BEC00000BCC00000D2C40000A7C4000025
:1000E000B6C0000000000A0B02090C0D0E08070341
:1000F00004010000000000000000000000000000FB
:1001000000000000000000000000000000000000EF
:1001100012111000000000000000000000000000AC
:100120000000000000000000000000002200250088
:1001300028002B002E0031003400020100000501D0
:1001400008010B0100002100240027002A002D00D7
:100150003000330001010000040107010A01050518
:100160000505070508080808020202020A0A08082D
:10017000040404040101010101010101030303035B
:1001800003030303040707070C0C0C0C0C0C0C0CEA
:100190000202020206060606060606060B0B0B0BFB
:1001A0000B0B0B0B01021020200808102040102020
:1001B000408002010201080402010102040810202B
:1001C0004080804020100804020180040201804029
:1001D0002010080402010804020101020408102092
:1001E000408001020408102040807306C5081124D5
:1001F0001FBECFEFD1E2DEBFCDBF00E00CBF12E0EB
:10020000A0E0B2E0ECE9F7E100E00BBF02C007902C
:100210000D92A434B107D9F723E0A4E4B2E001C001
:100220001D92AE38B207E1F710E0C6EFD0E000E073
:1002300006C021970109802FFE010E94A409C53F35
:10024000D10780E00807A9F7B9D50C94BD0BD8CE2B
:10025000CF92DF92EF92FF92DC01A03282E0B807EA
:10026000CCF5A53BB10514F0A4EBB0E040918803B8
:1002700028E830E0241B310947FD3395220F331F56
:10028000220F331F6901330FEE08FF0840918903E5
:1002900028E532E0241B310947FD3395220F331F37
:1002A000220F331F032E000C440B550B2C193D0954
:1002B0004E095F09B7FF02C0B0E0A0E00E946109EB
:1002C00024EB30E040E050E0D6D7C20ED31EE41E4F
:1002D000F51ED601E0918703E03380F52091880375
:1002E00088E890E0821B910927FD9395880F991F5C
:1002F000880F991FA817B90784F02091890388E512
:1003000092E0821B910927FD9395880F991F880F12
:10031000991FA817B9070CF4CD010297880F991FF0
:100320004FB7F8942E2F30E0F901EE0FFF1FE20FC8
:10033000F31FE051FD4F928381834FBFFF90EF90F9
:10034000DF90CF9008958F929F92AF92BF92CF92FD
:10035000DF92EF92FF928091890358E5C52E52E01B
:10036000D52EC81AD10887FDD394CC0CDD1CCC0C3B
:10037000DD1C0D2C000CEE08FF088091880378E846
:10038000872E912C881A910887FD9394880C991CCC
:10039000880C991C092C000CAA08BB0880918703C3
:1003A0008F3FC1F190E0FC01EE0FFF1FE80FF91F36
:1003B000E051FD4F8181928133E0880F991F3A957A
:1003C000E1F7B0E0A0E044E0B595A7959795879553
:1003D0004A95D1F702969C012F5F3F4F032E000CE8
:1003E000440B550B281939094A095B09A4EBB0E005
:1003F0005ED7A7019601281939094A095B093BD73D
:10040000C901FF90EF90DF90CF90BF90AF909F9089
:100410008F90089590E080E0DECFAF92BF92CF92B0
:10042000DF92EF92FF920F931F93CF93DF936C01B4
:100430007B018B01040F151FEB015E01AE18BF0895
:10044000C017D10759F06991D601ED91FC91019047
:10045000F081E02DC6011995892B79F7C501DF914F
:10046000CF911F910F91FF90EF90DF90CF90BF90B1
:10047000AF900895FC01538D448D252F30E0842FDB
:1004800090E0821B930B541710F0CF9608950197BC
:100490000895FC01918D828D981761F0A28DAE0FA9
:1004A000BF2FB11D5D968C91928D9F5F9F73928F30
:1004B00090E008958FEF9FEF0895FC01918D828D5C
:1004C000981731F0828DE80FF11D858D90E0089529
:1004D0008FEF9FEF0895FC01918D228D892F90E081
:1004E000805C9F4F821B91098F739927089583E544
:1004F00092E0F1DF21E0892B09F420E0822F0895BA
:10050000FC01A48DA80FB92FB11DA35ABF4F2C9188
:10051000848D90E001968F739927848FA689B7897F
:100520002C93A089B1898C91837080648C93938D76
:10053000848D981306C00288F389E02D80818F7D19
:1005400080830895EF92FF920F931F93CF93DF93D1
:10055000EC0181E0888F9B8D8C8D98131AC0E889FF
:10056000F989808185FF15C09FB7F894EE89FF89CE
:100570006083E889F98980818370806480839FBF6C
:1005800081E090E0DF91CF911F910F91FF90EF906C
:100590000895F62E0B8D10E00F5F1F4F0F7311277C
:1005A000E02E8C8D8E110BC00FB607FCFACFE889B8
:1005B000F989808185FFF5CFCE01A2DFF2CFEB8DE7
:1005C000EC0FFD2FF11DE35AFF4FF0829FB7F89417
:1005D0000B8FEA89FB8980818062D0CFCF93DF9334
:1005E000EC01888D8823B1F0AA89BB89E889F98953
:1005F0008C9185FD03C0808186FD0CC00FB607FC81
:10060000F7CF8C9185FFF2CF808185FFEDCFCE01B2
:1006100077DFEACFDF91CF91089580E090E0892BDA
:1006200049F080E090E0892B29F00E9400008111C0
:100630000E94000080E090E0892B49F080E090E08B
:10064000892B29F00E94000081110E94000080E0A7
:1006500090E0892B49F080E090E0892B29F00E94FE
:10066000000081110E94000080E090E0892B21F0C1
:100670003EDF81110C9400000895282F30E0F9012D
:10068000EC51FF4F9491F901EC55FE4F4491225AE1
:100690003E4FF9012491222309F434C0992309F132
:1006A00091509231F0F4E92FF0E08827E65AFC4FA0
:1006B0008F4F4AC68B038F036C0383038703710339
:1006C000920398039C03A203A603AA03B003B403F6
:1006D0007103B803BE03C203809180008F778093BB
:1006E0008000E22FF0E0EE0FFF1FE65DFE4FA591C8
:1006F000B4918FB7F894EC91611148C040954E23A6
:100700004C938FBF0895809180008F7DE8CF8091BA
:100710008000877FE4CF84B58F7784BDE2CF84B536
:100720008F7DFBCF8091B0008F778093B000D9CFC1
:100730008091B0008F7DF9CF809190008F7780936A
:100740009000CFCF809190008F7DF9CF8091900065
:10075000877FF5CF8091A0008F778093A000C1CFD5
:100760008091A0008F7DF9CF8091A000877FF5CF89
:10077000809120018F7780932001B3CF8091200159
:100780008F7DF9CF80912001877FF5CF4E2BB8CF99
:100790003FB7F89480914D0290914E02A0914F0284
:1007A000B091500226B5A89B05C02F3F19F00196C5
:1007B000A11DB11D3FBFBA2FA92F982F8827BC01BB
:1007C000CD01620F711D811D911D42E0660F771FE3
:1007D000881F991F4A95D1F70895AF92BF92CF9283
:1007E000DF92EF92FF920F931F93CF93DF936B01F2
:1007F0007A01EC01CC5BDD4F28813CE0389F800121
:10080000399F100D1124A0908003B12C27FF1FC029
:10081000FB011182108288818F5F88838881980113
:10082000280F311D87FD3A95F6012A153B051CF46A
:1008300088818C30BCF180819181049680349C4900
:1008400008F471C0F6018081918104966EC08881A0
:100850009801280F311D87FD3A952A153B05DCF6D6
:100860008881A801480F511D87FD5A95FA01EE0FA6
:10087000FF1FE40FF51FE051FD4F808186FFCBCFB6
:100880008881F801E80FF11D87FDFA95CF01EE0F81
:10089000FF1FE80FF91FE051FD4F808160E08F736B
:1008A000ECDEB9CF808191812881A801420F511DD2
:1008B00027FD5A959A01FA01EE0FFF1FE20FF31F71
:1008C000E051FD4F21813281820F931FF701918307
:1008D000808388819801280F311D87FD3A95F901A1
:1008E000EE0FFF1FE20FF31FE051FD4F808186FFE7
:1008F00021C08881080F111D87FD1A95F801EE0FA0
:10090000FF1FE00FF11FE051FD4F808161E08F7309
:10091000DF91CF911F910F91FF90EF90DF90CF90DB
:10092000BF90AF90AACE80E49CE9F70191838083C9
:100930008FEF8883DF91CF911F910F91FF90EF9000
:10094000DF90CF90BF90AF900895CF93DF93FC01DD
:1009500001900020E9F73197AF01481B590BBC010A
:1009600083E592E05ADDEC0142E050E068E172E09C
:1009700083E592E052DD8C0F9D1FDF91CF910895AA
:10098000CF93DF93EC0180918103909182030097D4
:1009900059F020918303309184032C173D0720F0F8
:1009A00081E0DF91CF910895BE016F5F7F4FF9D550
:1009B000009789F09093820380938103D0938403FE
:1009C000C09383032091850330918603232B41F745
:1009D000FC011082E5CF80E0E4CFCF93DF93EC0100
:1009E000CFDF2091810330918203811116C0211540
:1009F000310511F0C9014CD5109282031092810388
:100A00001092860310928503109284031092830340
:100A100081E893E0DF91CF910895D0938603C0934E
:100A200085036AE172E0C901A1D6F2CF1F920F924D
:100A30000FB60F9211240BB60F922F933F934F9343
:100A40005F936F937F938F939F93AF93BF93EF9336
:100A5000FF9383E592E054DDFF91EF91BF91AF9159
:100A60009F918F917F916F915F914F913F912F91C6
:100A70000F900BBE0F900FBE0F901F9018951F92F6
:100A80000F920FB60F9211240BB60F922F938F93E4
:100A90009F93EF93FF93E0916302F0916402808152
:100AA000E0916902F0916A0282FD1DC090818091FF
:100AB0006C028F5F8F7320916D02821741F0E0917D
:100AC0006C02F0E0ED5AFD4F958F80936C02FF9120
:100AD000EF919F918F912F910F900BBE0F900FBEB2
:100AE0000F901F9018958081F2CF1F920F920FB632
:100AF0000F9211242F933F938F939F93AF93BF93A4
:100B00008091490290914A02A0914B02B0914C020F
:100B10003091480223E0230F2D3758F50196A11D8F
:100B2000B11D209348028093490290934A02A093FA
:100B30004B02B0934C0280914D0290914E02A091D5
:100B40004F02B09150020196A11DB11D80934D023C
:100B500090934E02A0934F02B0935002BF91AF9179
:100B60009F918F913F912F910F900FBE0F901F90EB
:100B7000189526E8230F0296A11DB11DD2CF1F9212
:100B80000F920FB60F9211240BB60F922F933F9333
:100B90004F935F936F937F938F939F93AF93BF9385
:100BA000EF93FF9348E251E064E271E090E080E06F
:100BB00014DEFF91EF91BF91AF919F918F917F9143
:100BC0006F915F914F913F912F910F900BBE0F90BE
:100BD0000FBE0F901F9018951F920F920FB60F9295
:100BE00011240BB60F922F933F934F935F936F9304
:100BF0007F938F939F93AF93BF93EF93FF9348EAB5
:100C000050E064EA70E083E090E0E7DDFF91EF916F
:100C1000BF91AF919F918F917F916F915F914F9114
:100C20003F912F910F900BBE0F900FBE0F901F9012
:100C300018951F920F920FB60F9211240BB60F92B8
:100C40002F933F934F935F936F937F938F939F93D4
:100C5000AF93BF93EF93FF9348E950E064E970E0EE
:100C600082E090E0BADDFF91EF91BF91AF919F914B
:100C70008F917F916F915F914F913F912F910F9045
:100C80000BBE0F900FBE0F901F9018951F920F92E2
:100C90000FB60F9211240BB60F922F933F934F93E1
:100CA0005F936F937F938F939F93AF93BF93EF93D4
:100CB000FF9348E850E064E870E081E090E08DDD6B
:100CC000FF91EF91BF91AF919F918F917F916F9124
:100CD0005F914F913F912F910F900BBE0F900FBEE0
:100CE0000F901F901895109256021092550288EEA0
:100CF00093E0A0E0B0E08093570290935802A09355
:100D00005902B0935A028AE092E090935402809381
:100D1000530285E391E09093600280935F0284E345
:100D200091E0909362028093610280E391E090935E
:100D300064028093630281E391E090936602809362
:100D4000650282E391E0909368028093670286E3F4
:100D500091E090936A028093690210926C02109263
:100D60006D0210926E0210926F02809180038033A8
:100D700008F591E0980F909380038093870390E0AB
:100D8000FC01EE0FFF1FE80FF91FE051FD4F88EB4C
:100D90009BE09283818310928203109281031092D0
:100DA000840310928303109286031092850390E0CF
:100DB00080E013CE8FEF80938703EDCFCF93DF9347
:100DC00000D000D01F921F92CDB7DEB7789484B5C3
:100DD000826084BD84B5816084BD85B5826085BD37
:100DE00085B5816085BD80916E00816080936E00C5
:100DF00010928100809181008260809381008091B7
:100E00008100816080938100809180008160809367
:100E100080008091B10084608093B1008091B00027
:100E200081608093B00080919100826080939100F6
:100E30008091910081608093910080919000816009
:100E4000809390008091A10082608093A1008091A6
:100E5000A10081608093A1008091A00081608093B7
:100E6000A000809121018260809321018091210165
:100E70008160809321018091200181608093200115
:100E800080917A00846080937A0080917A008260F9
:100E900080937A0080917A00816080937A008091BB
:100EA0007A00806880937A001092C100E09163021A
:100EB000F091640282E08083E0915F02F091600231
:100EC0001082E0916102F09162028FEC80831092B7
:100ED0006B02E0916702F091680286E08083E09106
:100EE0006502F0916602808180618083E0916502F5
:100EF000F0916602808188608083E0916502F091C4
:100F00006602808180688083E0916502F0916602CC
:100F100080818F7D808380918703803308F068C053
:100F2000E1EBF1E02491EBE6F1E08491882399F084
:100F300090E0880F991FFC01EC5BFE4FA591B491E6
:100F4000FC01E65DFE4F859194918FB7F894EC918A
:100F5000E22BEC938FBF80918703282F30E0F901BB
:100F6000EE0FFF1FE20FF31FE051FD4F9081907CC9
:100F70009D60908310928803109289032CE0622F69
:100F8000D7D1829FB001112430E020E0AB01420FA5
:100F9000531FFA01EE0FFF1FE40FF51FE051FD4F45
:100FA000908196FD17C02F5F3F4F2C30310571F7B0
:100FB000813009F05AC01092800082E08093810055
:100FC0001092850010928400B19A80916F00826027
:100FD00080936F00E09187038E2F90E0FC01EE0F6D
:100FE000FF1FE80FF91FE051FD4F8081806480836F
:100FF00090E080E02DD9CE0101967C0183E592E05E
:101000006ADA181619060CF089C083E592E041DA15
:10101000C0978D30910509F087C080918103909130
:101020008203009709F44DC0B8D0709352026093C8
:10103000510286E292E0653B710508F073C08BE1D6
:1010400092E083DC80D90091510210915202800F0E
:10105000911F853B9105CCF176D9801B910B97FDB3
:101060005FC071D9801B910B33C0823061F4109244
:10107000900080939100109295001092940088BB8C
:1010800080937100A7CF833069F41092A00082E0B2
:101090008093A1001092A5001092A40089BB8093B8
:1010A000720098CF811196CF1092200182E0809338
:1010B000210110922501109224018ABB80937300B4
:1010C00089CF60E070E0CB01B0CF3DD9800F911F98
:1010D000BFD890E080E081DC5BDB4B015C0184E108
:1010E000482E512C612C712C53DB681979098A091F
:1010F0009B09683E734081059105B0F391E0491A60
:1011000051086108710828EE820E23E0921EA11C8E
:10111000B11C411451046104710431F77EDA6ECFC1
:1011200083E392E012DCD5CF8E3F2FEF920739F4A4
:1011300090E080E052DC8EE392E007DCEFCF4AE003
:10114000B70151D0F70101900020E9F73197EE196E
:10115000FF0921F300918503109186030E0F1F1FD5
:10116000C8010EDC8823D1F22091810330918203E3
:101170008091850390918603B701820F931FF6D269
:101180001093860300938503C9CF809181039091CA
:101190008203009709F07CC108951F93FC019927F1
:1011A0008827BC01E89411911032E9F3193010F04E
:1011B0001E30C8F31B3249F01D3241F4689405C05B
:1011C0001CD0610F711D811D911D119110531A309A
:1011D000B8F33EF490958095709561957F4F8F4F51
:1011E0009F4F1F910895BB274A3031F4992322F471
:1011F000BDE2909581959F4F16C0592F482F372FEC
:10120000262F660F771F881F991F660F771F881F6D
:10121000991F620F731F841F951F660F771F881F0A
:10122000991F0895BB27FB015527AA27880F991FEF
:10123000AA1FA41710F0A41B83955051B9F7A05D05
:10124000AA3308F0A95DA193009779F7B111B19382
:101250001192CB0100C0DC01FC01672F7191772353
:10126000E1F7329704C07C916D9370836291AE1761
:10127000BF07C8F30895052E97FB16F400940FD00E
:1012800057FD05D024D007FC02D046F408C0509585
:101290004095309521953F4F4F4F5F4F0895909562
:1012A0008095709561957F4F8F4F9F4F089531D0F6
:1012B000A59F900DB49F900DA49F800D911D1124AA
:1012C0000895B7FFF4CFF3DF821B930B0895A1E2DB
:1012D0001A2EAA1BBB1BFD010DC0AA1FBB1FEE1FB0
:1012E000FF1FA217B307E407F50720F0A21BB30BFB
:1012F000E40BF50B661F771F881F991F1A9469F777
:1013000060957095809590959B01AC01BD01CF01D2
:101310000895A29FB001B39FC001A39F700D811DCE
:101320001124911DB29F700D811D1124911D0895EE
:10133000991B79E004C0991F961708F0961B881F27
:101340007A95C9F780950895EE0FFF1F881F8BBF10
:101350000790F691E02D19940F931F93CF93DF938D
:101360008230910510F482E090E0E0918C03F091DE
:101370008D0330E020E0B0E0A0E0309799F4211533
:10138000310509F44AC0281B390B24303105D8F542
:101390008A819B816115710589F1FB0193838283A9
:1013A000FE0111C040815181028113814817590704
:1013B000E0F04817590799F4109761F012960C93D2
:1013C000129713961C933296CF01DF91CF911F9104
:1013D0000F91089500938C0310938D03F4CF211582
:1013E000310551F04217530738F0A901DB019A018A
:1013F000BD01DF01F801C1CFEF01F9CF90938D035B
:1014000080938C03CDCFFE01E20FF31F8193919364
:101410002250310939832883D7CF20918A03309114
:101420008B03232B41F4209102023091030230936D
:101430008B0320938A032091000230910102211531
:10144000310541F42DB73EB7409104025091050299
:10145000241B350BE0918A03F0918B03E217F3070D
:10146000A0F42E1B3F0B2817390778F0AC014E5F14
:101470005F4F2417350748F04E0F5F1F50938B03C3
:1014800040938A03819391939FCFF0E0E0E09CCF5B
:10149000CF93DF930097E9F0FC0132971382128219
:1014A000A0918C03B0918D03ED0130E020E0109706
:1014B000A1F420813181820F931F20918A03309102
:1014C0008B032817390709F061C0F0938B03E09371
:1014D0008A03DF91CF910895EA01CE17DF07E8F57F
:1014E0004A815B819E0141155105B1F7E901FB83FA
:1014F000EA8349915991C40FD51FEC17FD0761F498
:10150000808191810296840F951FE90199838883D8
:10151000828193819B838A83F0E0E0E012968D9133
:101520009C9113970097B9F52D913C911197CD019E
:101530000296820F931F20918A0330918B03281704
:10154000390739F6309751F510928D0310928C03BC
:10155000B0938B03A0938A03BCCFD383C283408113
:101560005181840F951FC817D90761F44E5F5F4FF3
:1015700088819981480F591F518340838A819B81BB
:10158000938382832115310509F0B0CFF0938D0349
:10159000E0938C039ECFFD01DC01C0CF1382128249
:1015A000D7CF4F925F926F927F928F929F92AF921E
:1015B000BF92CF92DF92EF92FF920F931F93CF9340
:1015C000DF938C01009791F4CB01DF91CF911F91B4
:1015D0000F91FF90EF90DF90CF90BF90AF909F90D2
:1015E0008F907F906F905F904F90B6CEFC01E60F8A
:1015F000F71F9C0122503109E217F30708F4AAC033
:10160000D901CD91DC911197C617D70718F1C530D4
:10161000D10570F0CE0104978617970748F0C61BD6
:10162000D70B2297C193D1936D937C93CF0130DF79
:10163000C801DF91CF911F910F91FF90EF90DF9044
:10164000CF90BF90AF909F908F907F906F905F9062
:101650004F9008955B01AC1ABD0A4C018C0E9D1E83
:10166000A0918C03B0918D03512C412CF12CE12CD5
:10167000109731F580918A0390918B038815990515
:1016800009F05CC04616570608F058C08091000269
:1016900090910102009741F48DB79EB740910402EA
:1016A00050910502841B950BE817F90708F052C00A
:1016B000F0938B03E0938A03F90171836083B8CFC1
:1016C0008D919C91119712966C90129713967C9025
:1016D0001397A815B90559F56C0142E0C40ED11C49
:1016E000CA14DB0420F1AC014A195B09DA01129635
:1016F000159780F06282738251834083D9016D9384
:101700007C93E114F10471F0D7011396FC93EE93EE
:1017100012978ECF22968C0F9D1FF90191838083A3
:10172000F301EFCFF0938D03E0938C0381CF481644
:10173000590608F42C017D01D3019ACFCB010CDEB0
:101740007C01009739F0AE01B80107D0C801A0DED6
:1017500087016ECF10E000E06BCFFB01DC0102C01F
:1017600001900D9241505040D8F70895FB01DC01E3
:1017700001900D920020E1F7089510E0C6EFD0E04F
:1017800000E005C0802FFE01DFDD2196011DC73F6F
:0C179000D10780E00807B1F7F894FFCF04
:10179C0000008E03800000000000A2020D023A023D
:1017AC00EE026B0249025D020D0A0056616C69641F
:1017BC00206461746100496E76616C6964206461B7
:1017CC0074610043616E2774206D6F766500436C05
:0417DC0065617200D1
:00000001FF
